:020000040000FA
:1000000070130010D5010000DD010000DF010000C9
:10001000E1010000E3010000E50100000000000034
:100020000000000000000000000000006903000064
:10003000E901000000000000E10300001D040000D1
:10004000EF010000EF010000EF010000EF010000F0
:10005000EF010000EF010000EF010000EF010000E0
:10006000EF010000EF010000EF010000EF010000D0
:10007000EF010000EF010000EF0100007D2B000008
:10008000EF010000EF010000EF010000EF010000B0
:10009000EF010000EF010000C9080000EF010000BF
:1000A000EF010000EF010000B1090000EF010000C6
:1000B000EF010000EF010000EF010000EF01000080
:1000C000EF010000EF010000EF01000000F002F876
:1000D00000F05FF80AA090E8000C82448344AAF183
:1000E0000107DA4501D100F054F8AFF2090EBAE881
:1000F0000F0013F0010F18BFFB1A43F0010318475C
:10010000A06A0000C06A00000A444FF0000C10F81A
:10011000013B13F0070408BF10F8014B1D1108BF85
:1001200010F8015B641E05D010F8016B641E01F825
:10013000016BF9D113F0080F1EBF10F8014BAD1C75
:100140000C1B09D16D1E58BF01F801CBFAD505E093
:1001500014F8016B01F8016B6D1EF9D59142D6D3ED
:10016000704700000023002400250026103A28BF15
:1001700078C1FBD8520728BF30C148BF0B60704719
:10018000642900F0CD81002070471FB51FBD10B558
:1001900010BD00F01BFB1146FFF7F7FF0FB400F096
:1001A0000BF80FBC03F010FE00F071F803B4FFF77A
:1001B000EEFF03BC00F004FB04B003F025FF04488D
:1001C000002103F075FF03F031FF00F060F800003C
:1001D000380100100948804709480047FEE7FEE75C
:1001E000FEE7FEE7FEE7FEE7FEE7FEE7FEE7FEE7E7
:1001F00004480549034A054B7047000009370000D1
:10020000CD0000007011001070130010701100106C
:10021000004870470C1100100FB41CB5074B06AA1C
:100220007B4469460090059800F0B1FA00206946C9
:1002300000F0C0FA1CBC5DF814FB00009105000042
:1002400070B5044685690068C10601D5302600E016
:100250002026C00707D070BDD4E901213046904761
:10026000206A401C20626D1EF6D570BD70B5044634
:1002700085690078C00707D170BDD4E9012120202D
:100280009047206A401C20626D1EF6D570BD10B5E7
:100290000446AFF300802046BDE81040FFF786BF5C
:1002A0004FF0000200B5134694469646203922BF0F
:1002B000A0E80C50A0E80C50B1F12001BFF4F7AF5A
:1002C000090728BFA0E80C5048BF0CC05DF804EB3C
:1002D000890028BF40F8042B08BF704748BF20F8AA
:1002E000022B11F0804F18BF00F8012B70477047A8
:1002F000704770477047000000000000FFFFFFFFDD
:1003000080F309887047EFF309807047684680F3EF
:10031000098804480078C00714BF0220032080F336
:1003200014887047086A0000DFF818C0EFF30583EF
:100330001B0618BF6047EFF31483DB0708BF604755
:1003400000DF70475D420000DFF818C0EFF305835F
:100350001B0618BF6047EFF31483DB0708BF604735
:1003600000DF704739440000EFF30980816911F81C
:10037000021CF1B990E80F10E047EFF3098C8CE80C
:100380000700144B93E8060091420FD039B12CE9D5
:10039000F00FC1F828C00CB404F0E2FB0CBC1A60EA
:1003A000D2F828C0BCE8F00F8CF309886FF0020E79
:1003B000704710B5084A1268914209D8074C54F8A2
:1003C000214090E80F10A047EFF3098C8CE80F0054
:1003D00010BD000074010010F8020000F8020000D7
:1003E00004F090FA0C4B93E80600914210D0EFF322
:1003F000098C2CE9F00FC1F828C00CB404F0B0FB54
:100400000CBC1A60D2F828C0BCE8F00F8CF3098845
:100410006FF0020E704700007401001004F068FCD9
:10042000E0E7000003F0C0FE04F062FCDAE7000041
:1004300053EA020C00F069802DE9F04B4FF0000602
:10044000002B1FBFB3FA83F503FA05F424FA05F66F
:100450005E4012BF1643B2FA82F502FA05F4C5F106
:1004600020051EBF22FA05FC44EA0C04203556EA9A
:10047000044C4FEA144418BF641C4FF000084FF0BE
:100480000009904271EB030C39D3002919BFB1FA6E
:1004900081F701FA07F6B0FA80F700FA07F6C7F11C
:1004A00020071EBF20FA07FC46EA0C062037B6FBE1
:1004B000F4FCA7EB0507103F07F01F0BCBF120065C
:1004C0000CFA0BFB2CFA06F644BFB3460026202F8D
:1004D000A4BF5E464FF0000B5BEA060C08BF4FF06E
:1004E000010B19EB0B09ABFB027C48EB0608C01BA8
:1004F00006FB02CC0BFB03CC71EB0C01C1E70B46F6
:10050000024641464846BDE8F08B13B54FF0000067
:100510004FF00001AFF30080BDE81C4070470000C1
:100520002DE9F0410646002410687529314616A5CC
:1005300010D0AFF30080002802DA404213A507E094
:1005400031688A0701D512A502E0490704D511A533
:10055000012401E0AFF3008000210A2206F1240704
:1005600009E0B0FBF2FCB0FBF2F302FB1C00303000
:1005700078541846491C0028F3D123462A463046B1
:10058000BDE8F04100F0A4B8000000002D0000001C
:100590002B000000200000002DE9F05F8946044692
:1005A0004FF0000ADFF824B1FB44C0F820A0204639
:1005B000E168884700287DD0252806D0D4E90121AC
:1005C0009047206A401C2062F1E700255F462046E4
:1005D000E16888472028064607DB312E05D2B81986
:1005E00010F8200C08B10543F1E7A80701D525F064
:1005F0000405C4F81CA00027C4F818A02A2E09D0AE
:10060000304603F0F8FA38B304EB8708303EC8F8F8
:10061000186019E059F8041B204604EB8702916129
:10062000E1688847012F064618D1E069002820DAE2
:1006300025F020051DE0D8F8180000EB800006EB3F
:1006400040003038C8F818002046E1688847064660
:1006500003F0D1FA0028EED1012F0AD02E2E08D1B6
:100660002046E16888477F1C0646022F45F020059A
:10067000C4DBA069002803DA404245F00105A0610F
:10068000E80701D025F01005A6B1A6F14100192810
:1006900002D8203645F400654A463146204625609A
:1006A0004D46FFF76DFD60B1012807D0ED1D25F027
:1006B000070000E007E000F1080978E705F1040908
:1006C00075E730467AE7206ABDE8F09F18650000BC
:1006D0002DE9F0470D4699469246044600F124085C
:1006E0000168880604D5E06921F01001216000E06E
:1006F0000120A84201DD471B00E00027A1697A190B
:1007000002EB0900081AA0612078C00602D4204636
:10071000FFF796FD002608E0D4E901211AF806004B
:100720009047206A401C761C20624E45F4DB2078FE
:10073000C0060AD52046FFF783FD06E0D4E9012173
:1007400030209047206A401C2062381EA7F1010724
:10075000F4DC07E0D4E9012118F805009047206A8D
:10076000401C2062281EA5F10105F3DC2046FFF79E
:100770007DFD2078000602D50220BDE8F08701202B
:10078000FBE7000001694A1C02610878704700B568
:100790008FB0CDE901310021059105497944CDE9BA
:1007A000031011466846FFF7F7FE0FB000BD0000CA
:1007B000E5FFFFFF0A6802F8010B0A6070470000BE
:1007C00001491820ABBEFEE7260002007546FFF780
:1007D0001FFDAE4605006946534620F007008546DA
:1007E00018B020B5FFF704FDBDE820404FF000062B
:1007F0004FF000074FF000084FF0000B21F0070109
:10080000AC46ACE8C009ACE8C009ACE8C009ACE84B
:10081000C0098D467047000010B501F091F84FF403
:10082000784001F035FC00210FA2084601F01CF9C8
:100830001F2001F02DFC12A21821002001F014F954
:1008400013A24821002001F00FF9032002F022FF3B
:1008500014A27821002001F007F9D821BDE810404A
:1008600014A2002001F000B941444354687265733A
:10087000686F6C642053657474696E673A00000099
:1008800050726573733A2055702C20446F776E0058
:1008900020202020202020546F2041646A7573742A
:1008A00000000000414443205468726573686F6C17
:1008B000643A2000507265737320454E54455220AF
:1008C00052657475726E0000054808B5016B0091A1
:1008D0004068C0F30B11034841800121017008BD3D
:1008E000004003401C0100100C4808B550F8C41F1C
:1008F00041F41041016000200223012219210090DF
:1009000001F084FF0748064901608115C160880332
:100910004FF0E021C1F80001002008BD00C00F40E9
:10092000040420000040034010B500240A4B0428B2
:100930000FD00A4A0828516806D0102803D109B1FF
:10094000491E51601C6210BDB1F5806FFAD2491C7E
:10095000F7E75C66F6E70000000000109401001065
:1009600070B50B4C01256566FFF756FF07E000BF29
:1009700000F0DCF801F01CFE206AFFF7D5FF606E86
:100980000128F5D02570BDE8704001F06FBC000073
:100990000000001001218140044800BF50E8002FF2
:1009A0008A4340E80023002BF8D170476001001013
:1009B0002DE9F0470024354EDFF8D4900127306848
:1009C00007FA04F528425CD03248716800EB441005
:1009D000294244D0B56004EB840309EB83054A4601
:1009E000D5E9021C8C4533D0A1EB0C01B1F5805F39
:1009F00001D340F6FF718C44C5F80CC0D0F80CC090
:100A00005FEA4C1C0ED552F823C0C0F800C052F863
:100A100023C0D0F80C80C8F3814801FA08F8C44418
:100A200049F823C0C268120109D56A6842606B6840
:100A3000C268C2F3415201FA02F21A446A60C26803
:100A400061F30B02C260016941F00101016118E02C
:100A5000E0B2FFF79FFF296999B1012010E0F1682A
:100A600029420ED000210161C160E0B2FFF792FF80
:100A7000356104EB840109EB8100016909B10220B1
:100A80008847641C082C9AD3BDE8F08700400050CA
:100A90000810001000410050027812B1521E02707E
:100AA000704701707047000010B51B48016841F0A5
:100AB0008071016081690029FCDA8069174CC0F3FC
:100AC0000B1217A118482260FFF7A6FB164A6021F7
:100AD000B02000F0C9FF12A113486268FFF79CFB29
:100AE000114A7821E02000F0BFFF0DA10E48A26856
:100AF000FFF792FB0C4A9021E02000F0B5FF627BEB
:100B000007A10948FFF788FBA821BDE81040064A65
:100B1000E02000F0A9BF0000004003409401001055
:100B200025303464000000006C00001008B5064851
:100B3000064942686846FFF76FFB6A467821E02065
:100B400000F092FF08BD0000940100106C1400003A
:100B500010B53E48016841F080710160816900294B
:100B6000FCDA80693A4CC0F30B123AA1A4F10F00F1
:100B70002260FFF751FB2068642808D837A2A8211B
:100B8000002000F071FF03F00BF91C2114E0A0F12C
:100B90006501B1F5617F11D235A2A821002000F0D6
:100BA00063FF03F0FDF81C21012003F001F91D2172
:100BB000012003F0FDF81F21012042E0A0F2E930FE
:100BC000B0F5FA6F18D22FA2A821002000F04CFF38
:100BD00003F0E6F81C21012003F0EAF81D210120B2
:100BE00003F0E6F81F21012003F0E2F80221084695
:100BF00003F0DEF8032123E027A2A821002000F063
:100C000033FF03F0CDF81C21012003F0D1F81D21A2
:100C1000012003F0CDF81F21012003F0C9F80221C3
:100C2000084603F0C5F80321022003F0C1F80421AF
:100C3000022003F0BDF80521022003F0B9F80621D7
:100C40000220BDE8104003F0B3B8000000400340AC
:100C5000800000102530346400000000436F6D7088
:100C60006C6574656C79206461726B2E0000000005
:100C70004C69676874206973207765616B2E20204A
:100C8000000000004C69676874206973206E6F7201
:100C90006D616C2E000000004C69676874206973F8
:100CA000206272696768742E0000000010B51A484F
:100CB000016841F08071016081690029FCDA806976
:100CC000164CC0F30B1216A1A4F11A002260FFF714
:100CD000A3FA206814A2B0F5FA6F4FF090014FF01C
:100CE00000000AD800F0C0FE13A2A821002000F0E6
:100CF000BBFEBDE8104003F053B800F0B5FE12A2F1
:100D0000A821002000F0B0FE03F04AF80521BDE85C
:100D10001040022003F04CB8004003409000001047
:100D20002530346400000000536F696C206D6F69DA
:100D300073747572650000006973206472792E20E7
:100D400020202020200000006973207361747572D8
:100D5000617465642E00000070B5032002F09AFCF7
:100D600017480425C11C02780B78164E164C9A427F
:100D700007D142784B789A4203D1807889788842AB
:100D800003D0D4E90001884202D20120207301E09F
:100D9000207B68B10DA2C021002000F065FEB56582
:100DA000607B401EC0B26073BDE8704002F048BF77
:100DB0000CA2C021002000F057FEF56570BD0000B8
:100DC0000300001000C009209401001050756D70E0
:100DD0002069732072756E6E696E67206E6F772E54
:100DE0000000000050756D70206973206E6F7420D4
:100DF00072756E6E696E672E0000000010B500F00F
:100E00009FFD4FF4784001F043F900211AA20846F3
:100E100000F02AFE1F2001F03BF91CA2182100203F
:100E200000F022FE1FA23021002000F01DFE22A2B1
:100E30004821002000F018FE032002F02BFC23A222
:100E40007821002000F010FE24A2A821802000F0CC
:100E50000BFE23A2A821C02000F006FE21A2A8219B
:100E60004FF4807000F000FED821BDE810401EA2B3
:100E7000002000F0F9BD0000202020436C6F636B60
:100E80002053657474696E673A0000005072657390
:100E9000733A2055702C20446F776E20202020203C
:100EA00000000000202020202020204C6566742CAB
:100EB00020526967687400002020202020202054E0
:100EC0006F2041646A75737400000000437572728C
:100ED000656E742054696D653A200000683A000020
:100EE0006D3A000073000000507265737320454E28
:100EF0005445522052657475726E000070B53148C9
:100F0000016841F08071016081690029FCDA806923
:100F10006421C0F30B10B0FBF1F3B0FBF1F22A4CEB
:100F200001FB1303A4F188052060AB6327A104F142
:100F30001800EA61FFF770F904F1180278215020D7
:100F400000F092FD2068B0F57A7F08D822A2A8218F
:100F5000002000F089FD02F023FF06212DE0A0F221
:100F6000E930B0F5FA6F10D21FA2A821002000F0DE
:100F70007BFD02F015FF0621022002F019FF05217A
:100F8000022002F015FF042117E01BA2A821002077
:100F900000F06AFD02F004FF0621022002F008FFC3
:100FA0000521022002F004FF0421022002F000FFCC
:100FB0000321022002F0FCFE0221BDE87040022065
:100FC00002F0F6BE00400340880000102530326475
:100FD0002E2530326400000054656D702069732046
:100FE000636F6C642E20200054656D70206973203F
:100FF0006E6F726D616C2E0054656D702069732088
:10100000686F742E2020200038B51C4CA06980B376
:101010005FF0000002F03EFB184D19A1ED1C684680
:101020002A78FFF7F9F86A46A821602000F01CFD35
:10103000A069012800D0002002F02CFB6A7810A1E2
:101040006846FFF7E9F86A46A821A02000F00CFDE9
:10105000A069022810D0002002F01CFBAA7808A189
:101060006846FFF7D9F86A46A821E02000F0FCFCAA
:1010700038BDFFE70120CDE70120EDE700000010BB
:10108000253032640000000010B51848016841F0B6
:101090008071016081690029FCDA8069144CC0F319
:1010A0000B1214A1A4F11D002260FFF7B5F820680F
:1010B000B0F5FA6F0DD811A29021002000F0D4FCF9
:1010C00011A2A821002000F0CFFCBDE8104002F0E2
:1010D00067BE13A29021002000F0C6FC02F060FE63
:1010E0000521BDE81040022002F062BE004003402E
:1010F0009800001025303464000000004E6F74200A
:10110000776F726B696E67004E65656420746F203F
:1011100062652066697865642E20202020202000EA
:10112000576F726B696E672070726F7065726C7941
:101130000000000010B51848016841F0807101609E
:1011400081690029FCDA8069144CC0F30B1214A1E8
:10115000A4F11D002260FFF75FF82068B0F5FA6F78
:101160000DD811A29021002000F07EFC11A2A82130
:10117000002000F079FCBDE8104002F011BE13A27F
:101180009021002000F070FC02F00AFE0521BDE86D
:101190001040022002F00CBE0040034098000010F6
:1011A00025303464000000004E6F7420776F726B3E
:1011B000696E67004E65656420746F206265206605
:1011C000697865642E20202020202000576F726BE4
:1011D000696E672070726F7065726C790000000034
:1011E00010B51848016841F08071016081690029DB
:1011F000FCDA8069144CC0F30B1214A1A4F11D0099
:101200002260FFF709F82068B0F5FA6F0DD811A237
:101210009021002000F028FC11A2A821002000F05D
:1012200023FCBDE8104002F0BBBD13A290210020BA
:1012300000F01AFC02F0B4FD0521BDE810400220C8
:1012400002F0B6BD00400340980000102530346421
:10125000000000004E6F7420776F726B696E67003C
:101260004E65656420746F206265206669786564E8
:101270002E20202020202000576F726B696E67207F
:1012800070726F7065726C790000000010B51848BC
:10129000016841F08071016081690029FCDA806990
:1012A000144CC0F30B1214A1A4F11D002260FEF730
:1012B000B3FF2068B0F5FA6F0DD811A2902100207D
:1012C00000F0D2FB11A2A821002000F0CDFBBDE868
:1012D000104002F065BD13A29021002000F0C4FB75
:1012E00002F05EFD0521BDE81040022002F060BD65
:1012F00000400340980000102530346400000000D6
:101300004E6F7420776F726B696E67004E6565640F
:1013100020746F2062652066697865642E20202025
:1013200020202000576F726B696E672070726F709B
:1013300065726C790000000010B500F001FB1348E5
:1013400000F0A0FE4FF47844204600F0A1FE0021FA
:101350000FA2084600F088FB47F60F0000F098FE49
:101360000FA24821002000F07FFB032002F092F939
:101370001F2000F08DFE0FA2D821002000F074FB8A
:101380002046BDE8104000F083BE0000D069000098
:101390004C696768742053656E736F7200000000BB
:1013A0004C6967687420496E74656E736974793A24
:1013B00020000000507265737320454E5445522042
:1013C00052657475726E000010B500F0B9FA1148DC
:1013D00000F058FE4FF4784000F05AFE00210EA2B3
:1013E000084600F041FB47F60F0000F051FE0EA248
:1013F0004821002000F038FB032002F04BF91F20A9
:1014000000F046FED821BDE810400BA2002000F0FD
:101410002BBB0000D06900004D6F69737475726555
:101420002053656E736F7200536F696C204D6F6946
:1014300073747572653A2000507265737320454E5F
:101440005445522052657475726E000008B5064806
:1014500006A182686846FEF7DFFE6A467821C02052
:1014600000F002FB08BD000094010010253032643A
:10147000000000000EB50549684602F033FA6A46DE
:101480004821A02000F0F0FA0EBD00000600001078
:1014900010B51F2000F0FCFD14A23021002000F048
:1014A000E3FA14A24821002000F0DEFA14A2602121
:1014B000002000F0D9FA15A27821002000F0D4FA1B
:1014C00016A29021002000F0CFFA18A2A821002037
:1014D00000F0CAFA19A2D821002000F0C5FABDE830
:1014E00010404FF4784000F0D3BD0000436C6F63B0
:1014F0006B3A200050756D705F54696D653A00005D
:101500004144432056616C75653A000041444320D4
:101510005468726573686F6C643A000050756D7042
:101520005F4475726174696F6E3A000050756D703A
:101530005F52656D61696E3A2000000050726573FC
:101540007320454E5445522052657475726E0000EA
:1015500010B5164800F096FD00F0F2F94FF478400F
:1015600000F096FD002112A2084600F07DFA47F631
:101570000F0000F08DFD13A24821002000F074FA46
:101580004FF4787000F084FD12A27821902000F0D2
:101590006BFA032002F07EF81F2000F079FDD821BD
:1015A000BDE810400CA2002000F05EBAD069000037
:1015B00054656D70657261747572652053656E73E4
:1015C0006F72000054656D70657261747572653A72
:1015D00020000000202A4300507265737320454E9E
:1015E0005445522052657475726E000010B500F0BB
:1015F000A7F9114800F046FD4FF4784000F048FD8F
:1016000000210EA2084600F02FFA47F60F0000F066
:101610003FFD10A24821002000F026FA032002F02E
:1016200039F81F2000F034FDD821BDE810400CA28D
:10163000002000F019BA0000D06900004561737401
:1016400020576174657220537072696E6B6C65729D
:10165000000000005374617475733A2000000000AC
:10166000507265737320454E54455220526574750F
:10167000726E000010B500F063F9114800F002FD31
:101680004FF4784000F004FD00210EA2084600F05F
:10169000EBF947F60F0000F0FBFC10A248210020F8
:1016A00000F0E2F9032001F0F5FF1F2000F0F0FC4C
:1016B000D821BDE810400CA2002000F0D5B90000F0
:1016C000D06900004E6F7274682057617465722093
:1016D000537072696E6B6C657200000053746174B4
:1016E00075733A2000000000507265737320454EF8
:1016F0005445522052657475726E000010B500F0AA
:101700001FF9114800F0BEFC4FF4784000F0C0FC17
:1017100000210EA2084600F0A7F947F60F0000F0DE
:10172000B7FC10A24821002000F09EF9032001F030
:10173000B1FF1F2000F0ACFCD821BDE810400CA286
:10174000002000F091B90000D0690000536F75745B
:101750006820576174657220537072696E6B6C6596
:10176000720000005374617475733A200000000029
:10177000507265737320454E5445522052657475FE
:10178000726E00002DE9F047194C00204FF01E0842
:101790004FF4997904F1FC07606300EB8002216942
:1017A0000A2608EBC205884207D11E234A46A91E15
:1017B000082000F03FF91F200AE04FF6FF7000F00C
:1017C00067FC1E234A46A91E082000F033F90020BA
:1017D00000F05EFC606B294657F83020304600F080
:1017E00043F9606B401C60630428D6DBBDE8F087DA
:1017F0000000001010B500F0A3F8114800F042FC02
:101800004FF4784000F044FC00210EA2084600F09E
:101810002BF947F60F0000F03BFC10A248210020F6
:1018200000F022F9032001F035FF1F2000F030FC0A
:10183000D821BDE810400CA2002000F015B900002E
:10184000D069000057657374205761746572205326
:101850007072696E6B6C6572000000005374617485
:1018600075733A2000000000507265737320454E76
:101870005445522052657475726E00000EB50549CC
:10188000684602F02FF86A463021A02000F0ECF8FC
:101890000EBD00000300001010B500F051F84FF429
:1018A000784000F0F5FB00210FA2084600F0DCF8BC
:1018B0001F2000F0EDFB11A21821002000F0D4F849
:1018C00012A24821002000F0CFF8032001F0E2FE30
:1018D00013A27821002000F0C7F8D821BDE81040FD
:1018E00012A2002000F0C0B850756D7020447572CF
:1018F0006174696F6E205365743A000050726573AD
:10190000733A2055702C20446F776E0020202020E1
:10191000202020546F2041646A7573740000000019
:101920004475726174696F6E3A200000507265737D
:101930007320454E5445522052657475726E0000F6
:1019400070B50021F0234FF4A072084600F0A6FB0A
:10195000222003F03DFD03F06BFD074D00244FF402
:101960009636A88803F052FD641CB442F9D303F004
:101970006DFD002070BD0000200100102DE9F04138
:101980001F4CA36893B15D68DF68551B1A885B889C
:10199000D61DF608754303FB057600F07FFB222079
:1019A00003F016FD03F044FD002720E04FF0FF3068
:1019B000BDE8F081002514E0307805F00701C8404B
:1019C000C00701D0608800E0A08803F01FFDE84355
:1019D000400705D1A0680088401EA84200D0761CB0
:1019E0006D1CA0680088A842E6D8761C7F1CA06801
:1019F0004088B842DED803F029FD0020D8E7000077
:101A00002001001070B51446012300F047FB22208E
:101A100003F0DEFC03F00CFD054D02E0688803F0E6
:101A2000F5FC641EFAD203F011FD002070BD000029
:101A3000200100102DE9F0411C4616460D460746D0
:101A4000FFF7E0FF291932463846FFF7DBFF224651
:101A50002946384600F020F8B8192246294600F0F9
:101A60001BF80020BDE8F0812DE9F04114460F4637
:101A70000546084E07E039462846641CFFF77EFFFE
:101A8000B068008805442278002AF4D10020BDE81F
:101A9000F08100002001001070B5144613460122A9
:101AA00000F0FCFA222003F093FC03F0C1FC054D8A
:101AB00002E0688803F0AAFC641EFAD203F0C6FCB8
:101AC000002070BD20010010F8B5012000F01EFDBF
:101AD00000263346324606213046009600F096FE38
:101AE00001220621002000F01FFD01220621002016
:101AF00000F000FD02F05AFBFE4D04460020A968EC
:101B000088472969022088476A6AFB49FB48904751
:101B1000DCB9002003F05CFC01216A6A13209047C5
:101B2000732003F08FFA002003F08CFA002003F0FA
:101B300089FA4FF6FF7101EA0024002003F082FACF
:101B4000044300216A6A13209047ED48472C7DD05A
:101B500006704FF48071012003F080FC4FF4E061C7
:101B6000022003F07BFC0021042003F077FC40F20C
:101B70000721082003F072FC0021092003F06EFC0D
:101B800000210A2003F06AFC00210C2003F066FC0F
:101B900000210D2003F062FC00210F2003F05EFC09
:101BA0000021102003F05AFC0021112003F056FC04
:101BB0000021122003F052FC0021132003F04EFC00
:101BC000C82002F07BF841F2B021102003F046FC5F
:101BD0000721112003F042FC322002F06FF840F29E
:101BE000BD11122003F03AFC322002F067F84FF4E6
:101BF000A051132003F032FC0E21292003F02EFC0B
:101C0000322002F05BF80021202003F027FC0021A5
:101C1000212003F023FCA4F51450933840F207650B
:101C200040F207767ED0A0F67560B0F5005F7AD0FE
:101C30000621302003F012FC40F20111312003F0A4
:101C40000DFC0321322003F009FC00E01DE04FF4FD
:101C50008371352003F002FC40F60231362003F098
:101C6000FDFB40F20231372003F0F8FB314638200B
:101C700003F0F4FB0721392003F0F0FBE91F3C20BF
:101C800003F0ECFB40F20B2185E101210170002102
:101C9000EA2003F0E3FB2021EB2003F0DFFB0C2123
:101CA000EC2003F0DBFBC721ED2003F0D7FB38214C
:101CB000E82003F0D3FB1021E92003F0CFFB012142
:101CC000F12003F0CBFB1021F22003F0C7FB012130
:101CD000402003F0C3FB0021412003F0BFFB0021A3
:101CE000422003F0BBFB1021432003F0B7FB0E2181
:101CF000442003F0B3FB2421452003F0AFFB042173
:101D0000462003F0ABFB5021472003F0A7FB022144
:101D1000482003F0A3FB1321492003F09FFB192166
:101D20004A2001E00FE1B7E003F098FB19214B20B6
:101D300003F094FB16214C2003F090FB1B21502054
:101D400003F08CFB3121512003F088FB2F2152201E
:101D500003F084FB3F21532003F080FB3F215420FC
:101D600003F07CFB3E21552003F078FB2F21562009
:101D700003F074FB7B21572003F070FB09215820EE
:101D800003F06CFB0621592003F068FB06215A2062
:101D900003F064FB0C215B2003F060FB1D215C2041
:101DA00003F05CFBCC215D2003F058FB1B210846AF
:101DB00003F054FB01211A2003F050FB2F212420B3
:101DC00003F04CFB5721252003F048FB88212320FA
:101DD00003F044FB3621182003F040FB01211920B9
:101DE00003F03CFB0021012003F038FB88211F2079
:101DF00003F034FBC82001F061FF82211F2003F0B3
:101E00002DFB322001F05AFF92211F2003F026FB08
:101E1000322001F053FFD2211F2003F01FFB32209C
:101E200001F04CFF5521172003F018FB0021084654
:101E300003F014FB11212F2003F010FB00213120AF
:101E400003F00CFB0021322003F008FB382128208E
:101E500003F004FBC82001F031FF3C21282003F0EF
:101E6000FDFAA821162003F0F9FA00210E2003F054
:101E7000F5FA00210F2003F0F1FA0121102003F000
:101E8000EDFA4021112003F0E9FA0021122003F0BD
:101E9000E5FA00211320E5E040F60D31302003F093
:101EA000DDFA41F62311312003F0D8FA41F626413C
:101EB000322003F0D3FA42F21C61332003F0CEFA51
:101EC00042F21941342003F0C9FA40F60B51352093
:101ED00003F0C4FA41F20601362003F0BFFA4FF4D2
:101EE000C261372003F0BAFA40F20671382003F0DD
:101EF000B5FA07E0986A000020BCBE000183080024
:101F0000200100104FF44171392003F0A7FA40F688
:101F100005613A2003F0A2FA40F601613B2003F08C
:101F20009DFA4FF487713C2003F098FA40F20E516D
:101F30003D2003F093FA40F203413E2003F08EFA75
:101F400029463F2028E00021302003F087FA294667
:101F5000312003F083FA40F20531322003F07EFA9B
:101F60000021352003F07AFA41F20461362003F0B3
:101F700075FA4FF40171372003F070FA012138200F
:101F800003F06CFA3146392003F068FA00213C2056
:101F900003F064FA0F213D2003F060FA0021502085
:101FA00003F05CFAEF21512003F058FA002152208F
:101FB00003F054FA40F23F11532003F04FFAA4F219
:101FC0009354B4F5005407D0A4F67564B4F5005FDB
:101FD00002D04FF4274101E04FF41C51602003F080
:101FE0003DFA0121612003F039FA00216A2003F053
:101FF00035FA0021802003F031FA0021812003F01E
:102000002DFA0021822003F029FA0021832003F019
:1020100025FA0021842003F021FA0021852003F015
:102020001DFA1021902003F019FA0021922003F0EC
:1020300015FA0321932003F011FA4FF488719520CB
:1020400003F00CFA0021972003F008FA00219820F1
:1020500003F004FA41F23801032003F0FFF940F2E3
:102060003711072003F0FAF901221C21042000F0A7
:1020700041FA0020F8BD0000014988800020704727
:1020800020010010014988600020704720010010E5
:102090000149488000207047200100102DE9F041DF
:1020A000054687182148CE18761E00780C467F1EFC
:1020B00010B3C5F30F21022003F0D0F9E9B20320D9
:1020C00003F0CCF9C7F30F21042003F0C7F9F9B2EC
:1020D000052003F0C3F9C4F30F21062003F0BEF975
:1020E000E1B2072003F0BAF9C6F30F21082003F08C
:1020F000B5F9F1B2092015E0A1B2502003F0AEF914
:10210000B1B2512003F0AAF9A9B2522003F0A6F906
:10211000B9B2532003F0A2F9A1B2202003F09EF936
:10212000A9B22120BDE8F04103F098B920010010C8
:102130002DE9F0474C4C627800211E254FF4997030
:102140004FF6FF7ABAB1A278521C5ED004F1DC08D7
:1021500081462163206B0A2700EB800105EBC10655
:10216000E168884238D11E234A46B11E0820FFF795
:1021700061FC1F203AE0DFF8F080814608F1B408E6
:10218000E162E06A0A2700EB800105EBC106E16825
:10219000884207D11E234A46B11E0820FFF74AFC99
:1021A0001F2009E05046FFF773FF1E234A46B11E69
:1021B0000820FFF73FFC0020FFF76AFFE16A38467E
:1021C00058F831203146FFF74FFCE06A401CE062CE
:1021D0000528D6DBBDE8F0875046FFF759FF1E23E0
:1021E0004A46B11E0820FFF725FC0020FFF750FFEC
:1021F000216B384658F831203146FFF735FC206B0B
:10220000401C20630428A5DBE4E7174EA84681465E
:10221000FC366163606B216900EB80020A2708EBE2
:10222000C205884207D11E234A46A91E0820FFF78F
:1022300001FC1F2009E05046FFF72AFF1E234A46F3
:10224000A91E0820FFF7F6FB0020FFF721FF606BB7
:10225000294656F830203846FFF706FC606B401CD4
:1022600060630428D6DBB5E70000001010B54FF618
:10227000FF70FFF701FF4FF47840FFF709FFFFF70A
:102280005FFB0021BDE8104001A20846FFF7ECBB50
:102290004175746F2050756D70204D656E7500002E
:1022A00010B54FF6FF70FFF7E7FE4FF47840FFF7E9
:1022B000EFFEFFF745FB0021BDE8104001A20846F4
:1022C000FFF7D2BB53656E736F72204D656E75005C
:1022D0002DE9F05F1C46DDE90B9A15460E460746D0
:1022E0004FF0FF38082848D201F0F8F9401C44D0DC
:1022F000DFF898B007EB870825480BEB880200EB66
:1023000047104FF0000CC2F810A0C0F810C0C0F881
:102310000CC020494FF0010A0AFA07F38B600B61E9
:10232000C0F808C0C1F830A00B6BDB07FCD094608C
:10233000B4F5805F01D340F6FF740A99066064F338
:102340000B0145605FEA411C04D5C1F3814C04FADE
:102350000CFC66445FEA011C04D5C1F3415C04FA3D
:102360000CFC65444BF828605560D460C160C0F82F
:1023700010905FEAC97003D005E04046BDE8F09FC9
:102380003846FEF707FB0020F8E7000008100010B1
:10239000004100500040005010B50446082802D308
:1023A0004FF0FF3010BDFEF7F5FA054800EB441082
:1023B000D0F8101121F00101C0F81011002010BD5B
:1023C00000400050082801D300207047074A00EB66
:1023D000800102EB8101064AC96802EB4010D0F887
:1023E0000C01C0F30B00081A704700000810001021
:1023F00000400050184910B54868401C486001284A
:1024000001D9002010BD154850F8C41F41F00051FB
:1024100001600020124C134A014600BF04EB401338
:10242000C3F8101100EB8003401C42F8231002EBAC
:102430008303082859609960D960EFD3FF20A0601A
:1024400020611A2000F0D7F94FF0E0214FF08060B2
:10245000C1F80001D5E700006001001000C00F4086
:102460000040005008100010A0F10802082A01D214
:10247000012902D94FF0FF3070470122083882400D
:1024800005480029D0F8C41101D0114300E0914360
:10249000C0F8C4110020704700C00F400D4910B5AE
:1024A000486820B1401E486004D0002010BD4FF0A5
:1024B000FF3010BD084850F8C41F21F000510160E2
:1024C0004FF0E0214FF08060C1F880011A2000F049
:1024D00092F9EAE76001001000C00F40044A02EBE5
:1024E0004010406901228A40104000D0012070470E
:1024F00000C0092001238B40034901EB40100AB1C1
:1025000083617047C361704700C0092005490028F6
:1025100051F8C40F02D040F4004001E020F4004024
:102520000860704700C00F4010B5064C012304EB53
:1025300040108B4001680AB1194300E099430160E3
:1025400010BD000000C00920826A126890F82000C7
:10255000C24012F0030006D0012806D0022806D09F
:10256000032807D105E0042104E0012102E0022153
:1025700000E0082102480068B0FBF1F0704700005D
:102580006801001002788A4202D30021017070476E
:10259000521C0270704700000448016A41F030414B
:1025A0000162016C41F07C010164704700C00920A8
:1025B0001548416B0A02154904D408220A62426B8D
:1025C0001202FCD5426B920104D410220A62426BC3
:1025D0009201FCD5426BD20204D404220A62426BFF
:1025E000D202FCD5426B520104D401220A62426B32
:1025F0005201FCD5426BD20104D402220A62416B23
:10260000C901FCD57047000000C00920000000107F
:10261000F8B50120FFF77AFF00240C4D274600BFD4
:1026200005EB440600970023717815F814001A464C
:1026300000F0ECF8717815F814000022FFF774FF31
:10264000641C052CECD30020F8BD0000E0690000FC
:10265000F8B50120FFF75AFF00240F4D274600BFB1
:1026600005EB44060097717815F814000323002247
:1026700000F0CCF8717815F814000122FFF754FF30
:10268000717815F814000022FFF734FF641C082C41
:10269000E6D30020F8BD0000EA69000070B5124CD6
:1026A00001252564FEF748FE4FF4787610E000BF60
:1026B000FEF74EFAFFF77CFF206A042810D0304660
:1026C000FFF7E6FC084A782171325020FFF7CCF979
:1026D000206C0128ECD02570BDE87040FFF7C6BD26
:1026E000002020642062F6E70000001070B5274C3F
:1026F000A178491C45D00025012608280FD01028B4
:1027000024D0042819D16078256298B304F1DC0044
:10271000E16800EBC1004068BDE8704000476078A8
:102720000028E06804D0002808DDE068401E23E0AF
:102730000028FADCE5602670256270BDFFF700F91D
:10274000FFF794FD0520E060657070BD607800289B
:10275000E06804D003280EDAE068401C0CE004288E
:10276000FADBFFF7EDF8FFF79BFD4FF0FF30E0607D
:10277000667070BD02E00320E060DCE70348B4301F
:10278000C6E7206ABDE8704001F0BEB90000001045
:1027900070B5124C0125A564FEF716FE4FF478764D
:1027A00010E000BFFEF782FAFFF702FF206A04285C
:1027B00010D03046FFF76CFC084A78217632502062
:1027C000FFF752F9A06C0128ECD02570BDE87040ED
:1027D000FFF74CBD0020A0642062F6E70000001067
:1027E00000F01F02012191404009800000F1E0202B
:1027F000C0F88012704700F01F020121914040098B
:10280000800000F1E020C0F880127047F0B500248D
:10281000059E0D46102903D3A1F11004E5B2012451
:10282000C70007EB8407124C3C4427684FEA450C6D
:10283000032505FA0CF5AF432760276802FA0CF26E
:1028400017432760226CAA432264226C03FA0CF31C
:102850001A43226401228A400549012E01EB8000BF
:10286000816E03D0914381660020F0BD1143FAE7E9
:1028700000C0024038B51C4CE06D80B35FF0000032
:1028800000F008FF184D19A1AD1D68462A78FDF724
:10289000C3FC6A46A8216020FFF7E6F8E06D012836
:1028A00000D0002000F0F6FE6A7810A16846FDF71F
:1028B000B3FC6A46A821A020FFF7D6F8E06D0228F5
:1028C00010D0002000F0E6FEAA7808A16846FDF7C7
:1028D000A3FC6A46A821E020FFF7C6F838BDFFE751
:1028E0000120CDE70120EDE7000000102530326423
:1028F0000000000070B51F4C00250428E16D36D0A3
:1029000009DC01282FD0022804D1022901DA491C50
:10291000E165256270BD174A921D082809D010286C
:10292000F8D1B9B1012919D00229F2D13B21901C6B
:1029300016E031B1012908D00229EAD13B21901CCF
:1029400005E00C481721801D01E03B21501CFFF7DA
:1029500019FEDEE707481721801D01E03B21501CCE
:10296000FEF79AF8D5E70029D3DD491ED0E7A56226
:10297000CFE700000000001070B50C4C01250020CE
:10298000A562E06500F014F807E000BFFFF772FFF2
:10299000FFF70EFE206AFFF7ADFFA06A0128F5D011
:1029A0002570BDE87040FFF761BC0000000000101A
:1029B00010B5FEF7C5FF4FF47840FFF769FB002123
:1029C0001AA20846FFF750F81F20FFF761FB1CA270
:1029D00018210020FFF748F81EA230210020FFF741
:1029E00043F821A248210020FFF73EF8032000F021
:1029F00051FE22A278210020FFF736F822A2A8215A
:102A00008020FFF731F821A2A821C020FFF72CF881
:102A10001FA2A8214FF48070FFF726F8D821BDE847
:102A200010401CA20020FFF71FB8000050756D7009
:102A30002054696D652053657474696E673A0000AF
:102A400050726573733A2055702C446F776E202056
:102A500020202000202020202020204C656674208B
:102A60002C205269676874002020202020202054E8
:102A70006F2041646A7573740000000050756D70BA
:102A80002054696D653A2000683A00006D3A0000F4
:102A900073000000507265737320454E54455220F8
:102AA00052657475726E000010B50024094B04283D
:102AB0000ED0094A0828916806D0102803D109B120
:102AC000491E91601C6210BDFA29FBD2491CF8E72F
:102AD0001C66F7E7000000109401001070B50B4C65
:102AE00001252566FEF7D8FE07E000BFFEF7AEFC25
:102AF000FFF75EFD206AFFF7D7FF206E0128F5D0B3
:102B00002570BDE87040FFF7B1BB00000000001069
:102B1000014A00F069B80000506A0000014900F065
:102B200055BA0000506A0000014900F05EBA00008A
:102B3000506A00000848016CC979490701D4002097
:102B4000704790F8341019B190F83500FFF73ABC8F
:102B5000406CC06870470000506A000006490A6C6B
:102B6000127962F300000A6C096C5279897962F378
:102B7000410061F382007047506A0000014800F094
:102B80003ABA0000506A0000014900F09BBA000008
:102B9000506A0000014900F0DFBA0000506A0000EE
:102BA000014A00F07FBB0000506A0000014A00F0BB
:102BB0000FBC0000506A0000014B00F09FBC0000F9
:102BC000506A0000014800F033BD0000506A000068
:102BD0000148406870470000486A000001480068EA
:102BE00070470000486A00002DE9F84F0646106C57
:102BF0000F464FF00009C17914464FF0020ACB4648
:102C000089077DD5F1B200250091142904D00179FE
:102C100031B3A81EBDE8F88F2068416821F0020199
:102C2000416020684561206C007968B194F82C00FF
:102C300018B194F82D00FFF7AFFB94F8340018B1E9
:102C400094F83500FFF7A8FB1C21606CFDF728FB0A
:102C5000206C05712068416841F002014160B1E1DA
:102C6000009904297ED007DC89B1012921D00229ED
:102C700053D0032908D175E0102939D011296ED01D
:102C800012296DD013296CD06FF00300C2E72068C1
:102C9000416821F00201416020684561206C816833
:102CA00021F0FF018160106CC17921F00401C17134
:102CB00088E12068416821F0020141602068456197
:102CC0002068416821F004014160216C886820F08F
:102CD000FF008860216C40F001008860206CC179A1
:102CE00041F00401C1712068416841F00201416076
:102CF000002F05D01046FFF727FC4FEA001C00E02C
:102D000085E03B0102210020421C4A43BCFBF2F259
:102D100093422AD18A4681463AE02068416821F0F0
:102D2000020141602068416841F00401416021686E
:102D30004FF001004861216C886820F0FF00886036
:102D4000216C40F002008860206CC17941F00401E0
:102D5000C1712068416841F0020141602CE033E01C
:102D600041E043E06FF0060054E708D9A3EB0B07FE
:102D7000A3EB0208474502D993468A468146401C88
:102D8000FF28C1D9891CFF29BDD3BBF1000F3ED05C
:102D900021680AF0FF0008612068016821F47F4182
:102DA0000160206801684FF6FF7303EA09221143AE
:102DB00001600098102818D0216C6FF00A0788680D
:102DC000C2B2012A28D062E01046FFF7BDFB0146DF
:102DD000206802690068D2B2C0F30720401C424359
:102DE000B1FBF2F016E7506C0783EBE080687649A0
:102DF00008406FF40021C84209D1506838B14178C9
:102E000000783FB15FF00002FFF774FBDAE04FF0AB
:102E1000FF30FFE60122F7E716F4C01209D0B2F541
:102E2000002F17D0B2F5801F37D0B2F5C01F2ED1BA
:102E30000DE0606830B100954178002300781A46B3
:102E4000FFF7E4FC206C816821F4C0111EE020F43F
:102E5000C01057E020F4C01088606068A8B30095E7
:102E60004178007803230022FFF7D0FC606801223C
:102E700041780078FFF758FB6068012241780078BC
:102E8000FFF738FB206C816841F400218160216CE0
:102E90008868C2B2022A11D024E020F4C0108860F1
:102EA000606890B100954178227D00780323FFF798
:102EB000ADFC206C816841F48011E7E716F4001244
:102EC00004D0B2F5001F1ED11AE01CE020F400105F
:102ED00088606068B8B100954178227D007803234E
:102EE000FFF794FC06F4E060B0F5407F4FD00CDCB7
:102EF000A0B1B0F5807F1BD0B0F5007F0BD137E0DB
:102F000020F400108860384684E6B0F5806F48D021
:102F1000B0F5A06F4CD06FF007007BE62068016829
:102F200021F0300101602068016821F0C0010DE04E
:102F30002068016821F0300101602068016821F0FB
:102F4000400101602068016841F080010160C6F322
:102F50000530011F0C2932D821680A68401E22F072
:102F60000F0202430A6070032CD56FF0090051E68E
:102F70002068016821F0300101602068016841F09B
:102F8000400101602068016821F08001DEE72068CF
:102F9000016821F0300101602068016841F0C00142
:102FA000D4E72068016821F0300141F01001CDE73D
:102FB0002068016821F0300141F02001C6E76FF080
:102FC000080027E6002025E6FF00180001280BD1A5
:102FD000486C0268C2600A6C00201071086C0168BD
:102FE000002901D0012008477047012802D1486C10
:102FF00001680161704770B504460068C56905F055
:10300000030101622068C06880071DD5616C0A69F0
:103010000868904218D98A687AB1501C8860117883
:103020002268126802F00F02072A07D9626C431C5B
:103030009360007841EA002100E0098B20688160FC
:10304000606C0169491C01612068C16849072BD582
:103050008068616C82B2CB680868984224D94B685A
:103060006BB1581C48601A702168096801F00F01A3
:10307000072904D9616C130A421C4A600370616C11
:10308000C868401CC860616C096888420CD120681F
:10309000416921F00F014161216C00200871206C11
:1030A000016809B101208847E8070AD0216C012096
:1030B0004871206C0168002903D0BDE870400220EF
:1030C000084770BD38B50C46096CCA79D20701D0E3
:1030D000002038BD0860206C00251C210571206C83
:1030E0004571206C8571606CFDF7DAF80095A06879
:1030F000627D002341780078FFF788FBE06830B1FB
:1031000000954178A27D00780023FFF77FFB2069BE
:1031100030B100954178E27D00780023FFF776FB1F
:1031200094F82C0010B994F8340088B1FFF762F9D4
:1031300094F82C0020B194F82E000021FFF794F9A8
:1031400094F8340020B194F836000021FFF78CF990
:10315000216C0120C871BBE72DE9F0410025012752
:103160000C46032620B1022848D0281FBDE8F08174
:1031700094F93C0000F01F018F404009800000F1ED
:10318000E020C0F88071E0690168A2691143016024
:10319000206C007968B194F82C0018B194F82D00D7
:1031A000FFF7FAF894F8340018B194F83500FFF7F7
:1031B000F3F8206845612068456220680560206852
:1031C00045602068056120680662E0690168A269BF
:1031D0009143016094F93C00FFF702FB206C1C2135
:1031E0000571206C4571206C8571606CFDF758F895
:1031F000206CC17921F00201C17150E0206CC079CE
:10320000C10727D080074AD4E0690168A269114349
:103210000160A06A016894F8202006FA02F2914346
:10322000016094F82010606A8840A16A0A6810431F
:1032300008602068456120680662206C0571206C7A
:103240004571206C8571206CC17941F00201C1711A
:10325000206803E04FF0FF3088E78168C1684907C4
:10326000FBD494F82C1019B1416A41F0020141627B
:1032700094F8340020B12068416A41F001014162B4
:1032800014F93C0FFFF7ACFA94F9000000F01F01AD
:103290008F404009800000F1E020C0F8007100205C
:1032A00064E70000FEB514460D4602000AD04DB199
:1032B000206C4FF0FF36C17949077FD5017921B1E4
:1032C0007000FEBD6FF00400FEBD01210171216C94
:1032D00000203E4F4871216C8871616C0B8B7B60C4
:1032E0004A60616C8860616C0D60616CC860616C83
:1032F000086194F82C00E8B394F83400D0B394F843
:1033000036103E2303EA41014DF201030B442168CC
:10331000A06B0F6807F00F07072F01D9012700E006
:103320000027D1F800C0BF040CF00F0CBCF1070F50
:1033300002D94FF0010C01E04FF0000C47EA4C5766
:1033400047F008470097CDE9013094F835002B4647
:103350000831FEF7BDFF401C30D094F82E004FF42A
:10336000F86202EA80104CF6010210442268216BD8
:10337000136800E024E003F00F03072B01D90123B9
:1033800000E0002317689B0407F00F07072F01D9FF
:10339000012700E0002743EA475343F0004300932E
:1033A000CDE90101094994F82D002B46091D083289
:1033B000FEF78EFF401C00E000E004D13046FEBD69
:1033C00021680F2048610020FEBD00005801001058
:1033D000FEB50D46060014460AD04DB1206C4FF0E4
:1033E000FF37C17949077DD5017921B17800FEBD4C
:1033F0006FF00400FEBD01210171216C00204871B5
:10340000216C8871616C4860616C8E60616C0D60CC
:10341000616CC860616C086194F82C00F0B394F89A
:103420003400D8B394F836103E2202EA41014DF23E
:1034300001020A442168A06B0B6803F00F03072BFD
:1034400001D9012300E00023D1F800C09B040CF057
:103450000F0CBCF1070F02D94FF0010C01E04FF047
:10346000000C43EA4C5343F000430093CDE90120A4
:1034700094F835002B46204A0831FEF729FF401CFE
:1034800033D094F82E004FF4F86202EA80104CF624
:10349000010210442268216B136800E027E003F06A
:1034A0000F03072B01D9012300E00023D2F800C04D
:1034B0009B040CF00F0CBCF1070F02D94FF0010C6C
:1034C00001E04FF0000C43EA4C5343F004430093F7
:1034D000CDE9010194F82D002B4631460832FEF764
:1034E000F7FE00E001E0401C04D13846FEBD116843
:1034F0000F2048610020FEBD58010010FEB51546A2
:103500000A4606001C460BD052B14DB1206C4FF05C
:10351000FF37C179490771D5017921B17800FEBD26
:103520006FF00400FEBD01210171216C0020487183
:10353000216C8871616C4A60616C8E60616C0D6099
:10354000616CC860616C086194F82C00E8B394F871
:103550003400D0B394F836103E2303EA41014DF213
:1035600001030B442168A06BD1F800C00CF00F0CD4
:10357000BCF1070F02D94FF0010C01E04FF0000C35
:10358000D1F800E04FEA8C4C0EF00F0EBEF1070FA1
:1035900002D94FF0010E01E04FF0000E4CEA4E5CF4
:1035A0004CF0084CCDF800C0CDE9013094F835005E
:1035B0002B460831FEF78CFE401C32D094F82E10BA
:1035C0004FF4F86202EA811100E02CE04CF60102AF
:1035D00011442268206B136803F00F03072B01D9F5
:1035E000012300E00023D2F800C09B040CF00F0C74
:1035F000BCF1070F03D94FF0010C02E011E04FF0CE
:10360000000C43EA4C5343F004430093CDE901100E
:1036100094F82D002B4631460832FEF759FE401C27
:1036200004D13846FEBD19680F2048610020FEBD58
:1036300038B504464068002530B100954178002334
:1036400000781A46FFF7E2F80095A06800231A46B2
:1036500041780078FFF7DAF8E06830B100954178FA
:10366000002300781A46FFF7D1F8206930B10095A1
:103670004178002300781A46FFF7C8F894F82C0028
:1036800010B994F8340008B1FEF708FF206CC5713A
:10369000002038BD10B54FF6FF7403280CD0022867
:1036A00010D0012814D02046FEF7E6FC4FF4C0608D
:1036B000BDE81040FEF7ECBC2046FEF7DDFC41F211
:1036C000E210F5E74CF21860FEF7D6FC2046EFE773
:1036D0004EF65D70FEF7D0FC1F20E9E7094A012194
:1036E00011FA00F152E8000F014204D0BFF32F8F0E
:1036F0004FF0FF307047084342E80003002BF1D140
:10370000002070476001001070B530482021C0F8DB
:10371000A011D0F8A011890604D500BFD0F8A011DF
:103720004906FBD50325C0F804510023C0F8A83191
:10373000C0F8AC310124C0F80C412549C0F8841010
:10374000AA22C0F88C205521C0F88C10C0F8804007
:10375000C0F88C20C0F88C10D0F888607601FBD5BA
:10376000C0F88050C0F88C20C0F88C10D0F8886069
:10377000C6F30166032EF9D12326C0F8A460C0F871
:10378000AC20C0F8AC10C0F8A040C0F8AC20C0F825
:10379000AC1000BFD0F8A8406405FBD5C0F8A0501D
:1037A000C0F8AC20C0F8AC10D0F8A810C1F30121CB
:1037B0000329F9D10749C0F8C410C0F8C83101681D
:1037C00021F4704141F48041016070BD00C00F40A0
:1037D00063000500DE87280470B5124C012565647E
:1037E000FDF7B6FE4FF4787610E000BFFDF786FBDC
:1037F000FEF7DEFE206A042810D03046FEF748FCB3
:10380000084A7821A0325020FEF72EF9606C01287A
:10381000ECD02570BDE87040FEF728BD0020606444
:103820002062F6E70000001070B50C4C0125002066
:10383000C4E90550FDF7E2FA07E000BFFDF7E4FB3D
:10384000FEF7B6FE206A00F00BF860690128F5D09B
:103850002570BDE87040FEF709BD000000000010B3
:1038600070B51F4C00250428A16936D009DC012859
:103870002FD0022804D1022901DA491CA161256256
:1038800070BD174AD21C082809D01028F8D1B9B148
:10389000012919D00229F2D13B21901C16E031B147
:1038A000012908D00229EAD13B21901C05E00C48EF
:1038B0001721C01C01E03B21501CFEF763FEDEE730
:1038C00007481721C01C01E03B21501CFDF7E4F81C
:1038D000D5E70029D3DD491ED0E76561CFE70000B9
:1038E0000000001008B58A7800924B780A7802A18F
:1038F000FCF792FC08BD0000253032643A253032D6
:10390000643A2530326400000C490020032288709C
:1039100048700870C91C88704A70087008494FF4D4
:1039200096720A60C8224A601E228A6008734A732F
:1039300002497D31087108607047000003000010E3
:10394000940100100B488178491CC9B281703C2950
:103950000FD1002181704278521CD2B242703C2AB1
:1039600007D141700278521CD2B20270182A00D1DD
:103970000170704703000010FFF7E4BF70B5124CF0
:103980000125A565FDF732FE4FF4787610E000BF03
:10399000FDF77AFBFEF70CFE206A042810D03046B3
:1039A000FEF776FB084A78217B325020FEF75CF860
:1039B000A06D0128ECD02570BDE87040FEF756BC24
:1039C0000020A0652062F6E70000001070B5124CE0
:1039D00001252565FDF74EFE4FF4787610E000BF17
:1039E000FDF7A8FBFEF7E4FD206A042810D030465E
:1039F000FEF74EFB084A78217B325020FEF734F860
:103A0000206D0128ECD02570BDE87040FEF72EBC7B
:103A1000002020652062F6E70000001070B5124C0F
:103A20000125E564FDF76AFE4FF4787610E000BFEB
:103A3000FDF7D6FBFEF7BCFD206A042810D0304607
:103A4000FEF726FB084A78217B325020FEF70CF85F
:103A5000E06C0128ECD02570BDE87040FEF706BC94
:103A60000020E0642062F6E70000001010B50D4C65
:103A70000120A0700020E0604FF6FF70FEF7FCFA16
:103A80004FF47840FEF704FBFDF75AFF002106A231
:103A90000846FDF7E9FFFDF775FE606ABDE81040D6
:103AA00000F032B800000010576174657220537046
:103AB00072696E6B6C65720070B5124C012565659C
:103AC000FDF798FE4FF4787610E000BFFDF7DEFBBF
:103AD000FEF76EFD206A042810D03046FEF7D8FAB3
:103AE000084A78217B325020FDF7BEFF606D012827
:103AF000ECD02570BDE87040FEF7B8BB00206065D3
:103B00002062F6E70000001070B500210125124C7C
:103B100008280DD0102815D0042808D16162E1686A
:103B200004F1FC0000EBC10040688047A57070BD47
:103B30002069002802DDE068401E0AE0E16025708F
:103B4000216270BD2069032802DAE068401C00E0B1
:103B50000320E060F3E700000000001070B51F20B4
:103B6000FEF796FA114C0125E563FEF77FFBFDF7A2
:103B70008FFC0EE0FDF782FEFDF77CFCFCF794FF66
:103B8000FDF7EAF8FEF714FD206A042809D0FCF7D7
:103B90008BFFE06B0128EDD02570BDE87040FEF78B
:103BA00065BB0020E0632062F6E700000000001023
:103BB00010B5002A06DA22F00042D21D22F00703D7
:103BC000102203E0D21C22F003030C2213B19C1834
:103BD0008C4201D9012010BD024401448360C0E938
:103BE0000021C91AD018884202D810600246F9E7AD
:103BF0000020106010BD30380A2801D20120704723
:103C00000020704705490978002905D000684FF663
:103C1000FF71DFF80CC000DF704700006D0100107D
:103C20009D48000004490978002903D00068DFF8A6
:103C30000CC000DF704700006D010010C547000098
:103C400005490A460B68127A20B14868984202D8A2
:103C5000002008734A7370479401001008480068F8
:103C6000C0010BD507480068C00707D00548803859
:103C70000068002802DA044901200870704700003B
:103C8000FCED00E0800E00E0900100104FF060427B
:103C9000D36F002BFCD0036BD367D36F002BFCD00A
:103CA000C07840EA0120A2F87C0070474FF06041E4
:103CB000CA6F002AFCD081F87C0070470949096866
:103CC000890B41430DD000BF00BF00BF00BF00BF44
:103CD00000BF00BF00BF00BF00BF00BF00BF491E44
:103CE000F1D17047680100100EB5802200B109B112
:103CF00010460AE001780129FAD101A900F020F864
:103D0000042801D0002000E01020DDE9011203B0FA
:103D100000BD70B50D46040003D012B9207801280B
:103D200001D0802070BD204600F046FC28B1294615
:103D3000204600F02EF8002070BD812070BD0000EC
:103D400010B504468089002822D0608904EB8000E9
:103D5000006908606078022805D10021204600F043
:103D60001FFE00F00DFE04F10C0000BFD0E85F1F45
:103D7000491E8AB2C0E8512F0029F7D16089401C42
:103D800080B26081E189884201D1002060810420F5
:103D900010BD10B500F004FEBDE8104000F0F0BD0D
:103DA00002484FF0FF31C163C165704700C0092070
:103DB00001228A400349012801D08A6570478A633D
:103DC0007047000000C00920002201211F4800F0B8
:103DD00099F91F4CA066FEF7DFFBA06E18B14FF4F7
:103DE0007A7100F0A9F9FCF77FFDFDF76DFEFEF793
:103DF0000FFCFEF72DFCFFF787FD4FF6FF70FEF777
:103E00003BF94FF47840FEF743F91248FEF73AF9D0
:103E1000FEF72CFAFEF78CF90F4850F8C41F41F456
:103E2000805101600E490D4808600E48416841F418
:103E3000802141600025207810B1FEF779F92570C6
:103E4000FEF7B6FB206AFEF751FCF4E7C854000009
:103E500000000010D069000000C00F4004012000E5
:103E60000040034000C0024010B50020FEF710F9EA
:103E700004A2D8210020FDF7F7FDBDE81040FFF7B0
:103E8000D3BC00004131000010B50020FEF700F95E
:103E900004A2D8210020FDF7E7FDBDE81040FFF7A0
:103EA000BDBD00004131300010B50020FEF7F0F834
:103EB00004A2D8210020FDF7D7FDBDE81040FFF790
:103EC00085BD00004131310010B50020FEF7E0F85B
:103ED00004A2D8210020FDF7C7FDBDE81040FFF780
:103EE000EBBD00004131320010B50020FEF7D0F8E4
:103EF00004A2D8210020FDF7B7FDBDE81040FFF770
:103F00003DBD00004131330010B50020FEF7C0F880
:103F100004A2D8210020FDF7A7FDBDE81040FEF760
:103F20002BBD00004132000010B50020FEF7B0F8B4
:103F300004A2D8210020FDF797FDBDE81040FEF750
:103F4000CDBD00004133000010B50020FEF7A0F801
:103F500004A2D8210020FDF787FDBDE81040FCF742
:103F6000FFBC00004134000010B50020FEF790F8BF
:103F700004A2D8210020FDF777FDBDE81040FFF72F
:103F8000EDBD00004135000010B50020FEF780F8BF
:103F900004A2D8210020FDF767FDBDE81040FEF720
:103FA0007DBB00004136000010B50020FEF770F820
:103FB00004A2D8210020FDF757FDBDE81040FFF70F
:103FC0000BBC00004137000010B50020FEF760F880
:103FD00004A2D8210020FDF747FDBDE81040FEF700
:103FE000D7BB00004138000010B50020FEF750F8A4
:103FF00004A2D8210020FDF737FDBDE81040FFF7EF
:1040000035BD000041390000EFF3058008B1822082
:104010007047EFF31480C00703D0DFF80CC000DF57
:10402000704701F05FB80000E550000088B0EFF382
:10403000058010B1822008B07047EFF3148010F0B3
:104040000301134806D001291BD0022911D00329EE
:1040500019D113E008A981F309880078C0070BD0B3
:104060005FF0020080F31488BFF34F8FBFF36F8FB0
:1040700009E00078C00706D10320F3E70078C00705
:1040800001D0FF20D7E7DFF80CC000DFD3E7000046
:10409000086A000055510000EFF305820AB1FFF7EE
:1040A00023BEDFF808C000DF70470000C1510000E8
:1040B000EFF305820AB100207047EFF31482064B3C
:1040C00002F001025B781A4303D0DFF810C000DF72
:1040D000704701F093B800006C010010FD51000022
:1040E000DFF80CC000DFDFF80CC000DFFEE70000E7
:1040F0006D52000089520000DFF804C000DF7047F5
:10410000C152000030B4EFF3058313B1002030BC7E
:104110007047EFF31483064C03F0010364782343E4
:1041200003D0DFF810C000DFF1E730BC01F0D4B8F5
:104130006C010010D9520000EFF305820AB1822011
:104140007047DFF808C000DF70470000115300001F
:10415000094C4FF0FF3529462068FFF79DFF0246C6
:104160000846102AF7D1FFF7C7FF0028F3D0024610
:1041700008469047EFE700004C010010FEE7FEE71D
:10418000074801684FF0E02041610021816107216B
:1041900001610448016841F07F41016040177047A8
:1041A000046A000020ED00E07047000038B50025EB
:1041B000294C00950223617820782A46FEF726FBD9
:1041C0000095E178A07802230022FEF71FFB0095FE
:1041D0006179207902230022FEF718FB0095E1792E
:1041E000A07902230022FEF711FBE178A0780122DA
:1041F000FEF79AF9617820780122FEF77BF9E178E1
:10420000A0780122FEF776F9617820780022FEF787
:1042100071F90121702000F027FF0121002000F03A
:1042200023FF617820780122FEF764F96178207815
:104230000022FEF75FF90121732000F015FF002135
:10424000084600F011FF0546617820780122FEF74C
:1042500051F9284638BD00002C01001050E8001F1D
:1042600031B10B6840E80032002AF7D108467047A8
:10427000BFF32F8FFAE710B568B161B10B3121F0B0
:104280000302016844680B1A1B1B934205D20846BF
:1042900009680029F5D1002010BD210007D02118A0
:1042A0000368C1E90032016001F1080010BD4260FD
:1042B000083010BD70B50D46002812D04FF6FF71C2
:1042C000084C884204D222680146104600F096FB52
:1042D00020684570044800F0D9F8BDE8704000F04F
:1042E00051BC70BD74010010DC1000100F4810B5F7
:1042F0000D4942680E480B680068934204D00A607A
:10430000CB88421E1A448A808A8880B282420AD1AF
:1043100000200860054800F0B9F80146BDE81040EB
:10432000024800F08FBB10BD88010010DC100010A7
:104330008401001070B5194DE86800282CD0A88AB7
:10434000401EA882002621E0A06838B16168416063
:10435000606810B1A16881606660A6600F48214660
:10436000183800F06FFBA08AA8826078042804D176
:104370000B49E08A09880844A08201206070E06847
:10438000E860E06808B10561E6602661A88A002857
:1043900002D1EC68002CD7D170BD0000F4100010E1
:1043A0008401001070B504000FD00D4DA1780126D6
:1043B0002868827891420CD900F060FB286846702A
:1043C0002046BDE8704000F0DDBB064800F05EF816
:1043D000F7E766702146BDE87040024800F032BB46
:1043E00074010010DC10001010B50446008B084367
:1043F00020836278618B062A18D0052A19D10842D9
:1044000017D001EA0002628388432083204600F02F
:1044100060FB01206070628B0821204600F055FB94
:104420002146BDE81040034800F00CBB31EA000211
:10443000EAD010BDDC100010814202D342688A42EB
:1044400001D80120704702680A60BFF35F8F50E80F
:10445000003F0A689A42F6D140E80012002AF2D1E1
:104460000020704768B161B10022083902E00246BD
:10447000006830B18842FAD12AB10068106000208B
:1044800070470120704700214160F8E7014640680D
:1044900042684A600B780022022B05D0012B03D022
:1044A000032B01D04260704743680BB199604260B2
:1044B00082607047810700D00020704770B50446C5
:1044C00000201546207001226270A17084F824102B
:1044D0006060A060E06020612062A082E0822083B2
:1044E000608384F82500E08C18B90548FFF7B6FE14
:1044F000E06229462046BDE8704000F01DB800008B
:104500005803001008B1082901D201207047014466
:10451000091F002201600A604260104670470000D7
:1045200003480021016003490988C18070470000E9
:1045300088010010006A000070B5C28C1C4D930801
:1045400002D12A88C2F38D03C26A02EB83025407A8
:1045500000D5121F4FF0807442E902140024264651
:10456000B2F1400242F82460641C0E2CFAD3C469F4
:104570001462826201632968C90014D5112B12D913
:104580004FF0FF31103B11EB53014FF0CC3305D00E
:1045900042F8043C42F8083D491EF9D1C16A121F95
:1045A0008A4200D91360C06A0249016070BD0000F0
:1045B000FC690000A52E5AE2C1898089081A70475B
:1045C00001220270002242708270426002814281A8
:1045D000103982818908C181704700002DE9F041BE
:1045E000044640680E464FF0000804F10C05E8B39D
:1045F0006078012701283ED0022813D003285CD11F
:104600000846FFF72BFE050057D02046FFF73EFF78
:104610000446294600F056FA6770204600F059FA21
:10462000214621E02046FFF731FF0646002100F039
:1046300049FA2189F06904EB81010861D5E85F0F2F
:10464000401C81B2C5E8501F0028F7D12089401CCA
:1046500080B22081E189884201D1A4F80880777076
:10466000304600F036FA3146174800E00CE0BDE86D
:10467000F04100F0E7B92046FFF708FF0446324654
:10468000102100F022FAC7E7A089E189884216D2FA
:10469000208904EB80000661D5E85F0F401C81B2E1
:1046A000C5E8501F0028F7D12089401C80B2208126
:1046B000E189884201D1A4F80880BDE8F081BDE815
:1046C000F0410320FFF75ABDDC10001070B504461E
:1046D000808915460026C0B3608904EB800000691C
:1046E00008606089401C80B26081E189884200D105
:1046F0006681606810B1607802280BD014F10C0458
:10470000D4E85F0F401E81B2C4E8501F0028F7D1E3
:10471000002070BD2046FFF7B9FE0546002100F0DD
:10472000D1F92189E86904EB810108612089401CE5
:1047300080B22081E189884200D12681284600F09C
:10474000C8F92846FFF72EFEE2E7FFE73DB10B4828
:10475000626801682AB1204600F074F908E001207F
:1047600070BD616001684E60006884600120607007
:1047700008212846FFF79EFDF1E7000074010010B4
:10478000002814D0411C13D00C4A4FF6FE71904201
:104790000CD800EB4002C2EBC0120948036803EBDF
:1047A000C202521EB2FBF3F0884204D90846704799
:1047B0004FF6FF70704780B27047000000093D005F
:1047C000146A00002DE9F0410446408820B1314DC3
:1047D000A1682A68914202D0FF20BDE8F081401E06
:1047E0000004000C608053D12968086AA04209D1F6
:1047F000E068086208E0C268A24202D1E268C260D2
:1048000002E010460028F6D191F824000A6A06E07A
:1048100053681BB19B78834200D91846D268002A9E
:10482000F6D18870DFF870806168012611B32046E8
:10483000FFF72CFE0746002100F044F9384600F04F
:1048400048F96680A760386AE0603C622968D8F859
:1048500004008A788078824201D3384616E00E48F8
:1048600000F0F0F839460C4800F0ECF82868467083
:104870007E700AE0D8F804108A782968824207D945
:10488000054800F0DFF8286846700020FFF78AFD31
:104890000020A2E774010010DC10001070B5184D64
:1048A0000E4604464188286839B1A168814209D181
:1048B0006088401C6080002070BDA060016AE160DB
:1048C0000462F5E776B18A788078824203D28870F4
:1048D000A06800F0DDF8606830B12046296800F07B
:1048E000B1F808E0012070BD2868606029680020E8
:1048F00048602868846009213046FFF7DBFCF1E757
:104900007401001070B51B480121026851700068E5
:1049100000F0B4F8184D6C7818E000BF05EBC40146
:1049200048680278EAB1012A20D000F0FFF8E87860
:10493000641C844200D100240F48801CD0E84F1F23
:10494000491EC9B2C0E8421F002AF7D1A878002842
:10495000E4D16C700948FFF799FDBDE8704000F0A4
:1049600011B9098989B2FFF73FFDE0E78968FFF7D0
:1049700035FEDCE774010010400F0010DC10001061
:104980000548017811B101214170704703494FF08A
:1049900080500860704700007C01001004ED00E0CA
:1049A000F0B4154DAB1CEE784FEA0507D3E84F2F56
:1049B000B24202D1BFF32F8F11E0521CD4B2C3E830
:1049C000424F002AF2D100BFD7E84F2F541CB44207
:1049D00000D10024E4B2C7E8434F002BF4D1EB78B8
:1049E000934205D905EBC202C2E90101F0BC704750
:1049F000F0BC0220FFF7C2BB400F0010104A10B5F8
:104A0000D368ABB113469B8A03E08CB12246A48ADB
:104A10002344D4688B42F8D3C460D0600261C46878
:104A200004B12061591A8182908A401A908210BD87
:104A30000024C460D060C91A02619182848210BDD2
:104A4000F410001030B502780023022A03D0012AA6
:104A500001D0032A00D101238C7800E0104642687F
:104A600012B19578A542F9D24A6041601BB102B1FA
:104A70009160886030BD0020FBE7000003494A6870
:104A8000426000228260486070470000DC10001025
:104A900010B5836804462BB9607801280ED1084B05
:104AA00003E09B6818780028FBD0204600F026F829
:104AB0002146BDE810401846FFF7C4BF10BD0000F6
:104AC000DC100010806A01627047806AC0E9081239
:104AD000704710B5016900290ED0C268CA60C3686A
:104AE00000223BB18B8A848A23448B82C36819617C
:104AF000C26000E08A82026110BD0000816839B1A5
:104B000042684A604168002901D080688860704727
:104B1000054906E04A68824202D140684860704711
:104B200011460029F6D17047DC10001010B541681D
:104B300081B1FFF7ABFC0446FFF7CBFF01206070AB
:104B400001462046FFF7BEFF2146BDE8104003485E
:104B5000FFF778BF4188491C418010BDDC10001070
:104B600006480068D0E90A10814203D3006804496E
:104B7000884202D00120FFF701BB7047740100108A
:104B8000A52E5AE20749022248604270064A12786E
:104B9000002A05D006C98A4202D0C078FFF786B83D
:104BA00070470000740100109001001070B5FFF70D
:104BB00055F800200446204A204902E042F82040EF
:104BC000401C0B889842F9D31D48342201881D48A7
:104BD000FEF7EEFF1C48008880B240F000421B4800
:104BE00001681B48FEF7E4FF1A48082201881A48AA
:104BF0000068FEF7DDFF194DFF20194AE870EC84CC
:104C000000212846FFF75AFC164804210170446031
:104C100015480170C4600461848214481549056018
:104C2000022068701248047044700978C170BDE8B1
:104C30007040FFF775BC0000C40F0010FA69000057
:104C40001C6A0000DC010010FC690000206A000002
:104C500058030010446A000034010010A81000102E
:104C60007F410000DC100010F410001074010010EF
:104C7000400F0010286A00001B4810B5016841F47D
:104C80007F01016000684FF07F4101EA0020164972
:104C9000C0431439B0FA80F00968C0F10800C1F3CC
:104CA0000221814200D3481C0F49091F0B686FF095
:104CB0008072824063F317020A60FFF761FA0B49C2
:104CC000002808600EDB00F1E021FF2281F80024BB
:104CD00000F01F02012191404009800000F1E02016
:104CE000C0F8001110BD000020ED00E080010010B0
:104CF0000C4810B50268012151700068FFF7BEFE34
:104D0000FFF7F4FA08480168491C0160FFF712FB3D
:104D100000F030FB0548FFF7B9FBBDE81040FFF796
:104D200031BF00007401001084010010DC1000107D
:104D3000002805D0810702D10178002900D0002089
:104D40007047000030B50B4C0023626805E09568A1
:104D50008D4204D813461268491B002AF7D102601D
:104D6000816012B19568691A91600BB1186030BD0D
:104D7000606030BD6C0100100D4B0022596803E0EB
:104D8000814204D00A4609680029F9D104E019B12A
:104D9000016822B1116003E04FF0FF3070475960A5
:104DA000016819B18A6880681044886000207047E3
:104DB0006C0100102DE9F0411E46174680460D4655
:104DC00011F0FF0F00D14D1C1848FFF747FA041EE1
:104DD00016D0280AE762E084E9B242462046E6613E
:104DE000FFF76CFB01251248124905E000EB850234
:104DF00052F8042C32B16D1C0A889542F6D9002075
:104E0000BDE8F081002DFAD000EB850040F8044C9D
:104E10000948E570007818B101212046FEF736FFF9
:104E20002046FFF7BFFA2846EAE70000DC01001041
:104E3000C40F0010FA690000900100102DE9F05F26
:104E4000584DDFF85891DFF8588129684FF0010A72
:104E5000002618B1CA78AB46824243D14E70FBF7A8
:104E600052FA29688862FFF77BFE2868046A1FE00F
:104E70006068C0B12046FFF709FB07460021FFF735
:104E800021FE3846FFF725FE87F801A0394646483F
:104E9000FFF7D8FDE168A4F802A0A760386AE060D7
:104EA0003C620C4604E0E0686680A660E66004466A
:104EB000002CDDD12868C27808EB820141F8046C2F
:104EC000C16A3A48FFF7B8FA2868C66299F8001034
:104ED00011B10021FEF7DAFE35482968FFF7ACFA78
:104EE0002E6056E03349098888420CD808EB8008C8
:104EF00058F8045C3DB12846FFF700FE2846FFF74E
:104F0000E8FD2C6A22E0FF20BDE8F09F6068C0B198
:104F10002046FFF7BBFA07460021FFF7D3FD3846CE
:104F2000FFF7D7FD87F801A039461F48FFF78AFD34
:104F3000E168A4F802A0A760386AE0603C620C4611
:104F400004E0E0686680A660E6600446002CDDD1DF
:104F500048F8046C1548E96AFFF76EFAEE6299F8B2
:104F6000000018B100212846FEF790FE294610489F
:104F7000FFF762FA0C48DBF8001040688B78827803
:104F80009A4209D981F801A00748DBF80010FFF721
:104F900059FD0020FFF706FA0020B5E79001001048
:104FA000C40F001074010010DC1000105803001032
:104FB000DC010010FA69000070B51A4D80B11A4A80
:104FC000128890421FD8194A02EB800050F8044C16
:104FD000CCB1A17084F824102868A04205D014E058
:104FE00028688170286880F824101148406880780B
:104FF000884215D90E482968FFF724FD2968012049
:10500000487000200AE0FF2070BD2046FFF740FDF9
:105010006078012804D10648FFF738FAFFF7C2F993
:10502000002070BD74010010FA690000C40F001068
:10503000DC10001002480068002800D0C0787047DB
:105040007401001011B5074C81B00122E369694673
:1050500001A89847A06A8047C007FBD19DF80000CF
:105060001CBD0000986A00002DE9F04100260F46A3
:105070008046012924D00022194CE179A079FDF75E
:1050800053FA0725E178A0780022FDF733FA0120D2
:10509000FEF714FE012F15D0E179A079FDF71EFA75
:1050A000A8403043C6B2E178A0780122FDF722FA89
:1050B0000120FEF703FE6D1EE4D53046BDE8F08109
:1050C0000122D9E70120A84010EA080F01D00122EF
:1050D00000E00022E179A079FDF70CFAE3E7000097
:1050E0002C01001010B5134C207860B9124840070D
:1050F00005D1124801681048FFF704FA08B185206D
:1051000010BDFFF753FD0E49FF2009688870207815
:1051100058B900210B4800F041F80B490860002104
:105120000A4800F06BF80A4908600120207000204E
:10513000607010BD6C010010C80C0010246A0000E3
:10514000740100103C6A00004C0100102C6A000041
:105150004801001070B50F4D687808B1002070BD8F
:105160000D4C206890F824100020FFF725FF2068E0
:10517000C178FF2903D1816A203181F309886168F0
:1051800011B9606000202060FFF776FD0120687093
:10519000E4E700006C0100107401001010B5040079
:1051A00005D0216819B1606808B102780AB1002001
:1051B00010BD8900103189B2FFF702FA606810BD96
:1051C0003EB504000D464FF0800012D02178012931
:1051D0000FD12846FFF7D4FA0246204601A9FFF76F
:1051E00075FA012801D0102003E00DB1402000E045
:1051F0000020DDE9011203B030BD000070B50E469D
:1052000004002BD0206848B3B4F9040010F1030F58
:1052100024DB032822DCE16829B11148FFF72BF8D1
:1052200005001BD000E00025B4F90400E168001D72
:1052300040EA012133462A462068FFF7BBFD40B112
:10524000084901EB8000084950F8040C826A516358
:1052500070BD1DB129460248FFF704F9002070BD5A
:10526000C80C0010C40F0010E140000010B5FFF79B
:10527000E1FE002804D0034901EB800050F8040C43
:1052800010BD0000C40F001010B5FFF751FD18B19C
:10529000C18C19B1C46A02E0802010BD0024C0781E
:1052A000FFF7CCFDFF2806D01CB121460348FFF7CD
:1052B000D9F8002010BD812010BD0000C80C0010DE
:1052C00010B5FFF7F7F820B141690A680169104687
:1052D00010BD0020014610BD10B503000CD01868A9
:1052E00050B15868002808D009B1012904D1074CF1
:1052F00024680CB104790CB1002010BD00240460B6
:10530000012404714171C0E9042310BD480100105B
:1053100070B50E46FFF7CEF8040016D0BEB1144AA1
:1053200000214FF47A7310681268401E41F1FF3576
:10533000E6FB030529460023FBF77AF805462079AA
:1053400001280CD0022808D103E0802070BD8620FF
:1053500070BD2046FFF710FD20B1812070BD0220F6
:105360002071E56029462046FFF7ECFC002070BD67
:10537000146A00002DE9F041134E7468002C1CD013
:10538000A068124F401E4FF00108A06012E02546B1
:1053900024687460002229463868FEF7BAFC10B110
:1053A0000420FEF7EBFE6879012808D085F8048018
:1053B000002C02D0A0680028E9D0BDE8F081284682
:1053C000E968FFF7BFFCF3E76C0100104C01001027
:1053D00038B50D4C05460121626A132090477020B4
:1053E0008DF8000000208DF801008DF802506269F0
:1053F000032168469047A06A8047C007FBD100217F
:10540000626A1320904738BD986A000038B5010AD7
:105410008DF80010054C8DF8010002216269684684
:105420009047A06A8047C007FBD138BD986A00004A
:10543000054810B50121426A13209047BDE810408D
:105440007220FFF7FFBD0000986A000002480021AB
:10545000426A132010470000986A000038B50D46D4
:1054600070218DF80010010A8DF80110154C8DF88F
:1054700002000121626A1320904762690321684695
:105480009047A06A8047C007FBD10021626A1320C1
:10549000904772208DF80000280A8DF801008DF8E1
:1054A00002500121626A1320904762690321684615
:1054B0009047A06A8047C007FBD10021626A132091
:1054C000904738BD986A000079390000A4010010A7
:1054D00000000000000000000000000000000000CC
:1054E00000000000000000000000000000000000BC
:1054F00000000000000000000000000000000000AC
:105500000000800180018001800180018001800114
:105510008001800180018001800180010000000085
:105520008001800100000000000000000000000079
:1055300000000000CC00CC00CC00CC00CC00CC00A3
:10554000000000000000000000000000000000005B
:10555000000000000000000000000000000000004B
:10556000000000000000000000000000600C600C63
:10557000600C30063006FE1FFE1F30063807180389
:10558000FE1FFE1F180318038C018C018C01000004
:1055900000008000E003F80F9C0E8C1C8C188C001F
:1055A0009800F801E007800E801C8C188C189C185D
:1055B000B80CF00FE0038000800000000000000045
:1055C0000000000000000E181B0C110C1106110643
:1055D000110311039B018E01C038C06C604460440C
:1055E000304430441844186C0C38000000000000AF
:1055F0000000E001F0033807180618063003F00138
:10560000F000F8009C310E33061E061C061C063FF7
:10561000FC73F0210000000000000000000000000A
:10562000000000000C000C000C000C000C000C0032
:10563000000000000000000000000000000000006A
:10564000000000000000000000000000000000005A
:105650000000000200038001C000C0006000600084
:1056600030003000300030003000300030003000BA
:1056700060006000C000C000800100030002000064
:10568000000020006000C0008001800100030003D2
:1056900000060006000600060006000600060006DA
:1056A0000003000380018001C000600020000000B2
:1056B000000000000000000000000000C000C0006A
:1056C000D806F807E00130033807000000000000AA
:1056D00000000000000000000000000000000000CA
:1056E00000000000000000000000000080018001B8
:1056F000800180018001FC3FFC3F8001800180012E
:105700008001800100000000000000000000000097
:105710000000000000000000000000000000000089
:105720000000000000000000000000000000000079
:1057300000008001800100010001800000000000E5
:105740000000000000000000000000000000000059
:105750000000000000000000E007E007000000007B
:105760000000000000000000000000000000000039
:105770000000000000000000000000000000000029
:105780000000000000000000000000000000000019
:105790000000C000C0000000000000000000000089
:1057A0000000000C000C00060006000600030003C9
:1057B00000038003800180018001C000C000C000A0
:1057C0006000600000000000000000000000000019
:1057D0000000E003F007380E180C0C180C180C1819
:1057E0000C180C180C180C180C180C18180C380E77
:1057F000F007E003000000000000000000000000CF
:10580000000000018001C001F001980188018001C1
:105810008001800180018001800180018001800180
:105820008001800100000000000000000000000076
:105830000000E003F80F180C0C180C1800180018E2
:10584000000C000600038001C0006000300018005A
:10585000FC1FFC1F00000000000000000000000012
:105860000000E001F807180E0C0C0C0C000C0006F0
:10587000C003C007000C001800180C180C18180CF6
:10588000F807E00300000000000000000000000036
:105890000000000C000E000F000F800DC00C600C0B
:1058A000600C300C180C0C0CFC3FFC3F000C000C86
:1058B000000C000C000000000000000000000000D0
:1058C0000000F80FF80F180018000C00EC03FC079C
:1058D0001C0E001C0018001800180C181C0C180EC8
:1058E000F807E003000000000000000000000000D6
:1058F0000000C007F00F381C181818000C00CC036B
:10590000EC0F3C0E1C1C0C180C180C18181C380E34
:10591000F007E003000000000000000000000000AD
:105920000000FC1FFC1F000C0006000600038003A3
:105930008001C001C000E000600060007000300025
:1059400030003000000000000000000000000000F7
:105950000000E003F007380E180C180C180C38067D
:10596000F007F007180C0C180C180C180C18380C51
:10597000F80FE0030000000000000000000000003D
:105980000000E003F007380E1C0C0C180C180C1863
:105990001C1C381EF81BE0190018000C000C1C0E13
:1059A000F807F00100000000000000000000000007
:1059B00000000000000000000000000080018001E5
:1059C00000000000000000000000000000000000D7
:1059D00080018001000000000000000000000000C5
:1059E00000000000000000000000000080018001B5
:1059F00000000000000000000000000000000000A7
:105A00008001800100010001800000000000000012
:105A10000000000000000000000000000000000086
:105A20000010001C800FE003F8001800F800E003ED
:105A3000800F001C001000000000000000000000AB
:105A40000000000000000000000000000000000056
:105A5000F81F000000000000F81F00000000000018
:105A60000000000000000000000000000000000036
:105A70000000000000000000000000000000000026
:105A800008003800F001C007001F0018001FC00701
:105A9000F0013800080000000000000000000000D5
:105AA0000000E003F80F180C0C180C180018000C7C
:105AB000000600038001C000C000C000000000001C
:105AC000C000C00000000000000000000000000056
:105AD00000000000E00718180420C229224A1144DF
