:020000040000FA
:1000000050130010D5010000DD010000DF010000E9
:10001000E1010000E3010000E50100000000000034
:100020000000000000000000000000006903000064
:10003000E901000000000000E10300001D040000D1
:10004000EF010000EF010000EF010000EF010000F0
:10005000EF010000EF010000EF010000EF010000E0
:10006000EF010000EF010000EF010000EF010000D0
:10007000EF010000EF010000EF0100008128000007
:10008000EF010000EF010000EF010000EF010000B0
:10009000EF010000EF010000C9080000EF010000BF
:1000A000EF010000EF010000B1090000EF010000C6
:1000B000EF010000EF010000EF010000EF01000080
:1000C000EF010000EF010000EF01000000F002F876
:1000D00000F05FF80AA090E8000C82448344AAF183
:1000E0000107DA4501D100F054F8AFF2090EBAE881
:1000F0000F0013F0010F18BFFB1A43F0010318475C
:1001000090650000B06500000A444FF0000C10F844
:10011000013B13F0070408BF10F8014B1D1108BF85
:1001200010F8015B641E05D010F8016B641E01F825
:10013000016BF9D113F0080F1EBF10F8014BAD1C75
:100140000C1B09D16D1E58BF01F801CBFAD505E093
:1001500014F8016B01F8016B6D1EF9D59142D6D3ED
:10016000704700000023002400250026103A28BF15
:1001700078C1FBD8520728BF30C148BF0B60704719
:10018000642900F0CD81002070471FB51FBD10B558
:1001900010BD00F01BFB1146FFF7F7FF0FB400F096
:1001A0000BF80FBC03F0C6FB00F071F803B4FFF7C7
:1001B000EEFF03BC00F004FB04B003F0ABFC04480A
:1001C000002103F0FBFC03F0B7FC00F060F8000036
:1001D000180100100948804709480047FEE7FEE77C
:1001E000FEE7FEE7FEE7FEE7FEE7FEE7FEE7FEE7E7
:1001F00004480549034A054B704700000D340000D0
:10020000CD000000501100105013001050110010CC
:1002100000487047EC1000100FB41CB5074B06AA3D
:100220007B4469460090059800F0B1FA00206946C9
:1002300000F0C0FA1CBC5DF814FB00009105000042
:1002400070B5044685690068C10601D5302600E016
:100250002026C00707D070BDD4E901213046904761
:10026000206A401C20626D1EF6D570BD70B5044634
:1002700085690078C00707D170BDD4E9012120202D
:100280009047206A401C20626D1EF6D570BD10B5E7
:100290000446AFF300802046BDE81040FFF786BF5C
:1002A0004FF0000200B5134694469646203922BF0F
:1002B000A0E80C50A0E80C50B1F12001BFF4F7AF5A
:1002C000090728BFA0E80C5048BF0CC05DF804EB3C
:1002D000890028BF40F8042B08BF704748BF20F8AA
:1002E000022B11F0804F18BF00F8012B70477047A8
:1002F000704770477047000000000000FFFFFFFFDD
:1003000080F309887047EFF309807047684680F3EF
:10031000098804480078C00714BF0220032080F336
:100320001488704714650000DFF818C0EFF30583E8
:100330001B0618BF6047EFF31483DB0708BF604755
:1003400000DF7047693D0000DFF818C0EFF3058358
:100350001B0618BF6047EFF31483DB0708BF604735
:1003600000DF7047453F0000EFF30980816911F815
:10037000021CF1B990E80F10E047EFF3098C8CE80C
:100380000700144B93E8060091420FD039B12CE9D5
:10039000F00FC1F828C00CB404F068F90CBC1A6066
:1003A000D2F828C0BCE8F00F8CF309886FF0020E79
:1003B000704710B5084A1268914209D8074C54F8A2
:1003C000214090E80F10A047EFF3098C8CE80F0054
:1003D00010BD000054010010F8020000F8020000F7
:1003E00004F016F80C4B93E80600914210D0EFF39E
:1003F000098C2CE9F00FC1F828C00CB404F036F9D0
:100400000CBC1A60D2F828C0BCE8F00F8CF3098845
:100410006FF0020E704700005401001004F0EEF976
:10042000E0E7000003F046FC04F0E8F9DAE700003A
:1004300053EA020C00F069802DE9F04B4FF0000602
:10044000002B1FBFB3FA83F503FA05F424FA05F66F
:100450005E4012BF1643B2FA82F502FA05F4C5F106
:1004600020051EBF22FA05FC44EA0C04203556EA9A
:10047000044C4FEA144418BF641C4FF000084FF0BE
:100480000009904271EB030C39D3002919BFB1FA6E
:1004900081F701FA07F6B0FA80F700FA07F6C7F11C
:1004A00020071EBF20FA07FC46EA0C062037B6FBE1
:1004B000F4FCA7EB0507103F07F01F0BCBF120065C
:1004C0000CFA0BFB2CFA06F644BFB3460026202F8D
:1004D000A4BF5E464FF0000B5BEA060C08BF4FF06E
:1004E000010B19EB0B09ABFB027C48EB0608C01BA8
:1004F00006FB02CC0BFB03CC71EB0C01C1E70B46F6
:10050000024641464846BDE8F08B13B54FF0000067
:100510004FF00001AFF30080BDE81C4070470000C1
:100520002DE9F0410646002410687529314616A5CC
:1005300010D0AFF30080002802DA404213A507E094
:1005400031688A0701D512A502E0490704D511A533
:10055000012401E0AFF3008000210A2206F1240704
:1005600009E0B0FBF2FCB0FBF2F302FB1C00303000
:1005700078541846491C0028F3D123462A463046B1
:10058000BDE8F04100F0A4B8000000002D0000001C
:100590002B000000200000002DE9F05F8946044692
:1005A0004FF0000ADFF824B1FB44C0F820A0204639
:1005B000E168884700287DD0252806D0D4E90121AC
:1005C0009047206A401C2062F1E700255F462046E4
:1005D000E16888472028064607DB312E05D2B81986
:1005E00010F8200C08B10543F1E7A80701D525F064
:1005F0000405C4F81CA00027C4F818A02A2E09D0AE
:10060000304603F0AAF838B304EB8708303EC8F848
:10061000186019E059F8041B204604EB8702916129
:10062000E1688847012F064618D1E069002820DAE2
:1006300025F020051DE0D8F8180000EB800006EB3F
:1006400040003038C8F818002046E1688847064660
:1006500003F083F80028EED1012F0AD02E2E08D106
:100660002046E16888477F1C0646022F45F020059A
:10067000C4DBA069002803DA404245F00105A0610F
:10068000E80701D025F01005A6B1A6F14100192810
:1006900002D8203645F400654A463146204625609A
:1006A0004D46FFF76DFD60B1012807D0ED1D25F027
:1006B000070000E007E000F1080978E705F1040908
:1006C00075E730467AE7206ABDE8F09F24600000B5
:1006D0002DE9F0470D4699469246044600F124085C
:1006E0000168880604D5E06921F01001216000E06E
:1006F0000120A84201DD471B00E00027A1697A190B
:1007000002EB0900081AA0612078C00602D4204636
:10071000FFF796FD002608E0D4E901211AF806004B
:100720009047206A401C761C20624E45F4DB2078FE
:10073000C0060AD52046FFF783FD06E0D4E9012173
:1007400030209047206A401C2062381EA7F1010724
:10075000F4DC07E0D4E9012118F805009047206A8D
:10076000401C2062281EA5F10105F3DC2046FFF79E
:100770007DFD2078000602D50220BDE8F08701202B
:10078000FBE7000001694A1C02610878704700B568
:100790008FB0CDE901310021059105497944CDE9BA
:1007A000031011466846FFF7F7FE0FB000BD0000CA
:1007B000E5FFFFFF0A6802F8010B0A6070470000BE
:1007C00001491820ABBEFEE7260002007546FFF780
:1007D0001FFDAE4605006946534620F007008546DA
:1007E00018B020B5FFF704FDBDE820404FF000062B
:1007F0004FF000074FF000084FF0000B21F0070109
:10080000AC46ACE8C009ACE8C009ACE8C009ACE84B
:10081000C0098D467047000010B500F02BFF4FF463
:10082000784001F0CFFA00210FA2084600F0B6FF91
:100830001F2001F0C7FA12A21821002000F0AEFF1D
:1008400013A24821002000F0A9FF032002F0A4FD1C
:1008500014A27821002000F0A1FFD821BDE81040AB
:1008600014A2002000F09ABF41444354687265739B
:10087000686F6C642053657474696E673A00000099
:1008800050726573733A2055702C20446F776E0058
:1008900020202020202020546F2041646A7573742A
:1008A00000000000414443205468726573686F6C17
:1008B000643A2000507265737320454E54455220AF
:1008C00052657475726E0000054808B5016B0091A1
:1008D0004068C0F30B11034841800121017008BD3D
:1008E00000400340FC0000100C4808B550F8C41F3D
:1008F00041F41041016000200223012219210090DF
:1009000001F0E0FD0748064901608115C1608803D8
:100910004FF0E021C1F80001002008BD00C00F40E9
:10092000040420000040034010B500240A4B0428B2
:100930000FD00A4A0828516806D0102803D109B1FF
:10094000491E51609C6110BDB1F5806FFAD2491CFF
:10095000F7E7DC64F6E70000000000107401001007
:1009600070B50B4C0125E564FFF756FF07E000BFAB
:1009700000F0DCF801F084FCA069FFF7D5FFE06C23
:100980000128F5D02570BDE8704001F0D7BA00000D
:100990000000001001218140044800BF50E8002FF2
:1009A0008A4340E80023002BF8D170474001001033
:1009B0002DE9F0470024354EDFF8D4900127306848
:1009C00007FA04F528425CD03248716800EB441005
:1009D000294244D0B56004EB840309EB83054A4601
:1009E000D5E9021C8C4533D0A1EB0C01B1F5805F39
:1009F00001D340F6FF718C44C5F80CC0D0F80CC090
:100A00005FEA4C1C0ED552F823C0C0F800C052F863
:100A100023C0D0F80C80C8F3814801FA08F8C44418
:100A200049F823C0C268120109D56A6842606B6840
:100A3000C268C2F3415201FA02F21A446A60C26803
:100A400061F30B02C260016941F00101016118E02C
:100A5000E0B2FFF79FFF296999B1012010E0F1682A
:100A600029420ED000210161C160E0B2FFF792FF80
:100A7000356104EB840109EB8100016909B10220B1
:100A80008847641C082C9AD3BDE8F08700400050CA
:100A9000E80F001000410050027812B1521E02709F
:100AA000704701707047000010B51B48016841F0A5
:100AB0008071016081690029FCDA8069174CC0F3FC
:100AC0000B1217A118482260FFF7A6FB164A6021F7
:100AD000B02000F063FE12A113486268FFF79CFB90
:100AE000114A7821E02000F059FE0DA10E48A268BD
:100AF000FFF792FB0C4A9021E02000F04FFE627B52
:100B000007A10948FFF788FBA821BDE81040064A65
:100B1000E02000F043BE00000040034074010010DC
:100B200025303464000000005400001008B5064869
:100B3000064942686846FFF76FFB6A467821E02065
:100B400000F02CFE08BD000074010010B01300007E
:100B500010B52448016841F0807101608169002965
:100B6000FCDA8069204CC0F30B1220A1A4F117001D
:100B70002260FFF751FB2068642808D81DA2A82135
:100B8000002000F00BFE02F0C1FE1C210CE0A0F1E1
:100B90006501B1F5617F09D21BA2A821002000F0F8
:100BA000FDFD02F0B3FE1D21012016E0A0F2E930A8
:100BB000B0F5FA6F08D219A2A821002000F0EEFDCE
:100BC00002F0A4FE1F21EFE719A2A821002000F0E7
:100BD000E5FD02F09BFE02210846BDE8104002F050
:100BE0009DBE0000004003407000001025303464BA
:100BF00000000000436F6D706C6574656C79206453
:100C000061726B2E000000004C6967687420697384
:100C1000207765616B2E2020000000004C6967681A
:100C200074206973206E6F726D616C2E000000007D
:100C30004C69676874206973206272696768742EF2
:100C40000000000010B51A48016841F08071016091
:100C500081690029FCDA8069164CC0F30B1216A1D9
:100C6000A4F122002260FFF7D7FA206814A2B0F5A1
:100C7000FA6F4FF090014FF000000AD800F08EFD9F
:100C800013A2A821002000F089FDBDE8104002F069
:100C90003DBE00F083FD13A2A821002000F07EFDE0
:100CA00002F034FE0521BDE81040022002F036BEFD
:100CB0000040034080000010253034640000000034
:100CC000536F696C206D6F697374757265000000F5
:100CD00069732076657279206472792E2020202035
:100CE00020200000697320736174757261746564FB
:100CF0002E00000010B53048016841F0807101609D
:100D000081690029FCDA80692C4CC0F30B122CA1FC
:100D1000A4F128002260FFF77FFA2068B0F5FA6F8F
:100D200011D829A29021002000F038FD2BA2A82183
:100D3000002000F033FD02F0E9FD0621022002F060
:100D4000EDFD052133E0A0F2D170B0F57A7F15D228
:100D500027A29021002000F021FD2BA2A821002035
:100D600000F01CFD02F0D2FD0621022002F0D6FDAB
:100D70000521022002F0D2FD042118E028A29021D2
:100D8000002000F00BFD15A2A821002000F006FDB8
:100D900002F0BCFD0621022002F0C0FD0521022068
:100DA00002F0BCFD0421022002F0B8FD0321BDE8E1
:100DB0001040022002F0B2BD00400340900000103D
:100DC00025303464000000004C6F7720507265734A
:100DD000737572652E20202020200000416C657202
:100DE00074212121202020202020202020200000EC
:100DF0004E6F726D616C2050726573737572652EE3
:100E00002020202000000000202020202020202062
:100E10002020202020202020202020200000000052
:100E2000486967682050726573737572652E20205B
:100E30002020000070B5032002F0AEFA144804250B
:100E4000C11C02780B78134E134C9A420AD1427897
:100E50004B789A4206D180788978884202D1012065
:100E6000207301E0207B50B10CA2C021002000F0D3
:100E700095FCB565607BBDE8704002F093BC0DA2A7
:100E8000C021002000F08AFC207A6073F56570BDF7
:100E90000200001000C009207401001050756D7030
:100EA0002069732072756E6E696E67206E6F772E83
:100EB0000000000050756D70206973206E6F742003
:100EC00072756E6E696E672E0000000010B500F03E
:100ED000D1FB4FF4784000F075FF00211AA20846BC
:100EE00000F05CFC1F2000F06DFF1CA21821002008
:100EF00000F054FC1FA23021002000F04FFC22A281
:100F00004821002000F04AFC032002F045FA23A209
:100F10007821002000F042FC24A2A821802000F0CB
:100F20003DFC23A2A821C02000F038FC21A2A8216A
:100F30004FF4807000F032FCD821BDE810401EA2B2
:100F4000002000F02BBC0000202020436C6F636B5E
:100F50002053657474696E673A00000050726573BF
:100F6000733A2055702C20446F776E20202020206B
:100F700000000000202020202020204C6566742CDA
:100F8000205269676874000020202020202020540F
:100F90006F2041646A7573740000000043757272BB
:100FA000656E742054696D653A200000683A00004F
:100FB0006D3A000073000000507265737320454E57
:100FC0005445522052657475726E000070B5254804
:100FD000016841F08071016081690029FCDA806953
:100FE0006421C0F30B10B0FBF1F3B0FBF1F21E4C27
:100FF00001FB1303A4F178052060AB621BA104F18F
:1010000020006A61FFF708F904F1200278215020DE
:1010100000F0C4FB2068B0F57A7F08D816A2A8219A
:10102000002000F0BBFB02F071FC032115E0A0F2F0
:10103000E930B0F5FA6F08D213A2A821002000F021
:10104000ADFB02F063FC042107E013A2A8210020FD
:1010500000F0A4FB02F05AFC0521BDE8704002201C
:1010600002F05CBC00400340780000102530326480
:101070002E2530326400000054656D7020697320A5
:10108000636F6C642E20200054656D70206973209E
:101090006E6F726D616C2E0054656D7020697320E7
:1010A000686F742E2020200038B51C4C206980B356
:1010B0005FF0000002F070F9184D19A1AD1C6846F0
:1010C0002A78FFF7A9F86A46A821602000F066FB9D
:1010D0002069012800D0002002F05EF96A7810A192
:1010E0006846FFF799F86A46A821A02000F056FB51
:1010F0002069022810D0002002F04EF9AA7808A139
:101100006846FFF789F86A46A821E02000F046FB10
:1011100038BDFFE70120CDE70120EDE7000000101A
:10112000253032640000000010B51B48016841F012
:101130008071016081690029FCDA8069174CC0F375
:101140000B1217A1A4F125002260FFF765F82068B3
:10115000B0F5FA6F0DD814A29021002000F01EFB0C
:1011600016A2A821002000F019FBBDE8104002F0F3
:10117000CDBB17A29021002000F010FB19A2A821DE
:10118000002000F00BFB02F0C1FB0521BDE8104080
:10119000022002F0C3BB00000040034088000010A2
:1011A00025303464000000004E6F7420576F726B5E
:1011B000696E672020202020200000004E656564B5
:1011C00020746F2062652066697865642E000000D7
:1011D000576F726B696E672070726F7065726C7991
:1011E000000000002020202020202020202020207F
:1011F00020202020202020202000000010B500F01A
:1012000039FA134800F0D8FD4FF47844204600F036
:10121000D9FD00210FA2084600F0C0FA47F60F00E2
:1012200000F0D0FD0FA24821002000F0B7FA032003
:1012300002F0B2F81F2000F0C5FD0FA2D821002057
:1012400000F0ACFA2046BDE8104000F0BBBD000045
:10125000DC6400004C696768742053656E736F72BC
:10126000000000004C6967687420496E74656E73F5
:101270006974793A20000000507265737320454EFE
:101280005445522052657475726E000010B500F01E
:10129000F1F9114800F090FD4FF4784000F092FD14
:1012A00000210EA2084600F079FA47F60F0000F080
:1012B00089FD0EA24821002000F070FA032002F000
:1012C0006BF81F2000F07EFDD821BDE810400BA276
:1012D000002000F063BA0000DC6400004D6F697309
:1012E000747572652053656E736F7200536F696C0D
:1012F000204D6F6973747572653A20005072657382
:101300007320454E5445522052657475726E00002C
:1013100010B500F0AFF9114800F04EFD4FF47840E1
:1013200000F050FD00210EA2084600F037FA47F603
:101330000F0000F047FD0EA24821002000F02EFA19
:10134000032002F029F81F2000F03CFDD821BDE861
:1013500010400AA2002000F021BA0000DC64000066
:1013600050726573737572652053656E736F72008A
:101370005374617475733A200000000050726573F5
:101380007320454E5445522052657475726E0000AC
:1013900008B5064806A182686846FEF73DFF6A4622
:1013A0007821C02000F0FAF908BD00007401001097
:1013B00025303264000000000EB50549684602F091
:1013C00011F96A464821A02000F0E8F90EBD00009E
:1013D0000500001010B51F2000F0F4FC14A230210D
:1013E000002000F0DBF914A24821002000F0D6F91B
:1013F00014A26021002000F0D1F915A2782100206C
:1014000000F0CCF916A29021002000F0C7F918A234
:10141000A821002000F0C2F919A2D821002000F074
:10142000BDF9BDE810404FF4784000F0CBBC00009F
:10143000436C6F636B3A200050756D705F54696D3B
:10144000653A00004144432056616C75653A0000DE
:10145000414443205468726573686F6C643A0000BD
:1014600050756D705F4475726174696F6E3A0000FB
:1014700050756D705F52656D61696E3A20000000B5
:10148000507265737320454E5445522052657475F1
:10149000726E000010B5164800F08EFC00F0EAF8FD
:1014A0004FF4784000F08EFC002112A2084600F0B4
:1014B00075F947F60F0000F085FC13A248210020C3
:1014C00000F06CF94FF4787000F07CFC12A27821E7
:1014D000902000F063F9032001F05EFF1F2000F070
:1014E00071FCD821BDE810400CA2002000F056B9D4
:1014F000DC64000054656D706572617475726520FE
:1015000053656E736F72000054656D70657261741F
:101510007572653A20000000202A430050726573FE
:101520007320454E5445522052657475726E00000A
:1015300010B500F09FF8114800F03EFC4FF47840E1
:1015400000F040FC00210EA2084600F027F947F603
:101550000F0000F037FC0EA24821002000F01EF919
:10156000032001F019FF1F2000F02CFCD821BDE85A
:1015700010400AA2002000F011B90000DC64000055
:10158000576174657220537072696E6B6C6572007E
:101590005374617475733A200000000050726573D3
:1015A0007320454E5445522052657475726E00008A
:1015B0000EB50549684602F015F86A463021A020AC
:1015C00000F0ECF80EBD00000200001010B500F0B5
:1015D00051F84FF4784000F0F5FB00210FA20846C7
:1015E00000F0DCF81F2000F0EDFB11A21821002014
:1015F00000F0D4F812A24821002000F0CFF8032018
:1016000001F0CAFE13A27821002000F0C7F8D8210B
:10161000BDE8104012A2002000F0C0B850756D70F7
:10162000204475726174696F6E205365743A0000CE
:1016300050726573733A2055702C20446F776E009A
:1016400020202020202020546F2041646A7573746C
:10165000000000004475726174696F6E3A200000EA
:10166000507265737320454E54455220526574750F
:10167000726E000070B50021F0234FF4A07208468E
:1016800000F0A6FB222003F029FC03F057FC074DD5
:1016900000244FF49636A88803F03EFC641CB44244
:1016A000F9D303F059FC002070BD000000010010C8
:1016B0002DE9F0411F4CA36893B15D68DF68551BAD
:1016C0001A885B88D61DF608754303FB057600F083
:1016D0007FFB222003F002FC03F030FC002720E017
:1016E0004FF0FF30BDE8F081002514E0307805F0C0
:1016F0000701C840C00701D0608800E0A08803F05F
:101700000BFCE843400705D1A0680088401EA842B2
:1017100000D0761C6D1CA0680088A842E6D8761C14
:101720007F1CA0684088B842DED803F015FC00207A
:10173000D8E700000001001070B51446012300F046
:1017400047FB222003F0CAFB03F0F8FB054D02E043
:10175000688803F0E1FB641EFAD203F0FDFB002071
:1017600070BD0000000100102DE9F0411C46164636
:101770000D460746FFF7E0FF291932463846FFF7C6
:10178000DBFF22462946384600F020F8B8192246E9
:10179000294600F01BF80020BDE8F0812DE9F0415A
:1017A00014460F460546084E07E039462846641C95
:1017B000FFF77EFFB068008805442278002AF4D144
:1017C0000020BDE8F08100000001001070B5144653
:1017D0001346012200F0FCFA222003F07FFB03F005
:1017E000ADFB054D02E0688803F096FB641EFAD25B
:1017F00003F0B2FB002070BD00010010F8B501201D
:1018000000F0ECFC002633463246062130460096B6
:1018100000F058FE01220621002000F0EDFC01221C
:101820000621002000F0CEFC02F046FAFE4D0446F0
:101830000020A96888472969022088476A6AFB490D
:10184000FB489047DCB9002003F048FB01216A6A9D
:1018500013209047732003F07BF9002003F078F900
:10186000002003F075F94FF6FF7101EA0024002013
:1018700003F06EF9044300216A6A13209047ED4893
:10188000472C7DD006704FF48071012003F06CFB73
:101890004FF4E061022003F067FB0021042003F015
:1018A00063FB40F20721082003F05EFB00210920C2
:1018B00003F05AFB00210A2003F056FB00210C2004
:1018C00003F052FB00210D2003F04EFB00210F20FE
:1018D00003F04AFB0021102003F046FB00211120F9
:1018E00003F042FB0021122003F03EFB00211320F5
:1018F00003F03AFBC82001F097FF41F2B02110201D
:1019000003F032FB0721112003F02EFB322001F0FF
:101910008BFF40F2BD11122003F026FB322001F0B4
:1019200083FF4FF4A051132003F01EFB0E2129204A
:1019300003F01AFB322001F077FF0021202003F092
:1019400013FB0021212003F00FFBA4F51450933862
:1019500040F2076540F207767ED0A0F67560B0F5DC
:10196000005F7AD00621302003F0FEFA40F2011128
:10197000312003F0F9FA0321322003F0F5FA00E0F8
:101980001DE04FF48371352003F0EEFA40F602318A
:10199000362003F0E9FA40F20231372003F0E4FA8E
:1019A0003146382003F0E0FA0721392003F0DCFA51
:1019B000E91F3C2003F0D8FA40F20B2185E1012118
:1019C00001700021EA2003F0CFFA2021EB2003F080
:1019D000CBFA0C21EC2003F0C7FAC721ED2003F06D
:1019E000C3FA3821E82003F0BFFA1021E92003F000
:1019F000BBFA0121F12003F0B7FA1021F22003F025
:101A0000B3FA0121402003F0AFFA0021412003F096
:101A1000ABFA0021422003F0A7FA1021432003F083
:101A2000A3FA0E21442003F09FFA2421452003F05D
:101A30009BFA0421462003F097FA5021472003F037
:101A400093FA0221482003F08FFA1321492003F072
:101A50008BFA19214A2001E00FE1B7E003F084FA84
:101A600019214B2003F080FA16214C2003F07CFA58
:101A70001B21502003F078FA3121512003F074FA31
:101A80002F21522003F070FA3F21532003F06CFA0B
:101A90003F21542003F068FA3E21552003F064FAF8
:101AA0002F21562003F060FA7B21572003F05CFAC7
:101AB0000921582003F058FA0621592003F054FA5E
:101AC00006215A2003F050FA0C215B2003F04CFA57
:101AD0001D215C2003F048FACC215D2003F044FA7C
:101AE0001B21084603F040FA01211A2003F03CFABA
:101AF0002F21242003F038FA5721252003F034FA4F
:101B00008821232003F030FA3621182003F02CFA24
:101B10000121192003F028FA0021012003F024FA02
:101B200088211F2003F020FAC82001F07DFE8221C9
:101B30001F2003F019FA322001F076FE92211F20B7
:101B400003F012FA322001F06FFED2211F2003F0C1
:101B50000BFA322001F068FE5521172003F004FA39
:101B60000021084603F000FA11212F2003F0FCF9B0
:101B70000021312003F0F8F90021322003F0F4F9BC
:101B80003821282003F0F0F9C82001F04DFE3C2157
:101B9000282003F0E9F9A821162003F0E5F9002137
:101BA0000E2003F0E1F900210F2003F0DDF90121FF
:101BB000102003F0D9F94021112003F0D5F90021BC
:101BC000122003F0D1F900211320E5E040F60D3199
:101BD000302003F0C9F941F62311312003F0C4F994
:101BE00041F62641322003F0BFF942F21C61332056
:101BF00003F0BAF942F21941342003F0B5F940F686
:101C00000B51352003F0B0F941F20601362003F004
:101C1000ABF94FF4C261372003F0A6F940F2067128
:101C2000382003F0A1F907E0A465000020BCBE0045
:101C300001830800000100104FF44171392003F0C6
:101C400093F940F605613A2003F08EF940F6016100
:101C50003B2003F089F94FF487713C2003F084F9AD
:101C600040F20E513D2003F07FF940F203413E2047
:101C700003F07AF929463F2028E00021302003F0C4
:101C800073F92946312003F06FF940F20531322013
:101C900003F06AF90021352003F066F941F204618E
:101CA000362003F061F94FF40171372003F05CF93D
:101CB0000121382003F058F93146392003F054F956
:101CC00000213C2003F050F90F213D2003F04CF996
:101CD0000021502003F048F9EF21512003F044F98E
:101CE0000021522003F040F940F23F11532003F04D
:101CF0003BF9A4F29354B4F5005407D0A4F67564EC
:101D0000B4F5005F02D04FF4274101E04FF41C51BD
:101D1000602003F029F90121612003F025F9002159
:101D20006A2003F021F90021802003F01DF9002131
:101D3000812003F019F90021822003F015F9002118
:101D4000832003F011F90021842003F00DF9002114
:101D5000852003F009F91021902003F005F90021F6
:101D6000922003F001F90321932003F0FDF84FF4D2
:101D70008871952003F0F8F80021972003F0F4F81B
:101D80000021982003F0F0F841F23801032003F01D
:101D9000EBF840F23711072003F0E6F801221C218E
:101DA000042000F00FFA0020F8BD000001498880EF
:101DB0000020704700010010014988600020704732
:101DC0000001001001494880002070470001001008
:101DD0002DE9F041054687182148CE18761E007877
:101DE0000C467F1E10B3C5F30F21022003F0BCF890
:101DF000E9B2032003F0B8F8C7F30F21042003F081
:101E0000B3F8F9B2052003F0AFF8C4F30F210620B0
:101E100003F0AAF8E1B2072003F0A6F8C6F30F21F9
:101E2000082003F0A1F8F1B2092015E0A1B250207A
:101E300003F09AF8B1B2512003F096F8A9B25220FB
:101E400003F092F8B9B2532003F08EF8A1B220202B
:101E500003F08AF8A9B22120BDE8F04103F084B86C
:101E6000000100102DE9F047334C627800211E2656
:101E70004FF499704FF6FF7AA2B1814604F1D4086D
:101E80006162606A0A2700EB800106EBC105A16868
:101E9000884238D11E234A46A91E0820FFF764FC59
:101EA0001F203AE0DFF89080814608F1AC082162FB
:101EB000206A0A2700EB800106EBC105A168884271
:101EC00007D11E234A46A91E0820FFF74DFC1F20FC
:101ED00009E05046FFF776FF1E234A46A91E082058
:101EE000FFF742FC0020FFF76DFF216A384658F8E3
:101EF00031202946FFF752FC206A401C2062052849
:101F0000D6DBBDE8F0875046FFF75CFF1E234A464C
:101F1000A91E0820FFF728FC0020FFF753FF616A85
:101F2000384658F831202946FFF738FC606A401CD3
:101F300060620528A5DBE4E70000001010B54FF64D
:101F4000FF70FFF733FF4FF47840FFF73BFFFFF7D9
:101F500091FB0021BDE8104001A20846FFF71EBC1E
:101F60004175746F2050756D70204D656E75000061
:101F700010B54FF6FF70FFF719FF4FF47840FFF7E9
:101F800021FFFFF777FB0021BDE8104001A20846C2
:101F9000FFF704BC53656E736F72204D656E75005C
:101FA0002DE9F05F1C46DDE90B9A15460E46074603
:101FB0004FF0FF38082848D201F012FA401C44D0F4
:101FC000DFF898B007EB870825480BEB880200EB99
:101FD00047104FF0000CC2F810A0C0F810C0C0F8B5
:101FE0000CC020494FF0010A0AFA07F38B600B611D
:101FF000C0F808C0C1F830A00B6BDB07FCD09460C0
:10200000B4F5805F01D340F6FF740A99066064F36B
:102010000B0145605FEA411C04D5C1F3814C04FA11
:102020000CFC66445FEA011C04D5C1F3415C04FA70
:102030000CFC65444BF828605560D460C160C0F862
:1020400010905FEAC97003D005E04046BDE8F09FFC
:102050003846FEF79FFC0020F8E70000E80F00106C
:10206000004100500040005010B50446082802D33B
:102070004FF0FF3010BDFEF78DFC054800EB44101B
:10208000D0F8101121F00101C0F81011002010BD8E
:1020900000400050082801D300207047074A00EB99
:1020A000800102EB8101064AC96802EB4010D0F8BA
:1020B0000C01C0F30B00081A70470000E80F001075
:1020C00000400050184910B54868401C486001287D
:1020D00001D9002010BD154850F8C41F41F000512F
:1020E00001600020124C134A014600BF04EB40136C
:1020F000C3F8101100EB8003401C42F8231002EBE0
:102100008303082859609960D960EFD3FF20A0604D
:1021100020611A2000F0CBF94FF0E0214FF08060F1
:10212000C1F80001D5E700004001001000C00F40D9
:1021300000400050E80F0010A0F10802082A01D268
:10214000012902D94FF0FF30704701220838824040
:1021500005480029D0F8C41101D0114300E0914393
:10216000C0F8C4110020704700C00F400D4910B5E1
:10217000486820B1401E486004D0002010BD4FF0D8
:10218000FF3010BD084850F8C41F21F00051016015
:102190004FF0E0214FF08060C1F880011A2000F07C
:1021A00086F9EAE74001001000C00F40044A02EB44
:1021B0004010406901228A40104000D00120704741
:1021C00000C0092001238B40034901EB40100AB1F4
:1021D00083617047C361704700C00920054900282A
:1021E00051F8C40F02D040F4004001E020F4004058
:1021F0000860704700C00F4010B5064C012304EB87
:1022000040108B4001680AB1194300E09943016016
:1022100010BD000000C00920826A126890F82000FA
:10222000C24012F0030006D0012806D0022806D0D2
:10223000032807D105E0042104E0012102E0022186
:1022400000E0082102480068B0FBF1F07047000090
:102250004801001002788A4202D3002101707047C1
:10226000521C0270704700000448016A41F030417E
:102270000162016C41F07C010164704700C00920DB
:102280001548416B0A02154904D408228A61426B41
:102290001202FCD5426B920104D410228A61426B77
:1022A0009201FCD5426BD20204D404228A61426BB3
:1022B000D202FCD5426B520104D401228A61426BE6
:1022C0005201FCD5426BD20104D402228A61416BD7
:1022D000C901FCD57047000000C0092000000010B3
:1022E000F8B50120FFF77AFF00240C4D274600BF08
:1022F00005EB440600970023717815F814001A4680
:1023000000F0E0F8717815F814000022FFF774FF70
:10231000641C052CECD30020F8BD0000EC64000028
:10232000F8B50120FFF75AFF00240F4D274600BFE4
:1023300005EB44060097717815F81400032300227A
:1023400000F0C0F8717815F814000122FFF754FF6F
:10235000717815F814000022FFF734FF641C082C74
:10236000E6D30020F8BD0000F664000070B5114C03
:1023700001252563FEF742FF11E000BFFEF7E8FBF1
:10238000FFF77EFFA06904284FF000000FD0FFF791
:1023900019FD084A782159325020FFF7FFF9206BC8
:1023A0000128EBD02570BDE87040FFF7E1BD206348
:1023B000A061F7E70000001070B500250126224C4F
:1023C00008280FD0102824D0042819D16078A561DE
:1023D00098B304F1D400A16800EBC1004068BDE8E7
:1023E0007040004760780028A06804D0002808DD0D
:1023F000A068401E23E00028FADCA5602670A561D5
:1024000070BDFFF737F9FFF799FD0520A0606570F3
:1024100070BD60780028A06804D004280EDAA06897
:10242000401C0CE00428FADBFFF724F9FFF7A0FDBD
:102430004FF0FF30A060667070BD02E00420A06025
:10244000DCE70148AC30C6E70000001070B5114C65
:102450000125A563FEF71AFF11E000BFFEF7F2FBAE
:10246000FFF70EFFA06904284FF000000FD0FFF720
:10247000A9FC084A78215E325020FFF78FF9A06B43
:102480000128EBD02570BDE87040FFF771BDA06357
:10249000A061F7E70000001000F01F020121914049
:1024A0004009800000F1E020C0F88012704700F081
:1024B0001F02012191404009800000F1E020C0F896
:1024C00080127047F0B50024059E0D46102903D3F5
:1024D000A1F11004E5B20124C70007EB8407124CF8
:1024E0003C4427684FEA450C032505FA0CF5AF4339
:1024F0002760276802FA0CF217432760226CAA4370
:102500002264226C03FA0CF31A43226401228A40EB
:102510000549012E01EB8000816E03D09143816655
:102520000020F0BD1143FAE700C0024038B51C4C52
:10253000606C80B35FF0000000F02EFF184D19A111
:102540006D1D68462A78FDF767FE6A46A82160205F
:10255000FFF724F9606C012800D0002000F01CFF78
:102560006A7810A16846FDF757FE6A46A821A020A8
:10257000FFF714F9606C022810D0002000F00CFF67
:10258000AA7808A16846FDF747FE6A46A821E02020
:10259000FFF704F938BDFFE70120CDE70120EDE7A3
:1025A00000000010253032640000000070B51F4CA0
:1025B00000250428616C36D009DC01282FD00228C0
:1025C00004D1022901DA491C6164A56170BD174A72
:1025D000521D082809D01028F8D1B9B1012919D005
:1025E0000229F2D13B21901C16E031B1012908D01B
:1025F0000229EAD13B21901C05E00C481721401D1F
:1026000001E03B21501CFFF725FEDEE707481721BC
:10261000401D01E03B21501CFEF73EFAD5E70029A2
:10262000D3DD491ED0E7E561CFE7000000000010D0
:1026300070B5114C01252564FEF76AFE11E000BF5C
:10264000FEF758FBFFF71CFEA06904284FF00000BE
:102650000FD0FFF7B7FB084A482168328020FFF708
:102660009DF8206C0128EBD02570BDE87040FFF785
:102670007FBC2064A061F7E70000001070B50C4C2F
:1026800001250020E561606400F014F807E000BF58
:10269000FFF74CFFFFF7F4FDA069FFF787FFE06944
:1026A0000128F5D02570BDE87040FFF747BC000059
:1026B0000000001010B5FEF7DDFF4FF47840FFF783
:1026C00081FB00211AA20846FFF768F81F20FFF7D8
:1026D00079FB1CA218210020FFF760F81EA2302110
:1026E0000020FFF75BF821A248210020FFF756F8F1
:1026F000032000F051FE22A278210020FFF74EF8BF
:1027000022A2A8218020FFF749F821A2A821C020F9
:10271000FFF744F81FA2A8214FF48070FFF73EF89E
:10272000D821BDE810401CA20020FFF737B80000F8
:1027300050756D702054696D652053657474696EB1
:10274000673A000050726573733A2055702C446FDD
:10275000776E202020202000202020202020204CC8
:10276000656674202C205269676874002020202040
:10277000202020546F2041646A75737400000000AB
:1027800050756D702054696D653A2000683A0000FC
:102790006D3A000073000000507265737320454E5F
:1027A0005445522052657475726E000010B50024B5
:1027B000094B04280ED0094A0828916806D0102831
:1027C00003D109B1491E91609C6110BDFA29FBD269
:1027D000491CF8E79C64F7E7000000107401001042
:1027E00070B50B4C0125A564FEF7F0FE07E000BFB5
:1027F000FEF7CEFDFFF744FDA069FFF7D7FFA06C01
:102800000128F5D02570BDE87040FFF797BB0000A8
:1028100000000010014A00F069B800005C6500008B
:10282000014900F055BA00005C650000014900F064
:102830005EBA00005C6500000848016CC979490770
:1028400001D40020704790F8341019B190F8350089
:10285000FFF720BC406CC068704700005C6500005A
:1028600006490A6C127962F300000A6C096C52790D
:10287000897962F3410061F3820070475C65000072
:10288000014800F03ABA00005C650000014900F020
:102890009BBA00005C650000014900F0DFBA00004F
:1028A0005C650000014A00F07FBB00005C65000031
:1028B000014A00F00FBC00005C650000014B00F015
:1028C0009FBC00005C650000014800F033BD0000C3
:1028D0005C650000014840687047000054650000D6
:1028E0000148006870470000546500002DE9F84F6A
:1028F0000646106C0F464FF00009C17914464FF0A0
:10290000020ACB4689077DD5F1B200250091142932
:1029100004D0017931B3A81EBDE8F88F2068416862
:1029200021F00201416020684561206C007968B1A6
:1029300094F82C0018B194F82D00FFF795FB94F84B
:10294000340018B194F83500FFF78EFB1C21606C41
:10295000FDF7A6FC206C05712068416841F002017A
:102960004160B1E1009904297ED007DC89B10129D9
:1029700021D0022953D0032908D175E0102939D07C
:1029800011296ED012296DD013296CD06FF003007D
:10299000C2E72068416821F002014160206845617A
:1029A000206C816821F0FF018160106CC17921F0F9
:1029B0000401C17188E12068416821F00201416091
:1029C000206845612068416821F004014160216C64
:1029D000886820F0FF008860216C40F0010088606A
:1029E000206CC17941F00401C1712068416841F057
:1029F00002014160002F05D01046FFF70DFC4FEAA1
:102A0000001C00E085E03B0102210020421C4A43FB
:102A1000BCFBF2F293422AD18A4681463AE0206812
:102A2000416821F0020141602068416841F00401E1
:102A3000416021684FF001004861216C886820F0F6
:102A4000FF008860216C40F002008860206CC17932
:102A500041F00401C1712068416841F00201416008
:102A60002CE033E041E043E06FF0060054E708D982
:102A7000A3EB0B07A3EB0208474502D993468A460E
:102A80008146401CFF28C1D9891CFF29BDD3BBF159
:102A9000000F3ED021680AF0FF000861206801683D
:102AA00021F47F410160206801684FF6FF7303EA5B
:102AB0000922114301600098102818D0216C6FF092
:102AC0000A078868C2B2012A28D062E01046FFF7E0
:102AD000A3FB0146206802690068D2B2C0F3072058
:102AE000401C4243B1FBF2F016E7506C0783EBE069
:102AF0008068764908406FF40021C84209D15068C7
:102B000038B1417800783FB15FF00002FFF75AFB1F
:102B1000DAE04FF0FF30FFE60122F7E716F4C012CB
:102B200009D0B2F5002F17D0B2F5801F37D0B2F51B
:102B3000C01F2ED10DE0606830B1009541780023B0
:102B400000781A46FFF7BEFC206C816821F4C011A2
:102B50001EE020F4C01057E020F4C01088606068C8
:102B6000A8B300954178007803230022FFF7AAFC60
:102B70006068012241780078FFF73EFB606801221F
:102B800041780078FFF71EFB206C816841F400213A
:102B90008160216C8868C2B2022A11D024E020F43E
:102BA000C0108860606890B100954178227D0078FF
:102BB0000323FFF787FC206C816841F48011E7E76D
:102BC00016F4001204D0B2F5001F1ED11AE01CE06A
:102BD00020F4001088606068B8B100954178227DCB
:102BE00000780323FFF76EFC06F4E060B0F5407F49
:102BF0004FD00CDCA0B1B0F5807F1BD0B0F5007FCA
:102C00000BD137E020F400108860384684E6B0F538
:102C1000806F48D0B0F5A06F4CD06FF007007BE616
:102C20002068016821F0300101602068016821F00E
:102C3000C0010DE02068016821F0300101602068CA
:102C4000016821F0400101602068016841F08001C5
:102C50000160C6F30530011F0C2932D821680A68CB
:102C6000401E22F00F0202430A6070032CD56FF061
:102C7000090051E62068016821F0300101602068F8
:102C8000016841F0400101602068016821F0800185
:102C9000DEE72068016821F03001016020680168EA
:102CA00041F0C001D4E72068016821F0300141F013
:102CB0001001CDE72068016821F0300141F02001CA
:102CC000C6E76FF0080027E6002025E6FF001800A1
:102CD00001280BD1486C0268C2600A6C0020107198
:102CE000086C0168002901D00120084770470128BD
:102CF00002D1486C01680161704770B504460068F4
:102D0000C56905F0030101622068C06880071DD510
:102D1000616C0A690868904218D98A687AB1501CB7
:102D2000886011782268126802F00F02072A07D91A
:102D3000626C431C9360007841EA002100E0098B3B
:102D400020688160606C0169491C01612068C1686C
:102D500049072BD58068616C82B2CB6808689842BD
:102D600024D94B686BB1581C48601A7021680968F7
:102D700001F00F01072904D9616C130A421C4A6053
:102D80000370616CC868401CC860616C0968884247
:102D90000CD12068416921F00F014161216C0020B4
:102DA0000871206C016809B101208847E8070AD042
:102DB000216C01204871206C0168002903D0BDE816
:102DC00070400220084770BD38B50C46096CCA79BE
:102DD000D20701D0002038BD0860206C00251C21DE
:102DE0000571206C4571206C8571606CFDF758FA97
:102DF0000095A068627D002341780078FFF762FBB0
:102E0000E06830B100954178A27D00780023FFF79B
:102E100059FB206930B100954178E27D00780023AC
:102E2000FFF750FB94F82C0010B994F8340088B1E7
:102E3000FFF748F994F82C0020B194F82E000021F7
:102E4000FFF77AF994F8340020B194F836000021A5
:102E5000FFF772F9216C0120C871BBE72DE9F04141
:102E6000002501270C46032620B1022848D0281F40
:102E7000BDE8F08194F93C0000F01F018F4040094B
:102E8000800000F1E020C0F88071E0690168A2696B
:102E900011430160206C007968B194F82C0018B1DE
:102EA00094F82D00FFF7E0F894F8340018B194F886
:102EB0003500FFF7D9F82068456120684562206831
:102EC0000560206845602068056120680662E06949
:102ED0000168A2699143016094F93C00FFF7DCFAB4
:102EE000206C1C210571206C4571206C8571606C13
:102EF000FDF7D6F9206CC17921F00201C17150E0D3
:102F0000206CC079C10727D080074AD4E0690168E6
:102F1000A26911430160A06A016894F8202006FAB2
:102F200002F29143016094F82010606A8840A16A1F
:102F30000A68104308602068456120680662206CBA
:102F40000571206C4571206C8571206CC17941F050
:102F50000201C171206803E04FF0FF3088E781680B
:102F6000C1684907FBD494F82C1019B1416A41F0AB
:102F70000201416294F8340020B12068416A41F0B6
:102F80000101416214F93C0FFFF786FA94F9000041
:102F900000F01F018F404009800000F1E020C0F8E0
:102FA0000071002064E70000FEB514460D460200E3
:102FB0000AD04DB1206C4FF0FF36C17949077FD55B
:102FC000017921B17000FEBD6FF00400FEBD01214A
:102FD0000171216C00203E4F4871216C8871616C39
:102FE0000B8B7B604A60616C8860616C0D60616C0A
:102FF000C860616C086194F82C00E8B394F8340060
:10300000D0B394F836103E2303EA41014DF2010398
:103010000B442168A06B0F6807F00F07072F01D939
:10302000012700E00027D1F800C0BF040CF00F0C0E
:10303000BCF1070F02D94FF0010C01E04FF0000C7A
:1030400047EA4C5747F008470097CDE9013094F81C
:1030500035002B460831FEF7A3FF401C30D094F812
:103060002E004FF4F86202EA80104CF60102104480
:103070002268216B136800E024E003F00F03072BA4
:1030800001D9012300E0002317689B0407F00F0714
:10309000072F01D9012700E0002743EA475343F0F7
:1030A00000430093CDE90101094994F82D002B4616
:1030B000091D0832FEF774FF401C00E000E004D157
:1030C0003046FEBD21680F2048610020FEBD000093
:1030D00038010010FEB50D46060014460AD04DB169
:1030E000206C4FF0FF37C17949077DD5017921B1B7
:1030F0007800FEBD6FF00400FEBD01210171216C5E
:1031000000204871216C8871616C4860616C8E6030
:10311000616C0D60616CC860616C086194F82C0092
:10312000F0B394F83400D8B394F836103E2202EA93
:1031300041014DF201020A442168A06B0B6803F0C3
:103140000F03072B01D9012300E00023D1F800C0B1
:103150009B040CF00F0CBCF1070F02D94FF0010CCF
:1031600001E04FF0000C43EA4C5343F0004300935E
:10317000CDE9012094F835002B46204A0831FEF7AE
:103180000FFF401C33D094F82E004FF4F86202EA8F
:1031900080104CF6010210442268216B136800E095
:1031A00027E003F00F03072B01D9012300E00023E0
:1031B000D2F800C09B040CF00F0CBCF1070F02D931
:1031C0004FF0010C01E04FF0000C43EA4C5343F088
:1031D00004430093CDE9010194F82D002B463146BC
:1031E0000832FEF7DDFE00E001E0401C04D1384665
:1031F000FEBD11680F2048610020FEBD380100109F
:10320000FEB515460A4606001C460BD052B14DB11C
:10321000206C4FF0FF37C179490771D5017921B191
:103220007800FEBD6FF00400FEBD01210171216C2C
:1032300000204871216C8871616C4A60616C8E60FD
:10324000616C0D60616CC860616C086194F82C0061
:10325000E8B394F83400D0B394F836103E2303EA70
:1032600041014DF201030B442168A06BD1F800C06D
:103270000CF00F0CBCF1070F02D94FF0010C01E06C
:103280004FF0000CD1F800E04FEA8C4C0EF00F0E1E
:10329000BEF1070F02D94FF0010E01E04FF0000E12
:1032A0004CEA4E5C4CF0084CCDF800C0CDE9013042
:1032B00094F835002B460831FEF772FE401C32D0E0
:1032C00094F82E104FF4F86202EA811100E02CE02D
:1032D0004CF6010211442268206B136803F00F03BF
:1032E000072B01D9012300E00023D2F800C09B0482
:1032F0000CF00F0CBCF1070F03D94FF0010C02E0EA
:1033000011E04FF0000C43EA4C5343F004430093A8
:10331000CDE9011094F82D002B4631460832FEF716
:103320003FFE401C04D13846FEBD19680F2048619D
:103330000020FEBD38B504464068002530B1009538
:103340004178002300781A46FFF7BCF80095A06882
:1033500000231A4641780078FFF7B4F8E06830B1EE
:1033600000954178002300781A46FFF7ABF82069F2
:1033700030B100954178002300781A46FFF7A2F893
:1033800094F82C0010B994F8340008B1FEF7EEFE62
:10339000206CC571002038BD10B54FF6FF740328AE
:1033A0000CD0022810D0012814D02046FEF7FEFCD5
:1033B0004FF4C060BDE81040FEF704BD2046FEF7A4
:1033C000F5FC41F2E210F5E74CF21860FEF7EEFC76
:1033D0002046EFE74EF65D70FEF7E8FC1F20E9E7B8
:1033E000094A012111FA00F152E8000F014204D00C
:1033F000BFF32F8F4FF0FF307047084342E80003C0
:10340000002BF1D1002070474001001070B530480A
:103410002021C0F8A011D0F8A011890604D500BF62
:10342000D0F8A0114906FBD50325C0F804510023AC
:10343000C0F8A831C0F8AC310124C0F80C412549CE
:10344000C0F88410AA22C0F88C205521C0F88C1036
:10345000C0F88040C0F88C20C0F88C10D0F888608C
:103460007601FBD5C0F88050C0F88C20C0F88C10D5
:10347000D0F88860C6F30166032EF9D12326C0F880
:10348000A460C0F8AC20C0F8AC10C0F8A040C0F8F0
:10349000AC20C0F8AC1000BFD0F8A8406405FBD544
:1034A000C0F8A050C0F8AC20C0F8AC10D0F8A810FC
:1034B000C1F301210329F9D10749C0F8C410C0F8AC
:1034C000C831016821F4704141F48041016070BD50
:1034D00000C00F4063000500DE87280470B5114C62
:1034E00001256563FDF7D6FF11E000BFFDF76EFD16
:1034F000FEF7C6FEA06904284FF000000FD0FEF7CB
:1035000061FC084A782198325020FEF747F9606B39
:103510000128EBD02570BDE87040FEF729BD60633F
:10352000A061F7E70000001070B50C4C01250020E9
:10353000C4E90350FDF7CAFC07E000BFFDF7B4FD86
:10354000FEF79EFEA06900F00BF8E0680128F5D0B8
:103550002570BDE87040FEF7F1BC000000000010CF
:1035600070B51F4C00250428216936D009DC0128DC
:103570002FD0022804D1022901DA491C2161A5615A
:1035800070BD174A921C082809D01028F8D1B9B18B
:10359000012919D00229F2D13B21901C16E031B14A
:1035A000012908D00229EAD13B21901C05E00C48F2
:1035B0001721801C01E03B21501CFEF74BFEDEE78B
:1035C00007481721801C01E03B21501CFDF764FADD
:1035D000D5E70029D3DD491ED0E7E560CFE700003D
:1035E0000000001008B58A7800924B780A7802A192
:1035F000FCF712FE08BD0000253032643A25303257
:10360000643A2530326400000A49002002228870A2
:1036100048700870C91C88704A7008700649C82232
:103620004A601E228A6008734A7302496E3108712B
:103630000860704702000010740100100B48817888
:10364000491CC9B281703C290FD100218170427898
:10365000521CD2B242703C2A07D141700278521CEF
:10366000D2B20270182A00D1017070470200001017
:10367000FFF7E4BF70B5114C0125E563FDF758FF76
:1036800011E000BFFDF750FDFEF7FAFDA069042828
:103690004FF000000FD0FEF795FB084A4821633237
:1036A0008020FEF77BF8E06B0128EBD02570BDE8A9
:1036B0007040FEF75DBCE063A061F7E7000000101A
:1036C00070B51F20FEF77EFB114C0125E562FEF769
:1036D00035FCFDF77FFE0EE0FDF76AFFFDF76CFE9F
:1036E000FDF7E2F9FDF7A6FBFEF7CAFDA069042885
:1036F00009D0FDF7D9F9E06A0128EDD02570BDE8C1
:103700007040FEF71BBC0020E062A061F6E70000FD
:103710000000001010B5002A06DA22F00042D21D87
:1037200022F00703102203E0D21C22F003030C2234
:1037300013B19C188C4201D9012010BD02440144F0
:103740008360C0E90021C91AD018884202D81060ED
:103750000246F9E70020106010BD30380A2801D277
:10376000012070470020704705490978002905D0DD
:1037700000684FF6FF71DFF80CC000DF70470000F3
:103780004D010010A943000004490978002903D025
:103790000068DFF80CC000DF704700004D0100102A
:1037A000D1420000074910B1487B401E07E0D1E933
:1037B0000002904202D9002008737047087A4873CB
:1037C000704700007401001008480068C0010BD564
:1037D00007480068C00707D00548803800680028FF
:1037E00002DA04490120087070470000FCED00E097
:1037F000800E00E0700100104FF06042D36F002B8C
:10380000FCD0036BD367D36F002BFCD0C07840EAA9
:103810000120A2F87C0070474FF06041CA6F002A77
:10382000FCD081F87C00704709490968890B414345
:103830000DD000BF00BF00BF00BF00BF00BF00BF72
:1038400000BF00BF00BF00BF00BF491EF1D17047DD
:10385000480100100EB5802200B109B110460AE0FF
:1038600001780129FAD101A900F020F8042801D03B
:10387000002000E01020DDE9011203B000BD70B5AA
:103880000D46040003D012B92078012801D0802011
:1038900070BD204600F016FC28B12946204600F0F5
:1038A0002EF8002070BD812070BD000010B50446C8
:1038B0008089002822D0608904EB800000690860BC
:1038C0006078022805D10021204600F0EFFD00F0CD
:1038D000DDFD04F10C0000BFD0E85F1F491E8AB275
:1038E000C0E8512F0029F7D16089401C80B2608167
:1038F000E189884201D100206081042010BD10B50B
:1039000000F0D4FDBDE8104000F0C0BD02484FF00B
:10391000FF31C163C165704700C0092001228A40A0
:103920000349012801D08A6570478A637047000007
:1039300000C00920002201211F4800F069F91F4C36
:103940002065FEF791FC206D18B14FF47A7100F0FC
:1039500079F9FCF7C9FFFDF751FFFEF7C1FCFEF74F
:10396000DFFCFFF751FE4FF6FF70FEF71FFA4FF432
:103970007840FEF727FA1248FEF71EFAFEF7DEFA45
:10398000FEF770FA0F4850F8C41F41F480510160EF
:103990000E490D4808600E48416841F4802141609D
:1039A0000025207810B1FEF75DFA2570FEF768FC5F
:1039B000A069FEF701FDF4E7D44F000000000010FD
:1039C000DC64000000C00F40040120000040034000
:1039D00000C0024010B50020FEF7F4F904A2D8217F
:1039E0000020FDF7DBFEBDE81040FFF79DBD0000A5
:1039F0004131000010B50020FEF7E4F904A2D821FF
:103A00000020FDF7CBFEBDE81040FEF711BE000020
:103A10004131300010B50020FEF7D4F904A2D821BE
:103A20000020FDF7BBFEBDE81040FEF727BE0000FA
:103A30004132000010B50020FEF7C4F904A2D821DD
:103A40000020FDF7ABFEBDE81040FEF7C9BE000048
:103A50004133000010B50020FEF7B4F904A2D821CC
:103A60000020FDF79BFEBDE81040FCF779BF000089
:103A70004134000010B50020FEF7A4F904A2D821BB
:103A80000020FDF78BFEBDE81040FFF719BE0000D7
:103A90004135000010B50020FEF794F904A2D821AA
:103AA0000020FDF77BFEBDE81040FEF75FBC000084
:103AB0004136000010B50020FEF784F904A2D82199
:103AC0000020FDF76BFEBDE81040FFF707BD0000CA
:103AD0004137000010B50020FEF774F904A2D82188
:103AE0000020FDF75BFEBDE81040FEF7AFBC000014
:103AF0004138000010B50020FEF764F904A2D82177
:103B00000020FDF74BFEBDE81040FFF7B3BD0000FD
:103B100041390000EFF3058008B182207047EFF3D0
:103B20001480C00703D0DFF80CC000DF704701F03D
:103B30005FB80000F14B000088B0EFF3058010B1D2
:103B4000822008B07047EFF3148010F0030113488F
:103B500006D001291BD0022911D0032919D113E065
:103B600008A981F309880078C0070BD05FF0020034
:103B700080F31488BFF34F8FBFF36F8F09E0007895
:103B8000C00706D10320F3E70078C00701D0FF206B
:103B9000D7E7DFF80CC000DFD3E7000014650000B2
:103BA000614C0000EFF305820AB1FFF753BEDFF866
:103BB00008C000DF70470000CD4C0000EFF3058225
:103BC0000AB100207047EFF31482064B02F00102A5
:103BD0005B781A4303D0DFF810C000DF704701F0B4
:103BE00093B800004C010010094D0000DFF80CC034
:103BF00000DFDFF80CC000DFFEE70000794D0000B9
:103C0000954D0000DFF804C000DF7047CD4D000087
:103C100030B4EFF3058313B1002030BC7047EFF3ED
:103C20001483064C03F001036478234303D0DFF8C8
:103C300010C000DFF1E730BC01F0D4B84C01001037
:103C4000E54D0000EFF305820AB182207047DFF8EE
:103C500008C000DF704700001D4E0000094C4FF007
:103C6000FF3529462068FFF79DFF02460846102AC7
:103C7000F7D1FFF7C7FF0028F3D002460846904768
:103C8000EFE700002C010010FEE7FEE7074801689F
:103C90004FF0E0204161002181610721016104486A
:103CA000016841F07F4101604017704710650000D6
:103CB00020ED00E07047000038B50025294C009544
:103CC0000223617820782A46FEF7FCFB0095E17814
:103CD000A07802230022FEF7F5FB00956179207998
:103CE00002230022FEF7EEFB0095E179A079022382
:103CF0000022FEF7E7FBE178A0780122FEF77CFACC
:103D0000617820780122FEF75DFAE178A07801223F
:103D1000FEF758FA617820780022FEF753FA012165
:103D2000702000F027FF0121002000F023FF6178C0
:103D300020780122FEF746FA617820780022FEF70B
:103D400041FA0121732000F015FF0021084600F020
:103D500011FF0546617820780122FEF733FA2846E4
:103D600038BD00000C01001050E8001F31B10B6895
:103D700040E80032002AF7D108467047BFF32F8F82
:103D8000FAE710B568B161B10B3121F003020168A7
:103D900044680B1A1B1B934205D208460968002988
:103DA000F5D1002010BD210007D021180368C1E91A
:103DB0000032016001F1080010BD4260083010BD02
:103DC00070B50D46002812D04FF6FF71084C88429E
:103DD00004D222680146104600F096FB2068457028
:103DE000044800F0D9F8BDE8704000F051BC70BD47
:103DF00054010010BC1000100F4810B50D49426866
:103E00000E480B680068934204D00A60CB88421EBB
:103E10001A448A808A8880B282420AD100200860CF
:103E2000054800F0B9F80146BDE81040024800F02E
:103E30008FBB10BD68010010BC10001064010010A1
:103E400070B5194DE86800282CD0A88A401EA882B9
:103E5000002621E0A06838B161684160606810B157
:103E6000A16881606660A6600F482146183800F09E
:103E70006FFBA08AA8826078042804D10B49E08AED
:103E800009880844A08201206070E068E860E0686A
:103E900008B10561E6602661A88A002802D1EC68B5
:103EA000002CD7D170BD0000D410001064010010A8
:103EB00070B504000FD00D4DA178012628688278D6
:103EC00091420CD900F060FB286846702046BDE89E
:103ED000704000F0DDBB064800F05EF8F7E7667062
:103EE0002146BDE87040024800F032BB540100108A
:103EF000BC10001010B50446008B08432083627884
:103F0000618B062A18D0052A19D1084217D001EA78
:103F10000002628388432083204600F060FB01207A
:103F20006070628B0821204600F055FB2146BDE8F9
:103F30001040034800F00CBB31EA0002EAD010BD8B
:103F4000BC100010814202D342688A4201D801208D
:103F5000704702680A60BFF35F8F50E8003F0A684D
:103F60009A42F6D140E80012002AF2D100207047B0
:103F700068B161B10022083902E00246006830B140
:103F80008842FAD12AB100681060002070470120F1
:103F9000704700214160F8E70146406842684A6086
:103FA0000B780022022B05D0012B03D0032B01D06C
:103FB0004260704743680BB199604260826070470D
:103FC000810700D00020704770B5044600201546D8
:103FD000207001226270A17084F824106060A060DB
:103FE000E06020612062A082E0822083608384F808
:103FF0002500E08C18B90548FFF7B6FEE0622946B7
:104000002046BDE8704000F01DB8000038030010E5
:1040100008B1082901D2012070470144091F00227C
:1040200001600A60426010467047000003480021AA
:10403000016003490988C1807047000068010010D1
:104040000C65000070B5C28C1C4D930802D12A8803
:10405000C2F38D03C26A02EB8302540700D5121F1C
:104060004FF0807442E9021400242646B2F1400267
:1040700042F82460641C0E2CFAD3C4691462826274
:1040800001632968C90014D5112B12D94FF0FF31F3
:10409000103B11EB53014FF0CC3305D042F8043CF8
:1040A00042F8083D491EF9D1C16A121F8A4200D95F
:1040B0001360C06A0249016070BD0000086500001D
:1040C000A52E5AE2C1898089081A70470122027020
:1040D00000224270827042600281428110398281E6
:1040E0008908C181704700002DE9F041044640680D
:1040F0000E464FF0000804F10C05E8B36078012784
:1041000001283ED0022813D003285CD10846FFF7CF
:104110002BFE050057D02046FFF73EFF04462946F8
:1041200000F056FA6770204600F059FA214621E067
:104130002046FFF731FF0646002100F049FA2189A9
:10414000F06904EB81010861D5E85F0F401C81B282
:10415000C5E8501F0028F7D12089401C80B220817B
:10416000E189884201D1A4F808807770304600F0D8
:1041700036FA3146174800E00CE0BDE8F04100F0A7
:10418000E7B92046FFF708FF04463246102100F049
:1041900022FAC7E7A089E189884216D2208904EB78
:1041A00080000661D5E85F0F401C81B2C5E8501F52
:1041B0000028F7D12089401C80B22081E189884203
:1041C00001D1A4F80880BDE8F081BDE8F0410320EA
:1041D000FFF75ABDBC10001070B504468089154623
:1041E0000026C0B3608904EB800000690860608924
:1041F000401C80B26081E189884200D1668160689C
:1042000010B1607802280BD014F10C04D4E85F0FD1
:10421000401E81B2C4E8501F0028F7D1002070BDB5
:104220002046FFF7B9FE0546002100F0D1F92189AB
:10423000E86904EB810108612089401C80B220817B
:10424000E189884200D12681284600F0C8F9284635
:10425000FFF72EFEE2E7FFE73DB10B486268016819
:104260002AB1204600F074F908E0012070BD6160B9
:1042700001684E6000688460012060700821284653
:10428000FFF79EFDF1E7000054010010002814D054
:10429000411C13D00C4A4FF6FE7190420CD800EB33
:1042A0004002C2EBC0120948036803EBC202521E6F
:1042B000B2FBF3F0884204D9084670474FF6FF700E
:1042C000704780B27047000000093D002065000083
:1042D0002DE9F0410446408820B1314DA1682A689B
:1042E000914202D0FF20BDE8F081401E0004000C86
:1042F000608053D12968086AA04209D1E068086249
:1043000008E0C268A24202D1E268C26002E0104640
:104310000028F6D191F824000A6A06E053681BB120
:104320009B78834200D91846D268002AF6D188705B
:10433000DFF870806168012611B32046FFF72CFE7C
:104340000746002100F044F9384600F048F966803D
:10435000A760386AE0603C622968D8F804008A786F
:104360008078824201D3384616E00E4800F0F0F81B
:1043700039460C4800F0ECF8286846707E700AE078
:10438000D8F804108A782968824207D9054800F0D5
:10439000DFF8286846700020FFF78AFD0020A2E7BA
:1043A00054010010BC10001070B5184D0E460446A4
:1043B0004188286839B1A168814209D16088401CD0
:1043C0006080002070BDA060016AE1600462F5E7D2
:1043D00076B18A788078824203D28870A06800F033
:1043E000DDF8606830B12046296800F0B1F808E0D7
:1043F000012070BD28686060296800204860286836
:10440000846009213046FFF7DBFCF1E7540100101E
:1044100070B51B48012102685170006800F0B4F8C3
:10442000184D6C7818E000BF05EBC40148680278AD
:10443000EAB1012A20D000F0FFF8E878641C844239
:1044400000D100240F48801CD0E84F1F491EC9B27C
:10445000C0E8421F002AF7D1A8780028E4D16C7088
:104460000948FFF799FDBDE8704000F011B90989CE
:1044700089B2FFF73FFDE0E78968FFF735FEDCE72B
:1044800054010010200F0010BC10001005480178E6
:1044900011B101214170704703494FF0805008600D
:1044A000704700005C01001004ED00E0F0B4154D11
:1044B000AB1CEE784FEA0507D3E84F2FB24202D18A
:1044C000BFF32F8F11E0521CD4B2C3E8424F002A31
:1044D000F2D100BFD7E84F2F541CB44200D10024C2
:1044E000E4B2C7E8434F002BF4D1EB78934205D9EF
:1044F00005EBC202C2E90101F0BC7047F0BC02202A
:10450000FFF7C2BB200F0010104A10B5D368ABB143
:1045100013469B8A03E08CB12246A48A2344D468C4
:104520008B42F8D3C460D0600261C46804B12061DA
:10453000591A8182908A401A908210BD0024C4606A
:10454000D060C91A02619182848210BDD41000101B
:1045500030B502780023022A03D0012A01D0032AB1
:1045600000D101238C7800E01046426812B19578A2
:10457000A542F9D24A6041601BB102B191608860E6
:1045800030BD0020FBE7000003494A68426000227A
:104590008260486070470000BC10001010B583684E
:1045A00004462BB9607801280ED1084B03E09B68C4
:1045B00018780028FBD0204600F026F82146BDE8F8
:1045C00010401846FFF7C4BF10BD0000BC1000101B
:1045D000806A01627047806AC0E90812704710B5AE
:1045E000016900290ED0C268CA60C36800223BB1CD
:1045F0008B8A848A23448B82C3681961C26000E07D
:104600008A82026110BD0000816839B142684A6047
:104610004168002901D0806888607047054906E03C
:104620004A68824202D140684860704711460029BA
:10463000F6D17047BC10001010B5416881B1FFF78A
:10464000ABFC0446FFF7CBFF01206070014620461B
:10465000FFF7BEFF2146BDE810400348FFF778BFD3
:104660004188491C418010BDBC10001006480068FC
:10467000D0E90A10814203D300680449884202D07D
:104680000120FFF701BB704754010010A52E5AE22C
:104690000749022248604270064A1278002A05D073
:1046A00006C98A4202D0C078FFF7B6B8704700004A
:1046B000540100107001001070B5FFF785F800205C
:1046C0000446204A204902E042F82040401C0B8862
:1046D0009842F9D31D48342201881D48FFF71AF883
:1046E0001C48008880B240F000421B4801681B480B
:1046F000FFF710F81A48082201881A480068FFF7E7
:1047000009F8194DFF20194AE870EC840021284669
:10471000FFF75AFC164804210170446015480170E7
:10472000C4600461848214481549056002206870E1
:104730001248047044700978C170BDE87040FFF7FA
:1047400075BC0000A40F001006650000286500007D
:10475000BC010010086500002C6500003803001043
:104760005065000014010010881000108B3C000000
:10477000BC100010D410001054010010200F0010C5
:10478000346500001B4810B5016841F47F010160E9
:1047900000684FF07F4101EA00201649C0431439F8
:1047A000B0FA80F00968C0F10800C1F3022181422B
:1047B00000D3481C0F49091F0B686FF080728240BC
:1047C00063F317020A60FFF761FA0B4900280860DB
:1047D0000EDB00F1E021FF2281F8002400F01F022F
:1047E000012191404009800000F1E020C0F8001153
:1047F00010BD000020ED00E0600100100C4810B575
:104800000268012151700068FFF7BEFEFFF7F4FA5D
:1048100008480168491C0160FFF712FB00F030FBFB
:104820000548FFF7B9FBBDE81040FFF731BF0000B6
:104830005401001064010010BC100010002805D0C5
:10484000810702D10178002900D0002070470000C4
:1048500030B50B4C0023626805E095688D4204D8A2
:1048600013461268491B002AF7D10260816012B119
:104870009568691A91600BB1186030BD606030BDF9
:104880004C0100100D4B0022596803E0814204D016
:104890000A4609680029F9D104E019B1016822B17A
:1048A000116003E04FF0FF3070475960016819B1A3
:1048B0008A68806810448860002070474C010010AE
:1048C0002DE9F0411E46174680460D4611F0FF0FB8
:1048D00000D14D1C1848FFF747FA041E16D0280ACD
:1048E000E762E084E9B242462046E661FFF76CFBEE
:1048F00001251248124905E000EB850252F8042C0C
:1049000032B16D1C0A889542F6D90020BDE8F081CD
:10491000002DFAD000EB850040F8044C0948E57002
:10492000007818B101212046FEF766FF2046FFF708
:10493000BFFA2846EAE70000BC010010A40F0010EF
:1049400006650000700100102DE9F05F584DDFF89A
:104950005891DFF8588129684FF0010A002618B1F4
:10496000CA78AB46824243D14E70FBF7CCFC296833
:104970008862FFF77BFE2868046A1FE06068C0B1A8
:104980002046FFF709FB07460021FFF721FE3846C6
:10499000FFF725FE87F801A039464648FFF7D8FD06
:1049A000E168A4F802A0A760386AE0603C620C46A7
:1049B00004E0E0686680A660E6600446002CDDD175
:1049C0002868C27808EB820141F8046CC16A3A4851
:1049D000FFF7B8FA2868C66299F8001011B10021F3
:1049E000FEF70AFF35482968FFF7ACFA2E6056E05B
:1049F0003349098888420CD808EB800858F8045CD1
:104A00003DB12846FFF700FE2846FFF7E8FD2C6A77
:104A100022E0FF20BDE8F09F6068C0B12046FFF7AC
:104A2000BBFA07460021FFF7D3FD3846FFF7D7FD55
:104A300087F801A039461F48FFF78AFDE168A4F80E
:104A400002A0A760386AE0603C620C4604E0E068BF
:104A50006680A660E6600446002CDDD148F8046C50
:104A60001548E96AFFF76EFAEE6299F8000018B18E
:104A700000212846FEF7C0FE29461048FFF762FADB
:104A80000C48DBF8001040688B7882789A4209D98C
:104A900081F801A00748DBF80010FFF759FD00205E
:104AA000FFF706FA0020B5E770010010A40F001010
:104AB00054010010BC10001038030010BC0100109D
:104AC0000665000070B51A4D80B11A4A12889042EE
:104AD0001FD8194A02EB800050F8044CCCB1A170E9
:104AE00084F824102868A04205D014E0286881705A
:104AF000286880F82410114840688078884215D9C9
:104B00000E482968FFF724FD29680120487000201D
:104B10000AE0FF2070BD2046FFF740FD60780128C5
:104B200004D10648FFF738FAFFF7C2F9002070BD3C
:104B30005401001006650000A40F0010BC10001006
:104B400002480068002800D0C07870475401001067
:104B500011B5074C81B00122E369694601A8984765
:104B6000A06A8047C007FBD19DF800001CBD000073
:104B7000A46500002DE9F04100260F46804601297A
:104B800024D00022194CE179A079FDF735FB0725E7
:104B9000E178A0780022FDF715FB0120FEF744FE26
:104BA000012F15D0E179A079FDF700FBA840304333
:104BB000C6B2E178A0780122FDF704FB0120FEF7E0
:104BC00033FE6D1EE4D53046BDE8F0810122D9E701
:104BD0000120A84010EA080F01D0012200E00022C5
:104BE000E179A079FDF7EEFAE3E700000C0100108F
:104BF00010B5134C207860B91248400705D112480F
:104C000001681048FFF704FA08B1852010BDFFF7CE
:104C100053FD0E49FF2009688870207858B900219B
:104C20000B4800F041F80B49086000210A4800F0E9
:104C30006BF80A490860012020700020607010BDE8
:104C40004C010010A80C0010306500005401001049
:104C5000486500002C010010386500002801001094
:104C600070B50F4D687808B1002070BD0D4C2068FC
:104C700090F824100020FFF725FF2068C178FF2955
:104C800003D1816A203181F30988616811B96060BC
:104C900000202060FFF776FD01206870E4E7000047
:104CA0004C0100105401001010B5040005D021681B
:104CB00019B1606808B102780AB1002010BD8900FE
:104CC000103189B2FFF702FA606810BD3EB50400EA
:104CD0000D464FF0800012D0217801290FD12846CF
:104CE000FFF7D4FA0246204601A9FFF775FA01281A
:104CF00001D0102003E00DB1402000E00020DDE9EC
:104D0000011203B030BD000070B50E4604002BD078
:104D1000206848B3B4F9040010F1030F24DB032822
:104D200022DCE16829B11148FFF72BF805001BD000
:104D300000E00025B4F90400E168001D40EA01210B
:104D400033462A462068FFF7BBFD40B1084901EB16
:104D50008000084950F8040C826A516370BD1DB18F
:104D600029460248FFF704F9002070BDA80C001086
:104D7000A40F0010ED3B000010B5FFF7E1FE002886
:104D800004D0034901EB800050F8040C10BD000072
:104D9000A40F001010B5FFF751FD18B1C18C19B167
:104DA000C46A02E0802010BD0024C078FFF7CCFD6B
:104DB000FF2806D01CB121460348FFF7D9F8002090
:104DC00010BD812010BD0000A80C001010B5FFF729
:104DD000F7F820B141690A680169104610BD00204A
:104DE000014610BD10B503000CD0186850B15868CA
:104DF000002808D009B1012904D1074C24680CB15E
:104E000004790CB1002010BD002404600124047159
:104E10004171C0E9042310BD2801001070B50E4691
:104E2000FFF7CEF8040016D0BEB1144A00214FF4AB
:104E30007A7310681268401E41F1FF35E6FB0305E6
:104E400029460023FBF7F4FA0546207901280CD007
:104E5000022808D103E0802070BD862070BD204666
:104E6000FFF710FD20B1812070BD02202071E560A8
:104E700029462046FFF7ECFC002070BD20650000AD
:104E80002DE9F041134E7468002C1CD0A068124F1D
:104E9000401E4FF00108A06012E0254624687460AF
:104EA000002229463868FEF7EAFC10B10420FEF71C
:104EB000EBFE6879012808D085F80480002C02D028
:104EC000A0680028E9D0BDE8F0812846E968FFF72E
:104ED000BFFCF3E74C0100102C01001038B50D4C5D
:104EE00005460121626A1320904770208DF800006A
:104EF00000208DF801008DF8025062690321684698
:104F00009047A06A8047C007FBD10021626A132046
:104F1000904738BDA465000038B5010A8DF800102F
:104F2000054C8DF801000221626968469047A06A2D
:104F30008047C007FBD138BDA4650000054810B507
:104F40000121426A13209047BDE810407220FFF70C
:104F5000FFBD0000A465000002480021426A132042
:104F600010470000A465000038B50D4670218DF88B
:104F70000010010A8DF80110154C8DF80200012176
:104F8000626A132090476269032168469047A06ACD
:104F90008047C007FBD10021626A1320904772202E
:104FA0008DF80000280A8DF801008DF802500121CB
:104FB000626A132090476269032168469047A06A9D
:104FC0008047C007FBD10021626A1320904738BD9B
:104FD000A46500007136000084010010000000008C
:104FE00000000000000000000000000000000000C1
:104FF00000000000000000000000000000000000B1
:10500000000000000000000000000000000080011F
:105010008001800180018001800180018001800188
:10502000800180018001800100000000800180017A
:105030000000000000000000000000000000000070
:10504000CC00CC00CC00CC00CC00CC000000000098
:105050000000000000000000000000000000000050
:105060000000000000000000000000000000000040
:105070000000000000000000600C600C600C3006B6
:105080003006FE1FFE1F300638071803FE1FFE1FE6
:10509000180318038C018C018C01000000008000B3
:1050A000E003F80F9C0E8C1C8C188C009800F80103
:1050B000E007800E801C8C188C189C18B80CF00F20
:1050C000E0038000800000000000000000000000FD
:1050D00000000E181B0C110C110611061103110310
:1050E0009B018E01C038C06C604460443044304441
:1050F0001844186C0C380000000000000000E001AB
:10510000F0033807180618063003F001F000F80025
:105110009C310E33061E061C061C063FFC73F02154
:10512000000000000000000000000000000000007F
:105130000C000C000C000C000C000C000000000027
:10514000000000000000000000000000000000005F
:10515000000000000000000000000000000000024D
:1051600000038001C000C00060006000300030001B
:10517000300030003000300030003000600060004F
:10518000C000C000800100030002000000002000F9
:105190006000C000800180010003000300060006DB
:1051A00000060006000600060006000600030003D5
:1051B00080018001C00060002000000000000000AD
:1051C0000000000000000000C000C000D806F80782
:1051D000E00130033807000000000000000000007C
:1051E00000000000000000000000000000000000BF
:1051F00000000000000000008001800180018001AB
:105200008001FC3FFC3F8001800180018001800122
:10521000000000000000000000000000000000008E
:10522000000000000000000000000000000000007E
:1052300000000000000000000000000000008001ED
:10524000800100010001800000000000000000005B
:10525000000000000000000000000000000000004E
:1052600000000000E007E007000000000000000070
:10527000000000000000000000000000000000002E
:10528000000000000000000000000000000000001E
:105290000000000000000000000000000000C0004E
:1052A000C000000000000000000000000000000C32
:1052B000000C000600060006000300030003800344
:1052C000800180018001C000C000C000600060005B
:1052D0000000000000000000000000000000E003EB
:1052E000F007380E180C0C180C180C180C180C18A9
:1052F0000C180C180C180C18180C380EF007E003DA
:10530000000000000000000000000000000000019C
:105310008001C001F00198018801800180018001B5
:105320008001800180018001800180018001800175
:105330000000000000000000000000000000E0038A
:10534000F80F180C0C180C1800180018000C0006A8
:1053500000038001C000600030001800FC1FFC1F2B
:105360000000000000000000000000000000E0015C
:10537000F807180E0C0C0C0C000C0006C003C0073C
:10538000000C001800180C180C18180CF807E00393
:105390000000000000000000000000000000000C01
:1053A000000E000F000F800DC00C600C600C300C64
:1053B000180C0C0CFC3FFC3F000C000C000C000C0B
:1053C0000000000000000000000000000000F80FD6
:1053D000F80F180018000C00EC03FC071C0E001C52
:1053E0000018001800180C181C0C180EF807E00321
:1053F0000000000000000000000000000000C007E6
:10540000F00F381C181818000C00CC03EC0F3C0EE1
:105410001C1C0C180C180C18181C380EF007E00394
:105420000000000000000000000000000000FC1F61
:10543000FC1F000C00060006000380038001C00171
:10544000C000E000600060007000300030003000FC
:105450000000000000000000000000000000E00369
:10546000F007380E180C180C180C3806F007F00767
:10547000180C0C180C180C180C18380CF80FE0034A
:105480000000000000000000000000000000E00339
:10549000F007380E1C0C0C180C180C181C1C381EAD
:1054A000F81BE0190018000C000C1C0EF807F001A6
:1054B00000000000000000000000000000000000EC
:1054C00000000000000000008001800100000000DA
:1054D00000000000000000000000000080018001CA
:1054E00000000000000000000000000000000000BC
:1054F00000000000000000008001800100000000AA
:105500000000000000000000000000008001800199
:105510000001000180000000000000000000000009
:105520000000000000000000000000000010001C4F
:10553000800FE003F8001800F800E003800F001C63
:10554000001000000000000000000000000000004B
:10555000000000000000000000000000F81F000034
:1055600000000000F81F0000000000000000000024
:10557000000000000000000000000000000000002B
:1055800000000000000000000000000008003800DB
:10559000F001C007001F0018001FC007F00138000D
:1055A0000800000000000000000000000000E00310
:1055B000F80F180C0C180C180018000C000600034B
:1055C0008001C000C000C00000000000C000C0009A
:1055D00000000000000000000000000000000000CB
:1055E000E00718180420C229224A1144094409443A
:1055F000094409221113E20C024004201818E007A4
:105600000000000000000000000000000000800317
:105610008003C006C006C006600C600C301830184D
:105620003018F83FF83F1C700C600C6006C006C0D4
:105630000000000000000000000000000000FC036B
:10564000FC0F0C0C0C180C180C180C0CFC07FC0FA5
:105650000C180C300C300C300C300C18FC1FFC07F4
:105660000000000000000000000000000000C00773
:10567000F01F38381C300C7006600600060006006B
:1056800006000600060006600C701C30F01FE007E4
:105690000000000000000000000000000000FE0309
:1056A000FE0F060E061806180630063006300630C5
:1056B00006300630063006180618060EFE0FFE03EA
:1056C0000000000000000000000000000000FC3F9F
:1056D000FC3F0C000C000C000C000C00FC1FFC1F1D
:1056E0000C000C000C000C000C000C00FC3FFC3FFC
:1056F0000000000000000000000000000000F83F73
:10570000F83F18001800180018001800F81FF81FBC
:1057100018001800180018001800180018001800C9
:105720000000000000000000000000000000E00F8A
:10573000F83F3C780E6006E007C00300030003FE5C
:1057400003FE03C007C006C00EC03CF0F83FE00FE8
:1057500000000000000000000000000000000C300D
:105760000C300C300C300C300C300C30FC3FFC3F5B
:105770000C300C300C300C300C300C300C300C3049
:105780000000000000000000000000000000800198
:105790008001800180018001800180018001800101
:1057A00080018001800180018001800180018001F1
:1057B00000000000000000000000000000000006E3
:1057C00000060006000600060006000600060006A9
:1057D000000600060006180618063807F003E00168
:1057E0000000000000000000000000000000063083
:1057F0000618060C060606038601C600660076003B
:10580000DE008E0106030606060C0618063006604A
:105810000000000000000000000000000000180070
:1058200018001800180018001800180018001800B8
:10583000180018001800180018001800F81FF81FAA
:1058400000000000000000000000000000000EE06A
:105850001EF01EF01EF036D836D836D836D866CCB4
:1058600066CC66CCC6C6C6C6C6C6C6C686C386C312
:1058700000000000000000000000000000000C30EC
:105880001C303C303C306C306C30CC30CC308C3107
:105890000C330C330C360C360C3C0C3C0C380C30F6
:1058A0000000000000000000000000000000E00711
:1058B000F81F1C380E70066003C003C003C003C08D
:1058C00003C003C003C006600E701C38F81FE00759
:1058D0000000000000000000000000000000FC0FBD
:1058E000FC1F0C380C300C300C300C300C18FC1F2A
:1058F000FC070C000C000C000C000C000C000C0051
:105900000000000000000000000000000000E007B0
:10591000F81F1C380E70066003E003C003C003C00C
:1059200003C003C007E006630E3F1C3CF83FE0F7EE
:1059300000C0000000000000000000000000FE0F9A
:10594000FE1F06380630063006300638FE1FFE07FA
:1059500006030606060C0618061806300630066012
:105960000000000000000000000000000000E00354
:10597000F80F1C0C0C180C180C001C00F803E00F9E
:10598000001E0038063006300E301C1CF80FE007F1
:105990000000000000000000000000000000FE7F8A
:1059A000FE7F8001800180018001800180018001F3
:1059B00080018001800180018001800180018001DF
:1059C00000000000000000000000000000000C309B
:1059D0000C300C300C300C300C300C300C300C30E7
:1059E0000C300C300C300C300C301818F81FE0075D
:1059F0000000000000000000000000000000036044
:105A00000630063006300C180C180C18180C180C40
:105A1000380E30063006700760036003C001C00115
:105A20000000000000000000000000000000036013
:105A3000C361C361C36166336633663366336633FD
:105A400066336C1B6C1B6C1B2C1A3C1E380E380EFC
:105A500000000000000000000000000000000FE057
:105A60000C7018303018700C600EC0078003800373
:105A7000C003E006700C301C18180C300E6007E0F4
:105A8000000000000000000000000000000003C053
:105A900006600C301C383818300C6006E007C00374
:105AA00080018001800180018001800180018001EE
:105AB0000000000000000000000000000000FC7F6B
:105AC000FC7F006000300018000C0006000380011D
:105AD000C0006000300018000C000600FE7FFE7F52
