:020000040000FA
:100000006010001001030000090300000B03000052
:100010000D0300000F0300001103000000000000AA
:10002000000000000000000000000000FD010000D2
:10003000150300000000000075020000B10200007E
:100040001B0300001B0300001B0300001B03000038
:100050001B0300001B0300001B0300001B03000028
:100060001B0300001B0300001B0300001B03000018
:100070001B0300001B030000991900008D1A0000EB
:100080001B0300001B0300001B0300001B030000F8
:100090001B0300001B030000D50700001B0300002A
:1000A0001B0300001B030000750800001B03000079
:1000B0001B0300001B0300001B0300001B030000C8
:1000C0001B0300001B0300001B03000000F002F8EC
:1000D00000F03FF80AA090E8000C82448344AAF1A3
:1000E0000107DA4501D100F034F8AFF2090EBAE8A1
:1000F0000F0013F0010F18BFFB1A43F0010318475C
:10010000945C0000B45C0000103A24BF78C878C149
:10011000FAD8520724BF30C830C144BF04680C600D
:10012000704700000023002400250026103A28BF55
:1001300078C1FBD8520728BF30C148BF0B60704759
:10014000642900F09981002070471FB51FBD10B5CC
:1001500010BD00F017FB1146FFF7F7FF0FB400F0DA
:100160000BF80FBC02F0A4FD00F05EFA03B4FFF739
:10017000EEFF03BC00F000FB04B002F029FE0448CF
:10018000002102F079FE02F035FE00F04DFA000089
:100190006000001080F309887047EFF30980704712
:1001A000684680F3098804480078C00714BF02201D
:1001B000032080F314887047045C0000DFF818C047
:1001C000EFF305831B0618BF6047EFF31483DB07CB
:1001D00008BF604700DF704761300000DFF818C0DB
:1001E000EFF305831B0618BF6047EFF31483DB07AB
:1001F00008BF604700DF70473D320000EFF3098021
:10020000816911F8021CF1B990E80F10E047EFF393
:10021000098C8CE80700144B93E8060091420FD03C
:1002200039B12CE9F00FC1F828C00CB403F09AFBE7
:100230000CBC1A60D2F828C0BCE8F00F8CF3098817
:100240006FF0020E704710B5084A1268914209D843
:10025000074C54F8214090E80F10A047EFF3098CA9
:100260008CE80F0010BD000098000010D0070000BF
:10027000D007000003F048FA0C4B93E806009142C7
:1002800010D0EFF3098C2CE9F00FC1F828C00CB4A2
:1002900003F068FB0CBC1A60D2F828C0BCE8F00F71
:1002A0008CF309886FF0020E704700009800001070
:1002B00003F020FCE0E7000002F06CFE03F01AFC03
:1002C000DAE7000000487047FC0D00100FB41CB5C1
:1002D000074B06AA7B4469460090059800F033FA64
:1002E0000020694600F042FA1CBC5DF814FB0000D7
:1002F000950400007047704770477047FFFFFFFF8D
:100300000948804709480047FEE7FEE7FEE7FEE7A9
:10031000FEE7FEE7FEE7FEE7FEE7FEE704480549E5
:10032000034A054B70470000E9280000CD0000009B
:10033000600E001060100010600E001053EA020CF6
:1003400000F069802DE9F04B4FF00006002B1FBF35
:10035000B3FA83F503FA05F424FA05F65E4012BFFA
:100360001643B2FA82F502FA05F4C5F120051EBF64
:1003700022FA05FC44EA0C04203556EA044C4FEA04
:10038000144418BF641C4FF000084FF0000990425D
:1003900071EB030C39D3002919BFB1FA81F701FAC7
:1003A00007F6B0FA80F700FA07F6C7F120071EBF7C
:1003B00020FA07FC46EA0C062037B6FBF4FCA7EB54
:1003C0000507103F07F01F0BCBF120060CFA0BFBC3
:1003D0002CFA06F644BFB3460026202FA4BF5E4683
:1003E0004FF0000B5BEA060C08BF4FF0010B19EB56
:1003F0000B09ABFB027C48EB0608C01B06FB02CCDA
:100400000BFB03CC71EB0C01C1E70B4602464146E6
:100410004846BDE8F08B13B54FF000004FF00001E7
:10042000AFF30080BDE81C40704770B50446856995
:100430000068C10601D5302600E02026C00707D09D
:1004400070BDD4E9012130469047206A401C2062EB
:100450006D1EF6D570BD70B5044685690078C0077D
:1004600007D170BDD4E9012120209047206A401CAB
:1004700020626D1EF6D570BD2DE9F04106460024C0
:1004800010687529314616A510D0AFF300800028FA
:1004900002DA404213A507E031688A0701D512A5A8
:1004A00002E0490704D511A5012401E0AFF3008063
:1004B00000210A2206F1240709E0B0FBF2FCB0FBA0
:1004C000F2F302FB1C00303078541846491C002817
:1004D000F3D123462A463046BDE8F04100F0D4B8B7
:1004E000000000002D0000002B0000002000000094
:1004F0002DE9F05F894604464FF0000ADFF824B189
:10050000FB44C0F820A02046E168884700287DD041
:10051000252806D0D4E901219047206A401C20629A
:10052000F1E700255F462046E16888472028064617
:1005300007DB312E05D2B81910F8200C08B105439D
:10054000F1E7A80701D525F00405C4F81CA0002791
:10055000C4F818A02A2E09D0304602F0DFFA38B3CA
:1005600004EB8708303EC8F8186019E059F8041BFE
:10057000204604EB87029161E1688847012F064617
:1005800018D1E069002820DA25F020051DE0D8F810
:10059000180000EB800006EB40003038C8F8180067
:1005A0002046E1688847064602F0B8FA0028EED1F6
:1005B000012F0AD02E2E08D12046E16888477F1CE3
:1005C0000646022F45F02005C4DBA069002803DAA7
:1005D000404245F00105A061E80701D025F0100573
:1005E000A6B1A6F14100192802D8203645F40065CD
:1005F0004A463146204625604D46FFF7A1FD60B1D1
:10060000012807D0ED1D25F0070000E007E000F10C
:10061000080978E705F1040975E730467AE7206AAA
:10062000BDE8F09F3058000010B50446AFF30080DD
:100630002046BDE81040FFF799BD4FF0000200B51D
:10064000134694469646203922BFA0E80C50A0E8F5
:100650000C50B1F12001BFF4F7AF090728BFA0E8A3
:100660000C5048BF0CC05DF804EB890028BF40F86F
:10067000042B08BF704748BF20F8022B11F0804FB1
:1006800018BF00F8012B70472DE9F0470D46994639
:100690009246044600F124080168880604D5E06902
:1006A00021F01001216000E00120A84201DD471B7C
:1006B00000E00027A1697A1902EB0900081AA0617D
:1006C0002078C00602D42046FFF7AFFE002608E0DF
:1006D000D4E901211AF806009047206A401C761CD4
:1006E00020624E45F4DB2078C0060AD52046FFF78D
:1006F0009CFE06E0D4E9012130209047206A401C8E
:100700002062381EA7F10107F4DC07E0D4E90121DB
:1007100018F805009047206A401C2062281EA5F1A9
:100720000105F3DC2046FFF796FE2078000602D58F
:100730000220BDE8F0870120FBE7000001694A1CA8
:1007400002610878704700B58FB0CDE90131002112
:10075000059105497944CDE9031011466846FFF734
:10076000C7FE0FB000BD0000E5FFFFFF0A6802F8FA
:10077000010B0A607047000001491820ABBEFEE77C
:10078000260002007546FFF79DFDAE46050069464E
:10079000534620F00700854618B020B5FFF7BEFD90
:1007A000BDE820404FF000064FF000074FF0000872
:1007B0004FF0000B21F00701AC46ACE8C009ACE8F3
:1007C000C009ACE8C009ACE8C0098D46704700001C
:1007D0000000000008B50648006B0090044840681F
:1007E000C0F30B100349088001200349087008BDBD
:1007F00000400340340000103600001008B51148D6
:10080000006840F410400F49C439C1F8C40000200A
:100810000D4A0090517810780223012201F00EF861
:100820000A480B4908604013C86016200121814026
:100830004209920002F1E022C2F8001100BF00203C
:1008400008BD0000C4C00F402C4300000404200079
:100850000040034000BF01218140054A52E8002FBB
:1008600022EA0101024B43E80012002AF3D170474B
:100870008400001070B50024B2E05B4801680120DC
:10088000A0400140002975D0584901EB4415564855
:1008900040680121A140084000287DD00120A040EF
:1008A0005149886004EB8400514901EB8000C06825
:1008B00004EB84014E4A02EB8101896888425AD0D8
:1008C00004EB8400114601EB8000806804EB840196
:1008D00002EB8101C968461AB6F5805F01D340F684
:1008E000FF7604EB8400424901EB8000C06830448D
:1008F00004EB84013E4A02EB8101C860E86800F025
:10090000806098B104EB8400114651F82000286003
:1009100004EB840051F82010E868C0F3814006FA27
:1009200000F0084404EB840142F82100E86800F07C
:100930000060B8B104EB84002D4901EB80004068F1
:10094000686004EB840001EB80004168E868C0F354
:10095000415006FA00F0084404EB8401244A02EBFB
:1009600081014860E86866F30B00E860286940F0A0
:100970000100286133E0E0B2FFF76CFF04EB840074
:100980001B4901EB8000006948B304EB84000A4670
:1009900002EB8000016900E002E0012088471EE0D0
:1009A0001148C0680121A1400840C0B10020286161
:1009B000E860E0B2FFF74EFF0120A0400A4908615D
:1009C00004EB84000A4901EB8000006938B104EBB4
:1009D00084000A4602EB8000016902208847641CFB
:1009E000082CFFF44AAF70BD004000500041005099
:1009F000F80C001010B5F0234FF4A0720021084647
:100A000000F006FC222003F0EFFB03F02DFC002495
:100A100004E00648008803F00DFC641CB4F5963F22
:100A2000F7D303F02DFC002010BD000042000010A1
:100A30002DE9F04781468A4616462E48006818B9C7
:100A40004FF0FF30BDE8F0872A4800684068361A4A
:100A5000284909680988C81DC11700EB51714FEA80
:100A6000E10824480068C16806FB08F0214A1268C2
:100A7000528800FB02151F48006843881D48006823
:100A800002885146484600F0C3FB222003F0ACFB2D
:100A900003F0EAFB002723E000241AE0297804F0A1
:100AA0000702114101F0010111B11349098801E068
:100AB00012490988084603F0BDFB04F00700072827
:100AC00006D10C4800680088401EA04200D06D1C72
:100AD000641C084800680088A042DFD86D1C7F1C99
:100AE000044800684088B842D6D803F0C9FB00200B
:100AF000A8E7000044000010400000104200001071
:100B000070B505460E461446012322463146284656
:100B100000F07EFB222003F067FB03F0A5FB03E05F
:100B20000548008803F086FB201EA4F10104F7D1DC
:100B300003F0A6FB002070BD400000102DE9F0413D
:100B400005460E4617461C463A4631462846FFF7EC
:100B5000D7FF31193A462846FFF7D2FF22463146E1
:100B6000284600F01FF8E8192246314600F01AF82E
:100B70000020BDE8F081000070B505460E46144621
:100B800009E014F8012B31462846FFF751FF0448CD
:100B900000680088054420780028F2D170BD00006C
:100BA0004400001070B505460E4614462346012247
:100BB0003146284600F02CFB222003F015FB03F001
:100BC00053FB03E00548008803F034FB201EA4F12A
:100BD0000104F7D103F054FB002070BD4000001069
:100BE000F8B50024012000F01DFD00200346024658
:100BF0000621009000F022FE01220621002000F0D4
:100C000027FD01220621002000F0F8FC02F0C4F9C3
:100C10000446FE48816800208847FC48016902209C
:100C20008847FA48FA49426AFA48904724BB0026A6
:100C3000304603F0D9FA00BF0025F4480121426A8A
:100C400013209047732003F0FFF8002003F0FCF816
:100C5000002003F0F9F805464FF6FF7000EA05257D
:100C6000002003F0F1F80543E8480021426A132010
:100C7000904700BF00BF2C46472C7DD10120E6499C
:100C800008700021EA2003F005FB2021EB2003F08F
:100C900001FB0C21EC2003F0FDFAC721ED2003F04D
:100CA000F9FA3821E82003F0F5FA1021E92003F0E1
:100CB000F1FA0121F12003F0EDFA1021F22003F006
:100CC000E9FA0121402003F0E5FA0021412003F078
:100CD000E1FA0021422003F0DDFA1021432003F065
:100CE000D9FA0E21442003F0D5FA2421452003F03F
:100CF000D1FA0421462003F0CDFA5021472003F019
:100D0000C9FA0221482003F0C5FA1321492003F053
:100D1000C1FA19214A2003F0BDFA19214B2003F032
:100D2000B9FA16214C2003F0B5FA1B21502003F02C
:100D3000B1FA3121512003F0ADFA2F21522003F0F6
:100D4000A9FA3F21532003F0A5FA3F21542003F0D4
:100D5000A1FA3E21552003F09DFA2F21562003F0E1
:100D600099FA7B21572003F095FA0921582003F0C6
:100D700091FA0621592000E089E003F08BFA062160
:100D80005A2003F087FA0C215B2003F083FA1D211F
:100D90005C2003F07FFACC215D2003F07BFA1B215D
:100DA000084603F077FA01211A2003F073FA2F2185
:100DB000242003F06FFA5721252003F06BFA8821D5
:100DC000232003F067FA3621182003F063FA01218B
:100DD000192003F05FFA0021012003F05BFA88215B
:100DE0001F2003F057FAC82001F0EEFE82211F20D9
:100DF00003F050FA322001F0E7FE92211F2003F0A9
:100E000049FA322001F0E0FED2211F2003F042FA1D
:100E1000322001F0D9FE5521172003F03BFA0021C2
:100E2000084603F037FA11212F2003F033FA00218E
:100E3000312003F02FFA0021322003F02BFA382161
:100E4000282003F027FAC82001F0BEFE3C2128200C
:100E500003F020FAA821162003F01CFA00210E202E
:100E600003F018FA00210F2003F014FA01211020DA
:100E700003F010FA4021112003F00CFA0021122097
:100E800003F008FA0021132003F004FAA0E1002087
:100E9000614908704FF48071012003F0FBF94FF4B1
:100EA000E061022003F0F6F90021042003F0F2F9DA
:100EB00040F20721082003F0EDF90021092003F09A
:100EC000E9F900210A2003F0E5F900210C2003F0E4
:100ED000E1F900210D2003F0DDF900210F2003F0DE
:100EE000D9F90021102003F0D5F90021112003F0D9
:100EF000D1F90021122003F0CDF90021132003F0D5
:100F0000C9F9C82001F060FE41F2B021102003F0C1
:100F1000C1F90721112003F0BDF9322001F054FE80
:100F200040F2BD11122003F0B5F9322001F04CFE61
:100F30004FF4A051132003F0ADF90E21292003F046
:100F4000A9F9322001F040FE0021202003F0A2F98F
:100F50000021212003F09EF9A4F5145093380028B5
:100F600064D0A0F53850753828B1A0F57C501838F9
:100F700000287CD18BE040F60D31302003F08AF957
:100F800041F62311312003F085F941F62641322044
:100F900003F080F942F21C61332003F07BF942F246
:100FA0001941342003F076F940F60B51352003F057
:100FB00071F941F20601362003F06CF94FF4C26179
:100FC000372003F067F940F20671382003F062F928
:100FD0004FF44171392003F05DF940F605613A2084
:100FE00003F058F940F601613B2003F053F94FF448
:100FF00087713C2003F04EF940F20E513D2003F082
:1010000049F940F203413E2008E00000085D00007D
:1010100020BCBE00018308004800001003F03AF92C
:1010200040F207613F2003F035F960E000213020F5
:1010300003F030F940F20761312003F02BF940F260
:101040000531322003F026F90021352003F022F982
:1010500041F20461362003F01DF94FF4017137208D
:1010600003F018F90121382003F014F900E00DE035
:1010700040F20771392003F00DF900213C2003F004
:1010800009F90F213D2003F005F930E000BF0621EA
:10109000302003F0FFF840F20111312003F0FAF89C
:1010A0000321322003F0F6F84FF48371352003F06A
:1010B000F1F840F60231362003F0ECF840F202314C
:1010C000372003F0E7F840F20771382003F0E2F828
:1010D0000721392003F0DEF84FF4C0613C2003F013
:1010E000D9F840F20B213D2003F0D4F800BF00BF37
:1010F0000021502003F0CEF8EF21512003F0CAF870
:101100000021522003F0C6F840F23F11532003F0B3
:10111000C1F8A4F51450933848B1A0F5385075388B
:1011200020B1A0F57C50183838B907E000BF4FF463
:101130001C51602003F0AEF806E000BF4FF42741D9
:10114000602003F0A7F800BF00BF0121612003F079
:10115000A1F800216A2003F09DF80021802003F00F
:1011600099F80021812003F095F80021822003F0F6
:1011700091F80021832003F08DF80021842003F0F2
:1011800089F80021852003F085F81021902003F0D4
:1011900081F80021922003F07DF80321932003F0D1
:1011A00079F84FF48871952003F074F800219720A6
:1011B00003F070F80021982003F06CF841F2380138
:1011C000032003F067F840F23711072003F062F8BC
:1011D00001221C21042000F011FA0020F8BD0000BB
:1011E0000146024A118000207047000042000010B2
:1011F00001460248016000207047000044000010D2
:101200000146024A11800020704700004000001093
:101210002DE9F04704460D469046994604EB080038
:10122000461E05EB0900471E2048007820B3C4F392
:101230000F21022003F02EF8E1B2032003F02AF878
:10124000C6F30F21042003F025F8F1B2052003F0C6
:1012500021F8C5F30F21062003F01CF8E9B207209E
:1012600003F018F8C7F30F21082003F013F8F9B2C0
:10127000092003F00FF817E0A9B2502003F00AF894
:10128000B9B2512003F006F8A1B2522003F002F8DF
:10129000B1B2532002F0FEFFA9B2202002F0FAFF03
:1012A000A1B2212002F0F6FFBDE8F087480000104F
:1012B00070B50020224908603DE00A2420480068FB
:1012C00000EB8000C00000F13C051D4800681D498E
:1012D0000968884213D1A91EA01E1E234FF49972DB
:1012E000FFF72CFC1F20FFF78BFF174814490968F4
:1012F00050F8312029462046FFF73EFC16E04FF615
:10130000FF70FFF77DFFA91EA01E1E234FF49972E8
:10131000FFF714FC0020FFF773FF0B48084909682A
:1013200050F8312029462046FFF726FC0448006883
:10133000401C03490860024800680428BDDB70BDFA
:101340000800001000000010100000102DE9F05FF0
:101350000446884691461E46DDE90BAB0A9F082CE1
:1013600003DB4FF0FF30BDE8F09F204601F0A0FA0C
:10137000401C10B94FF0FF30F5E704EB84002D4915
:1013800001EB8000C0F810B02B4901EB44150020A0
:101390002861E8600120A040284988600120A04021
:1013A00008610020A8600120086300BF2348006B8B
:1013B00000F001000028F9D004EB84001D4901EB86
:1013C00080008660B6F5805F01D340F6FF76384630
:1013D00066F30B000746C5F80080C5F8049007F0D7
:1013E000806020B1C7F3814006FA00F0804407F026
:1013F000006020B1C7F3415006FA00F0814404EBCD
:1014000084000C4941F8208004EB840001EB80004B
:10141000C0F8049004EB840001EB8000C660EF602C
:10142000C5F810A00AF0010010B92046FFF712FA23
:10143000002098E7F80C00100041005000400050D8
:1014400010B50446082C02DB4FF0FF3010BD2046DB
:10145000FFF700FA054901EB4410006920F0010094
:101460000A4602EB441108610020EFE700410050FA
:101470000146082901DB0020704701EB8100064A84
:1014800002EB8000C068054B03EB4112D268C2F347
:101490000B02801AF0E70000F80C00100041005029
:1014A00010B522480068401C2049086008460068C2
:1014B000012801D9002010BD1D48006840F00050EF
:1014C0001B49C439C1F8C400002419E00020194A9E
:1014D00002EB4411086104EB8401174A42F8210031
:1014E00004EB840102EB8101486004EB840102EB10
:1014F0008101886004EB840102EB8101C860641CF7
:10150000082CE3D3FF200D49886008611A2000F001
:1015100089F91A20012181404209920002F1E0225A
:10152000C2F8001100BF0020C5E7000088000010CD
:10153000C4C00F4000410050F80C001000400050A3
:1015400010B502460F2A03D8082A01D3012902D96F
:101550004FF0FF3010BD39B109480068A2F108030F
:1015600001249C40204306E005480068A2F10803DE
:1015700001249C40A043024B18600020EAE70000D1
:10158000C4C10F4010B51248006810B94FF0FF30C9
:1015900010BD0F480068401E0D49086008460068ED
:1015A00008B10020F4E70B48006820F0005009491A
:1015B000C439C1F8C4001A2001218140064A4309F8
:1015C00042F8231000BF00F02DF90020E0E70000F2
:1015D00088000010C4C00F4080E100E002460648C9
:1015E000202303FB0200406901238B40184008B10F
:1015F000012070470020FCE700C0092030B53AB157
:1016000001238B40064C202505FB0044A36106E026
:1016100001238B40024C202505FB0044E36130BDD3
:1016200000C0092040B10949096841F40041074A56
:10163000C43AC2F8C41007E00449096821F4004123
:10164000024AC43AC2F8C41070470000C4C00F4038
:1016500030B55AB10B4C04EB40131B6801248C408D
:101660002343084D05EB401423600AE0054C04EBCE
:1016700040131B6801248C40A343024D05EB40142A
:10168000236030BD00C0092030B50246946A24684A
:101690002025AD5CEC4004F0030333B1012B06D0F0
:1016A000022B06D0032B08D105E0042106E001211E
:1016B00004E0022102E0082100BF00BF00BF024C8D
:1016C0002468B4FBF1F030BD8C00001038B5012067
:1016D000FFF7A8FF002417E000200D4A02EB4402A8
:1016E000009051780A4A12F8140000231A4600F0BC
:1016F000A5F8074A02EB44025178054A12F8140093
:101700000022FFF7A5FF641C052CE5D3002038BD9F
:10171000D05B000038B50120FFF784FF002421E0F2
:101720000020124A02EB4402009051780F4A12F84E
:1017300014000323002200F081F80C4A02EB44025B
:1017400051780A4A12F814000122FFF781FF074A74
:1017500002EB44025178054A12F814000022FFF708
:101760004DFF641C082CDBD3002038BDDA5B000081
:1017700010B52248406B00F4000090B92048006882
:1017800000280EDD1E480068401E1D49086001202B
:101790001C49087000BF1948406B00F40000002885
:1017A000F9D01648406B00F0007090B914480068FA
:1017B00003280EDA12480068401C11490860012015
:1017C0001049087000BF0D48406B00F00070002801
:1017D000F9D00A48406B00F4801068B90A49084AF9
:1017E000126801EBC2014868804700BF0348406BA4
:1017F00000F480100028F9D010BD000000C00920BE
:1018000000000010040000101000001000F01F0283
:1018100001219140024A430942F823107047000019
:1018200080E200E000F01F0201219140024A4309DA
:1018300042F823107047000080E200E02DE9F041FB
:1018400004460D461646069F00212A46102D03DB4E
:10185000A5F11000C2B20121DFF8D8C00CEBC40022
:1018600050F821004FEA42084FF0030C0CFA08FC34
:1018700020EA0C00DFF8BC8008EBC40C4CF8210017
:10188000C4460CEBC40050F821004FEA420C06FAA3
:101890000CFC40EA0C0008EBC40C4CF82100254875
:1018A000403000EBC40050F821004FEA42084FF0EE
:1018B000030C0CFA08FC20EA0C0C1E48403000EB2C
:1018C000C40040F821C01B48403000EBC40050F871
:1018D00021004FEA420C03FA0CFC40EA0C00DFF84E
:1018E00054C00CF1400C0CEBC40C4CF82100012F3F
:1018F0000ED11048683050F824C00120A8404CEAAE
:101900000000DFF830C00CF1680C4CF824000DE04A
:101910000848683050F824C00120A8402CEA000094
:10192000DFF810C00CF1680C4CF824000020BDE872
:10193000F081000000C0024070B504460D46034A25
:101940002946204600F0FAF870BD00004C5C00000B
:1019500010B504460249204600F07FFB10BD000090
:101960004C5C000010B504460249204600F090FB94
:1019700010BD00004C5C000010B5024800F096FB62
:1019800010BD00004C5C000008B5024800F0A4FB4C
:10199000009008BD4C5C000010B5024800F0B2FB9E
:1019A00010BD00004C5C000010B504460249204602
:1019B00000F02AFC10BD00004C5C000010B504468D
:1019C0000249204600F074FC10BD00004C5C000091
:1019D00070B504460D46034A2946204600F02EFD08
:1019E00070BD00004C5C000070B504460D46034A13
:1019F0002946204600F0D0FD70BD00004C5C000080
:101A000070B504460D461646034B3246294620461D
:101A100000F06CFE70BD00004C5C000010B5024888
:101A200000F00DFF10BD00004C5C000070B50446D6
:101A30000D46034A2946204600F080F870BD00009C
:101A4000945C000010B504460249204600F005FBF6
:101A500010BD0000945C000010B504460249204609
:101A600000F016FB10BD0000945C000010B50248A9
:101A700000F01CFB10BD0000945C000008B502489B
:101A800000F02AFB009008BD945C000010B50248ED
:101A900000F038FB10BD0000945C000010B5044657
:101AA0000249204600F0B0FB10BD0000945C00002D
:101AB00010B504460249204600F0FAFB10BD0000B4
:101AC000945C000070B504460D46034A2946204642
:101AD00000F0B4FC70BD0000945C000070B50446DA
:101AE0000D46034A2946204600F056FD70BD000011
:101AF000945C000070B504460D461646034B324612
:101B00002946204600F0F2FD70BD0000945C000004
:101B100010B5024800F093FE10BD0000945C000078
:101B20000148006870470000485C000008B50248A2
:101B30000068009008BD0000445C00002DE9FF5FD4
:101B400005460E4614464FF000090220039000207F
:101B500002900190206CC07900F0020020B94FF093
:101B6000FF3004B0BDE8F09FE8B2142828D1206807
:101B7000406820F002002168486000202168486128
:101B8000206C007968B194F82C0018B12D21085D03
:101B9000FFF756FC3420005D18B13521085DFFF7D2
:101BA0004FFC1C21606CFEF748FD0020216C087181
:101BB0002068406840F00200216848600020D0E7BB
:101BC000206C007910B16FF00100CAE7E8B2042878
:101BD0007ED007DC88B101282AD0022850D0032803
:101BE00008D17AE010287CD0112873D0122872D046
:101BF000132871D06FF00300B3E72068406820F02D
:101C0000020021684860002021684861206C8068DB
:101C100020F0FF00216C8860206C8068216C886057
:101C2000206CC07920F00400216CC871002098E776
:101C30002068406820F00200216848600020216888
:101C400048612068406820F0040021684860206CEA
:101C5000806820F0FF00216C8860206C806840F074
:101C60000100216C8860206CC07940F00400216C78
:101C7000C8712068406840F002002168486031E087
:101C80002068406820F002002168486020684068B1
:101C900040F0040021684860012021684861206C00
:101CA000806820F0FF00216C8860206C806840F024
:101CB0000200216C8860206CC07940F00400216C27
:101CC000C8712068406840F002002168486090E0D8
:101CD00004E006E057E065E068E000BF6FF0060052
:101CE0003FE700BF16B94FF0FF303AE72046FFF755
:101CF000CBFC4FEA001B3601022722E04FF0000820
:101D00001BE008F101007843BBFBF0F94E4505D11B
:101D1000CDF804900397CDF808801AE04E450AD913
:101D20000198301AA6EB0901884204D9CDF8049035
:101D30000397CDF8088008F10108B8F1FF0FE0D94A
:101D4000BF1CFF2FDAD3019810B94FF0FF3008E71E
:101D500000BF0398C0B2216808612068006820F4C1
:101D60007F4021680860206800684FF47F42029934
:101D700002EA0121084321680860E8B2102801D175
:101D80000020EEE635E02046FFF77EFC2168096979
:101D9000C9B222681268C2F30722521C5143B0FB39
:101DA000F1F0DEE6616C0E830020DAE6206C007A4A
:101DB000012806D1206C806800F4C010B0F5002F17
:101DC00002D04FF0FF30CCE6606810B94FF0FF3022
:101DD000C7E636B96268517810780122FFF70EFC29
:101DE00005E06268517810780022FFF707FC0020B8
:101DF000B7E600BF206C007A012872D105F4C0104C
:101E000048B1B0F5002F25D0B0F5801F4AD0B0F50D
:101E1000C01F64D115E0606840B100200090626886
:101E20005178107800231A46FFF708FD206C80686F
:101E300020F4C010216C8860206C8068216C886060
:101E40004EE0206C806820F4C010216C88606FF038
:101E50000A0086E6206C806820F4C010216C88603F
:101E60006068D8B100200090626851781078032330
:101E70000022FFF7E3FC6268517810780122FFF737
:101E8000E7FB6268517810780122FFF7B7FB206CFE
:101E9000806840F40020216C886002E06FF00A0046
:101EA0005FE61DE0206C806820F4C010216C886023
:101EB000606878B100200090227D636859781878B6
:101EC0000323FFF7BBFC206C806840F48010216C7A
:101ED000886003E06FF00A0043E602E000BF00BF45
:101EE00000BF206C007A02282DD105F4001018B133
:101EF000B0F5001F23D119E0206C806820F4001099
:101F0000216C8860606868B100200090227D636861
:101F1000597818780323FFF791FC206C8068216CB6
:101F2000886002E06FF00A001BE60BE0206C80681E
:101F300020F40010216C88606FF00A0011E66FF049
:101F40000A000EE600BF05F4E060B0F5407F42D025
:101F500007DC68B1B0F5807F17D0B0F5007F59D1AC
:101F600026E0B0F5806F43D0B0F5A06F52D148E0C5
:101F70002068006820F03000216808602068006850
:101F800020F0C0002168086047E02068006820F069
:101F90003000216808602068006820F04000216857
:101FA00008602068006840F080002168086034E024
:101FB0002068006820F03000216808602068006810
:101FC00040F04000216808602068006820F0800030
:101FD0002168086021E02068006820F03000216856
:101FE00008602068006840F0C0002168086014E0C4
:101FF0002068006820F0300040F010002168086080
:102000000BE02068006820F0300040F020002168DC
:10201000086002E06FF00700A3E500BFC5F3053AD2
:10202000BAF1040F0CD3BAF1100F09D82068006878
:1020300020F00F00AAF1010108432168086002E0C6
:102040006FF008008DE505F48020B0F5802F02D1F7
:102050006FF0090085E5002083E570B505460C4664
:10206000012D02D0022D0FD10FE0606C0068616C71
:10207000C8600020216C0871206C006818B1206CC9
:1020800001680120884701E000BF00BF00BF70BDAC
:10209000012802D0022805D105E04A6C12684B6C79
:1020A0001A6101E000BF00BF00BF704770B5044671
:1020B000206CC07900F0040008B9002070BD342005
:1020C000005D28B13521085DFFF7D2F9054601E032
:1020D000606CC5682846F1E708B50146086C0279CE
:1020E000009862F300000090086C4279009862F357
:1020F00041000090086C8279009862F382000090A1
:10210000009808BD70B504462068C66906F0030053
:10211000216808622068C06800F0020030B3606C7B
:102120000068616C0969884220D9606C8068A0B140
:10213000606C8168481C626C90600D782068006853
:1021400000F00F0007280AD9606C8168481C626C97
:102150009060087845EA002501E0606C058B2068F6
:102160008560606C0069401C616C08612068C06813
:1021700000F00400002839D02068806885B2606CC7
:102180000068616CC968884230D9606C406890B161
:10219000606C4268501C636C586015702068006861
:1021A00000F00F00072806D92912606C4268501C05
:1021B000636C58601170606CC068401C616CC860D2
:1021C000606CC068616C096888420FD12068406902
:1021D00020F00F00216848610020216C0871206CFC
:1021E000006818B1206C01680120884706F00100E2
:1021F00048B10121206C4171206C006818B1206C3D
:1022000001680220884770BD38B505460C46206C31
:10221000C07900F0010008B1002038BD206C0560D5
:102220000020216C08710021206C4171206C8171AB
:102230001C21606CFEF701FA00200090627DA3680B
:10224000597818780023FFF7F9FAE06840B10020C8
:102250000090A27DE368597818780023FFF7EEFA22
:10226000206940B100200090E27D236959781878F8
:102270000023FFF7E3FA94F82C0010B93420005D36
:1022800008B1FFF70DF994F82C0020B12E21085D5C
:102290000021FFF755F93420005D20B13621085D9B
:1022A0000021FFF74DF90120216CC8710020B4E72F
:1022B00070B505460C4615B1022D7DD14CE094F960
:1022C0003C0000F01F02012191405B4A430942F8A3
:1022D000231000BFE0690068A1690843E169086054
:1022E000206C007968B194F82C0018B12D21085D9C
:1022F000FFF7A6F83420005D18B13521085DFFF71F
:102300009FF80020216848612168486221680860C0
:102310002168486021680861032021680862E0693B
:102320000068A1698843E169086094F93C00FFF7FF
:102330006DFA0020216C08710021206C4171206C25
:1023400081711C21606CFEF778F9206CC07920F057
:102350000200216CC8716CE0206CC07900F00100B3
:1023600010B94FF0FF3070BD206CC07900F0020052
:1023700008B10020F7E7E0690068A1690843E16956
:102380000860A06A006820210A5D0321914088430B
:10239000A16A08602021095D606A8840A16A096815
:1023A0000843A16A08600020216848610320216871
:1023B00008620020216C00E038E008710021206CE8
:1023C0004171206C8171206CC07940F00200216C59
:1023D000C87101E0206880682068C06800F00400CF
:1023E0000028F7D194F82C0028B12068406A40F00A
:1023F0000200216848623420005D28B12068406AEC
:1024000040F001002168486294F93C00FFF7FEF9B2
:1024100094F93C0000F01F02012191404209920012
:1024200002F1E022C2F8001100BF02E06FF00300E9
:1024300099E700BF002096E780E100E0FEB5054681
:102440000E46144605B116B96FF00400FEBD206CAF
:10245000C07900F0040010B94FF0FF30F6E7206CAF
:10246000007910B16FF00100F0E70120216C0871D4
:102470000021206C4171206C8171606C008B45499A
:102480000860606C45600020616C8860606C06606C
:102490000020616CC860616C086194F82C00002811
:1024A00073D03420005D00286FD03620005D3E22BE
:1024B00002EA400040F45042521CA16B20680068C0
:1024C00000F00F00072801D9012000E000204FF4A0
:1024D000402303EA804023681B6803F00F03072BA7
:1024E00001D9012300E000234FF4C00707EA43535A
:1024F000184340F00840CDE901210090226802F124
:1025000008013522105D33462A46FEF71FFF401CA6
:1025100010B94FF0FF3099E72E20005D4FF4F862BC
:1025200002EA801040F44842521C216B2068006887
:1025300000F00F00072801D9012000E000204FF42F
:10254000402303EA804023681B6803F00F03072B36
:1025500001D9012300E000234FF4C00707EA4353E9
:10256000184340F00040CDE901210090216801F1BD
:1025700008022D21085D33460649FEF7E7FE401CA0
:1025800030B94FF0FF3061E7FFE70F202168486165
:1025900000205BE780000010FEB505460E4614469D
:1025A00005B116B96FF00400FEBD206CC07900F0D3
:1025B000040010B94FF0FF30F6E7206C007910B13D
:1025C0006FF00100F0E70120216C08710021206C00
:1025D0004171206C81710020616C4860606C856085
:1025E000606C06600020616CC860616C086194F8E2
:1025F0002C00002873D03420005D00286FD03620D6
:10260000005D3E2202EA400040F45042521CA16BA1
:102610002068006800F00F00072801D9012000E0C1
:1026200000204FF4402303EA804023681B6803F036
:102630000F03072B01D9012300E000234FF4C0074B
:1026400007EA4353184340F00040CDE901210090D0
:10265000226802F108013522105D3346224AFEF756
:1026600075FE401C10B94FF0FF309DE72E20005D35
:102670004FF4F86202EA801040F44842521C216B89
:102680002068006800F00F00072801D9012000E051
:1026900000204FF4402303EA804023681B6803F0C6
:1026A0000F03072B01D9012300E000234FF4C007DB
:1026B00007EA4353184340F00440CDE9012100905C
:1026C000216801F108022D21085D33462946FEF7F5
:1026D0003DFE401C30B94FF0FF3065E7FFE70F20AB
:1026E0002168486100205FE77C000010FEB50546C8
:1026F0000E4617461C460DB106B117B96FF004001F
:10270000FEBD206CC07900F0040010B94FF0FF301E
:10271000F6E7206C007910B16FF00100F0E70120BE
:10272000216C08710021206C4171206C8171606CFA
:102730004660606C8560606C07600020616CC860FA
:10274000616C086194F82C00002873D03420005D7F
:1027500000286FD03620005D3E2202EA400040F49F
:102760005042521CA16B2068006800F00F0007283F
:1027700001D9012000E000204FF4402303EA80400B
:1027800023681B6803F00F03072B01D9012300E026
:1027900000234FF4C00C0CEA4353184340F00840A8
:1027A000CDE901210090226802F108013522105D77
:1027B0003B463246FEF7CAFD401C10B94FF0FF30D1
:1027C0009EE72E20005D4FF4F86202EA801040F48C
:1027D0004842521C216B2068006800F00F00072857
:1027E00001D9012000E000204FF4402303EA80409B
:1027F00023681B6803F00F03072B01D9012300E0B6
:1028000000234FF4C00C0CEA4353184340F004403B
:10281000CDE901210090216801F108022D21085D18
:102820003B462946FEF792FD401C30B94FF0FF3081
:1028300066E7FFE70F2021684861002060E738B5B0
:102840000446606840B100200090626851781078BA
:1028500000231A46FEF7F2FF00200090A26851788C
:10286000107800231A46FEF7E9FFE06840B1002027
:102870000090E2685178107800231A46FEF7DEFFD8
:10288000206940B10020009022695178107800231F
:102890001A46FEF7D3FF94F82C0010B93420005DDF
:1028A00008B1FEF76FFE0020216CC87138BD000032
:1028B00010B5014600BF0B4850E8002F01208840AA
:1028C000104020B1BFF32F8F4FF0FF3010BD01201B
:1028D00088401043034C44E80003002BEBD1002058
:1028E000F4E700008400001020204B4908604B48AA
:1028F000D0F8A00100F0200030B100BF46480068C9
:1029000000F040000028F9D0032043499C390860BA
:1029100000204249C1F8A8013F490C31086001205C
:102920003D49943908603E483C4984310860AA20FA
:102930003A498C31086055200860012037498031C0
:102940000860AA2035498C31086055203349C1F808
:102950008C0000BF31488830006800F0806000289B
:10296000F8D003202D4980310860AA202B49C1F8F6
:102970008C00552029498C31086000BF27488830D9
:10298000006800F04070B0F1407FF7D12320234968
:10299000A4310860AA202149C1F8AC0055201F4984
:1029A000AC31086001201D49A0310860AA201B49F4
:1029B000AC31086055201949C1F8AC0000BF174878
:1029C000A830006800F480600028F8D00320134984
:1029D000A0310860AA201149C1F8AC0055200F4968
:1029E000AC31086000BF0D48A830006800F44070AA
:1029F000B0F5407FF7D10B480849C431086000208A
:102A00000649C1F8C8010846006820F4704040F447
:102A10008040086070470000A0C10F4000C00F4018
:102A200063000500DE87280438B505460C46A0780B
:102A300000906378227802A12846FDF747FC38BD54
:102A4000253032643A253032643A25303264000051
:102A500010B50020FEF7D4FB07A2D8210020FEF716
:102A60008BF807490748FFF7DFFF064AD821702097
:102A7000FEF782F810BD0000436C6F636B3A0000F4
:102A80000C000010B80000100F488078401C0E4960
:102A90008870084680783C2815D100208870084648
:102AA0004078401C4870084640783C280BD10020F4
:102AB000487008460078401C0870084600781828BE
:102AC00001D10020087070470C00001000B50246CC
:102AD000FFF7DAFF00BD10B5002A06DA22F0004247
:102AE000D21D22F00703102203E0D21C22F00303C0
:102AF0000C2213B19C188C4201D9012010BD024454
:102B000001448360C0E90021C91AD018884202D864
:102B100010600246F9E70020106010BD30380A2826
:102B200001D2012070470020704700000549097854
:102B3000002905D000684FF6FF71DFF80CC000DFF8
:102B40007047000091000010A13600000449097888
:102B5000002903D00068DFF80CC000DF70470000D8
:102B600091000010C935000008480068C0010BD56D
:102B700007480068C00707D005488038006800286B
:102B800002DA04490120087070470000FCED00E003
:102B9000800E00E0B40000104FF06042D36F002BB5
:102BA000FCD0036BD367D36F002BFCD0C07840EA16
:102BB0000120A2F87C0070474FF06041CA6F002AE4
:102BC000FCD081F87C0070470A490968890B4843AA
:102BD0000CE000BF00BF00BF00BF00BF00BF00BFD0
:102BE00000BF00BF00BF00BF00BF401E0028F0D1E3
:102BF000704700008C0000100EB5802200B109B1B2
:102C000010460AE001780129FAD101A900F020F864
:102C1000042801D0002000E01020DDE9011203B0FB
:102C200000BD70B50D46040003D012B9207801280C
:102C300001D0802070BD204600F0C0FB28B129469D
:102C4000204600F02EF8002070BD812070BD0000ED
:102C500010B504468089002822D0608904EB8000EA
:102C6000006908606078022805D10021204600F044
:102C700099FD00F087FD04F10C0000BFD0E85F1F54
:102C8000491E8AB2C0E8512F0029F7D16089401C43
:102C900080B26081E189884201D1002060810420F6
:102CA00010BD10B500F07EFDBDE8104000F06ABD1B
:102CB00000220121214800F009F921490860084655
:102CC000006828B14FF47A711D48006800F018F9C7
:102CD000FDF794FDFDF784FFFEF7F8FCFEF71AFD03
:102CE0004FF6FF70FEF77CFA4FF47840FEF788FA53
:102CF0001448FEF77DFAFDF77DFE13A20021084679
:102D0000FDF73AFF15A218210020FDF735FF4FF619
:102D1000FF70FEF765FA1F20FEF772FAFEF7C8FA99
:102D20000BE01248007820B1FEF7C2FA00200F49EC
:102D30000870FEF71DFDFFF78BFEF2E7244300004D
:102D400030000010C05B00002020204175746F6DC2
:102D5000617469632050756D700000002020202090
:102D600020202050726F6A65637400000400001018
:102D700010B50020FEF744FA02A218210020FDF74A
:102D8000FBFE10BD4131000010B50020FEF738FAFF
:102D900002A218210020FDF7EFFE10BD4132000015
:102DA00010B50020FEF72CFA02A218210020FDF732
:102DB000E3FE10BD4133000010B50020FEF720FAFD
:102DC00002A218210020FDF7D7FE10BD41340000FB
:102DD000EFF3058008B182207047EFF31480C0073D
:102DE00003D0DFF80CC000DF704701F087B80000A7
:102DF000FD3E000088B0EFF3058010B1822008B0DE
:102E00007047EFF3148010F00301134806D0012936
:102E10001BD0022911D0032919D113E008A981F38D
:102E200009880078C0070BD05FF0020080F3148897
:102E3000BFF34F8FBFF36F8F09E00078C00706D153
:102E40000320F3E70078C00701D0FF20D7E7DFF8C1
:102E50000CC000DFD3E70000045C00006D3F000001
:102E6000EFF305820AB1FFF7C7BEDFF808C000DF45
:102E700070470000D93F0000EFF305820AB100203F
:102E80007047EFF31482064B02F001025B781A439D
:102E900003D0DFF810C000DF704701F0BBB80000BE
:102EA0009000001015400000DFF80CC000DFDFF8D4
:102EB0000CC000DFFEE7000085400000A1400000DC
:102EC000DFF804C000DF7047D940000030B4EFF3F2
:102ED000058313B1002030BC7047EFF31483064C18
:102EE00003F001036478234303D0DFF810C000DF50
:102EF000F1E730BC01F0FCB890000010F140000098
:102F0000EFF305820AB182207047DFF808C000DFC6
:102F10007047000029410000094C4FF0FF35294659
:102F20002068FFF79DFF02460846102AF7D1FFF7F9
:102F3000C7FF0028F3D0024608469047EFE700009D
:102F400050000010012806D0022805D0032804D024
:102F5000042804D102E003E002E001E000E000BF49
:102F600000BF00BFFEE700BFFEE7000007480168A2
:102F70004FF0E02041610021816107210161044897
:102F8000016841F07F41016040177047005C00001C
:102F900020ED00E07047000038B500202F4A009077
:102FA0005178107802230022FEF748FC00202B4ABB
:102FB0000090D178907802230022FEF73FFC002099
:102FC000264A00905179107902230022FEF736FC40
:102FD0000020224A0090D179907902230022FEF746
:102FE0002DFC1E4AD17890780122FEF731FB1B4A56
:102FF000517810780122FEF701FB184AD1789078B9
:103000000122FEF7FBFA154A517810780022FEF7EC
:10301000F5FA0121702000F02DFF0121002000F0C1
:1030200029FF0E4A517810780122FEF7E7FA0B4A81
:10303000517810780022FEF7E1FA0121732000F0A8
:1030400019FF0021084600F015FF0446034A517895
:1030500010780122FEF7D2FA204638BD3800001061
:1030600050E8001F31B10B6840E80032002AF7D168
:1030700008467047BFF32F8FFAE710B568B161B10A
:103080000B3121F00302016844680B1A1B1B9342A9
:1030900005D2084609680029F5D1002010BD21009D
:1030A00007D021180368C1E90032016001F108006E
:1030B00010BD4260083010BD70B50D46002812D01A
:1030C0004FF6FF71084C884204D222680146104630
:1030D00000F096FB20684570044800F0D9F8BDE880
:1030E000704000F051BC70BD98000010CC0D001075
:1030F0000F4810B50D4942680E480B6800689342AE
:1031000004D00A60CB88421E1A448A808A8880B222
:1031100082420AD100200860054800F0B9F8014653
:10312000BDE81040024800F08FBB10BDAC0000109D
:10313000CC0D0010A800001070B5194DE8680028EB
:103140002CD0A88A401EA882002621E0A06838B1B1
:1031500061684160606810B1A16881606660A660C6
:103160000F482146183800F06FFBA08AA8826078CB
:10317000042804D10B49E08A09880844A082012070
:103180006070E068E860E06808B10561E6602661AB
:10319000A88A002802D1EC68002CD7D170BD0000AD
:1031A000E40D0010A800001070B504000FD00D4D04
:1031B000A17801262868827891420CD900F060FB42
:1031C000286846702046BDE8704000F0DDBB064828
:1031D00000F05EF8F7E766702146BDE870400248EF
:1031E00000F032BB98000010CC0D001010B5044662
:1031F000008B084320836278618B062A18D0052A49
:1032000019D1084217D001EA000262838843208363
:10321000204600F060FB01206070628B0821204690
:1032200000F055FB2146BDE81040034800F00CBB00
:1032300031EA0002EAD010BDCC0D0010814202D369
:1032400042688A4201D80120704702680A60BFF3D1
:103250005F8F50E8003F0A689A42F6D140E80012BA
:10326000002AF2D10020704768B161B1002208390C
:1032700002E00246006830B18842FAD12AB1006803
:103280001060002070470120704700214160F8E77E
:103290000146406842684A600B780022022B05D044
:1032A000012B03D0032B01D04260704743680BB160
:1032B0009960426082607047810700D000207047AB
:1032C00070B5044600201546207001226270A1707E
:1032D00084F824106060A060E06020612062A08219
:1032E000E0822083608384F82500E08C18B90548CB
:1032F000FFF7B6FEE06229462046BDE8704000F0C8
:103300001DB800005802001008B1082901D20120A0
:1033100070470144091F002201600A6042601046A4
:103320007047000003480021016003490988C180FB
:1033300070470000AC000010F45B000070B5C28C58
:103340001C4D930802D12A88C2F38D03C26A02EB96
:103350008302540700D5121F4FF0807442E9021413
:1033600000242646B2F1400242F82460641C0E2C70
:10337000FAD3C4691462826201632968C90014D552
:10338000112B12D94FF0FF31103B11EB53014FF0CD
:10339000CC3305D042F8043C42F8083D491EF9D12F
:1033A000C16A121F8A4200D91360C06A02490160D3
:1033B00070BD0000F05B0000A52E5AE2C189808933
:1033C000081A704701220270002242708270426027
:1033D00002814281103982818908C18170470000D1
:1033E0002DE9F041044640680E464FF0000804F114
:1033F0000C05E8B36078012701283ED0022813D0DD
:1034000003285CD10846FFF72BFE050057D0204665
:10341000FFF73EFF0446294600F056FA6770204643
:1034200000F059FA214621E02046FFF731FF064619
:10343000002100F049FA2189F06904EB810108615B
:10344000D5E85F0F401C81B2C5E8501F0028F7D1B6
:103450002089401C80B22081E189884201D1A4F8F2
:1034600008807770304600F036FA3146174800E0A1
:103470000CE0BDE8F04100F0E7B92046FFF708FF97
:1034800004463246102100F022FAC7E7A089E189FC
:10349000884216D2208904EB80000661D5E85F0FD0
:1034A000401C81B2C5E8501F0028F7D12089401C7C
:1034B00080B22081E189884201D1A4F80880BDE86A
:1034C000F081BDE8F0410320FFF73CBDCC0D0010BA
:1034D00070B50446808915460026C0B3608904EBA8
:1034E0008000006908606089401C80B26081E189C9
:1034F000884200D16681606810B1607802280BD0E4
:1035000014F10C04D4E85F0F401E81B2C4E8501FD0
:103510000028F7D1002070BD2046FFF7B9FE054610
:10352000002100F0D1F92189E86904EB81010861EB
:103530002089401C80B22081E189884200D1268107
:10354000284600F0C8F92846FFF72EFEE2E7FFE71D
:103550003DB10B48626801682AB1204600F074F959
:1035600008E0012070BD616001684E600068846001
:103570000120607008212846FFF79EFDF1E700005A
:1035800098000010002814D0411C13D00C4A4FF6AC
:10359000FE7190420CD800EB4002C2EBC012094809
:1035A000036803EBC202521EB2FBF3F0884204D957
:1035B000084670474FF6FF70704780B270470000B2
:1035C00000093D00105C00002DE9F04104464088F0
:1035D00020B1314DA1682A68914202D0FF20BDE898
:1035E000F081401E0004000C608053D12968086AF5
:1035F000A04209D1E068086208E0C268A24202D194
:10360000E268C26002E010460028F6D191F824007A
:103610000A6A06E053681BB19B78834200D91846BA
:10362000D268002AF6D18870DFF8708061680126C0
:1036300011B32046FFF72CFE0746002100F044F9A5
:10364000384600F048F96680A760386AE0603C625E
:103650002968D8F804008A788078824201D33846F5
:1036600016E00E4800F0F0F839460C4800F0ECF88F
:10367000286846707E700AE0D8F804108A782968B5
:10368000824207D9054800F0DFF82868467000201C
:10369000FFF78AFD0020A2E798000010CC0D001073
:1036A00070B5184D0E4604464188286839B1A168A6
:1036B000814209D16088401C6080002070BDA060FC
:1036C000016AE1600462F5E776B18A788078824227
:1036D00003D28870A06800F0DDF8606830B1204641
:1036E000296800F0B1F808E0012070BD286860602A
:1036F0002968002048602868846009213046FFF767
:10370000DBFCF1E79800001070B51B48012102684E
:103710005170006800F0B4F8184D6C7818E000BFE4
:1037200005EBC40148680278EAB1012A20D000F014
:10373000FFF8E878641C844200D100240F48801C04
:10374000D0E84F1F491EC9B2C0E8421F002AF7D176
:10375000A8780028E4D16C700948FFF799FDBDE80E
:10376000704000F011B9098989B2FFF73FFDE0E729
:103770008968FFF735FEDCE798000010C8080010E4
:10378000CC0D00100548017811B10121417070473E
:1037900003494FF08050086070470000A0000010FF
:1037A00004ED00E0F0B4154DAB1CEE784FEA0507D0
:1037B000D3E84F2FB24202D1BFF32F8F11E0521C3A
:1037C000D4B2C3E8424F002AF2D100BFD7E84F2F4E
:1037D000541CB44200D10024E4B2C7E8434F002B8C
:1037E000F4D1EB78934205D905EBC202C2E901019D
:1037F000F0BC7047F0BC0220FFF7A4BBC808001063
:10380000104A10B5D368ABB113469B8A03E08CB164
:103810002246A48A2344D4688B42F8D3C460D06083
:103820000261C46804B12061591A8182908A401AE9
:10383000908210BD0024C460D060C91A02619182D8
:10384000848210BDE40D001030B502780023022AF6
:1038500003D0012A01D0032A00D101238C7800E093
:103860001046426812B19578A542F9D24A6041608B
:103870001BB102B19160886030BD0020FBE7000001
:1038800003494A6842600022826048607047000035
:10389000CC0D001010B5836804462BB96078012860
:1038A0000ED1084B03E09B6818780028FBD0204617
:1038B00000F026F82146BDE810401846FFF7C4BFC7
:1038C00010BD0000CC0D0010806A01627047806A54
:1038D000C0E90812704710B5016900290ED0C2680E
:1038E000CA60C36800223BB18B8A848A23448B82DE
:1038F000C3681961C26000E08A82026110BD0000E5
:10390000816839B142684A604168002901D0806805
:1039100088607047054906E04A68824202D14068E3
:103920004860704711460029F6D17047CC0D001051
:1039300010B5416881B1FFF7ABFC0446FFF7CBFF40
:103940000120607001462046FFF7BEFF2146BDE81A
:1039500010400348FFF778BF4188491C418010BDE3
:10396000CC0D001006480068D0E90A10814203D34C
:1039700000680449884202D00120FFF7E3BA70478B
:1039800098000010A52E5AE20749022248604270B2
:10399000064A1278002A05D006C98A4202D0C078A9
:1039A000FFF70AB97047000098000010B40000103B
:1039B00070B5FFF7D9F800200446204A204902E0FC
:1039C00042F82040401C0B889842F9D31D4834220D
:1039D00001881D48FFF77FF81C48008880B240F03E
:1039E00000421B4801681B48FFF775F81A48082277
:1039F00001881A480068FFF76EF8194DFF20194A30
:103A0000E870EC8400212846FFF75AFC1648042190
:103A10000170446015480170C460046184821448D8
:103A200015490560022068701248047044700978D6
:103A3000C170BDE87040FFF775BC00004C09001074
:103A4000EC5B0000185C0000E0000010F05B000080
:103A50001C5C000058020010405C00005800001080
:103A6000980D0010672F0000CC0D0010E40D001021
:103A700098000010C8080010245C00001B4810B516
:103A8000016841F47F01016000684FF07F4101EA65
:103A900000201649C0431439B0FA80F00968C0F11B
:103AA0000800C1F30221814200D3481C0F49091FBD
:103AB0000B686FF08072824063F317020A60FFF7B1
:103AC00055FA0B49002808600EDB00F1E021FF22C7
:103AD00081F8002400F01F0201219140400980007C
:103AE00000F1E020C0F8001110BD000020ED00E062
:103AF000A40000100C4810B5026801215170006844
:103B0000FFF7BEFEFFF7F4FA08480168491C0160A0
:103B1000FFF712FB00F03AFB0548FFF7B9FBBDE8E1
:103B20001040FFF731BF000098000010A8000010FF
:103B3000CC0D0010002805D0810702D101780029A2
:103B400000D000207047000030B50B4C00236268A5
:103B500005E095688D4204D813461268491B002A77
:103B6000F7D10260816012B19568691A91600BB15A
:103B7000186030BD606030BD900000100D4B002219
:103B8000596803E0814204D00A4609680029F9D146
:103B900004E019B1016822B1116003E04FF0FF3079
:103BA00070475960016819B18A688068104488605C
:103BB00000207047900000102DE9F0411E46174686
:103BC00080460D4611F0FF0F00D14D1C1848FFF73D
:103BD00047FA041E16D0280AE762E084E9B242469A
:103BE0002046E661FFF76CFB01251248124905E00B
:103BF00000EB850252F8042C32B16D1C0A88954204
:103C0000F6D90020BDE8F081002DFAD000EB850048
:103C100040F8044C0948E570007818B101212046AD
:103C2000FEF7BAFF2046FFF7BFFA2846EAE7000092
:103C3000E00000104C090010EC5B0000B400001024
:103C40002DE9F05F584DDFF85891DFF85881296869
:103C50004FF0010A002618B1CA78AB46824243D120
:103C60004E70FCF79AFA29688862FFF77BFE286895
:103C7000046A1FE06068C0B12046FFF709FB0746F1
:103C80000021FFF721FE3846FFF725FE87F801A047
:103C900039464648FFF7D8FDE168A4F802A0A760BE
:103CA000386AE0603C620C4604E0E0686680A6602A
:103CB000E6600446002CDDD12868C27808EB82015A
:103CC00041F8046CC16A3A48FFF7B8FA2868C6623E
:103CD00099F8001011B10021FEF75EFF3548296800
:103CE000FFF7ACFA2E6056E03349098888420CD8B9
:103CF00008EB800858F8045C3DB12846FFF700FE49
:103D00002846FFF7E8FD2C6A22E0FF20BDE8F09F7F
:103D10006068C0B12046FFF7BBFA07460021FFF7F5
:103D2000D3FD3846FFF7D7FD87F801A039461F4875
:103D3000FFF78AFDE168A4F802A0A760386AE06096
:103D40003C620C4604E0E0686680A660E6600446DB
:103D5000002CDDD148F8046C1548E96AFFF76EFACB
:103D6000EE6299F8000018B100212846FEF714FF12
:103D700029461048FFF762FA0C48DBF8001040684B
:103D80008B7882789A4209D981F801A00748DBF83C
:103D90000010FFF759FD0020FFF706FA0020B5E7F5
:103DA000B40000104C09001098000010CC0D001059
:103DB00058020010E0000010EC5B000070B51A4DD6
:103DC00080B11A4A128890421FD8194A02EB80002B
:103DD00050F8044CCCB1A17084F824102868A0429B
:103DE00005D014E028688170286880F824101148F4
:103DF00040688078884215D90E482968FFF724FD6D
:103E000029680120487000200AE0FF2070BD20468C
:103E1000FFF740FD6078012804D10648FFF738FA23
:103E2000FFF7C2F9002070BD98000010EC5B0000A5
:103E30004C090010CC0D001002480068002800D08A
:103E4000C07870479800001001B582B00848012280
:103E500001A9C36902A8984700BF0549886A80473D
:103E6000009000F001000028F7D19DF804000EBD7D
:103E7000085D00002DE9F04106460D460027012DA2
:103E800001D1012300E000231A461B4BD979987910
:103E9000FDF7DEFB07242AE0174AD178907800224C
:103EA000FDF7ACFB0120FEF78FFE012D0DD10123A4
:103EB000A34033400BB1012300E000231A460E4B10
:103EC000D9799879FDF79AFB07E00B4AD179907977
:103ED000FDF784FBA0403843C7B2074AD1789078F9
:103EE0000122FDF78BFB0120FEF76EFE641E002C05
:103EF000D2DA3846BDE8F0813800001010B5134C16
:103F0000207860B91248400705D11248016810486E
:103F1000FFF7FAF908B1852010BDFFF749FD0E49FA
:103F2000FF2009688870207858B900210B4800F0FC
:103F300041F80B49086000210A4800F06BF80A4973
:103F40000860012020700020607010BD90000010FB
:103F500018070010205C000098000010385C00007A
:103F600050000010285C00004C00001070B50F4D90
:103F7000687808B1002070BD0D4C206890F82410BE
:103F80000020FFF71BFF2068C178FF2903D1816A59
:103F9000203181F30988616811B9606000202060D8
:103FA000FFF76CFD01206870E4E70000900000104E
:103FB0009800001010B5040005D0216819B16068A0
:103FC00008B102780AB1002010BD8900103189B211
:103FD000FFF7F8F9606810BD3EB504000D464FF0DC
:103FE000800012D0217801290FD12846FFF7CAFAA4
:103FF0000246204601A9FFF76BFA012801D01020E4
:1040000003E00DB1402000E00020DDE9011203B023
:1040100030BD000070B50E4604002BD0206848B3B8
:10402000B4F9040010F1030F24DB032822DCE1685B
:1040300029B11148FFF721F805001BD000E0002549
:10404000B4F90400E168001D40EA012133462A4624
:104050002068FFF7B1FD40B1084901EB8000084935
:1040600050F8040C826A516370BD1DB129460248A4
:10407000FFF7FAF8002070BD180700104C09001077
:10408000A92E000010B5FFF7D7FE002804D0034981
:1040900001EB800050F8040C10BD00004C0900102A
:1040A00010B5FFF747FD18B1C18C19B1C46A02E021
:1040B000802010BD0024C078FFF7C2FDFF2806D085
:1040C0001CB121460348FFF7CFF8002010BD812026
:1040D00010BD00001807001010B5FFF7EDF820B173
:1040E00041690A680169104610BD0020014610BDF3
:1040F00010B503000CD0186850B15868002808D0DB
:1041000009B1012904D1074C24680CB104790CB120
:10411000002010BD00240460012404714171C0E935
:10412000042310BD4C00001070B50E46FFF7C4F814
:10413000040016D0BEB1144A00214FF47A731068FF
:104140001268401E41F1FF35E6FB030529460023B6
:10415000FCF7F4F80546207901280CD0022808D194
:1041600003E0802070BD862070BD2046FFF706FD6D
:1041700020B1812070BD02202071E56029462046D3
:10418000FFF7E2FC002070BD105C00002DE9F0415B
:10419000134E7468002C1CD0A068124F401E4FF0C4
:1041A0000108A06012E025462468746000222946B8
:1041B0003868FEF736FD10B10420FEF7C3FE6879BB
:1041C000012808D085F80480002C02D0A0680028BF
:1041D000E9D0BDE8F0812846E968FFF7B5FCF3E7D0
:1041E00090000010500000101CB50446104801213A
:1041F000426A1320904770208DF8040000208DF84B
:1042000005008DF806400A480321426901A890473D
:1042100000BF0749886A8047009000F0010000282D
:10422000F7D103480021426A132090471CBD0000CB
:10423000085D00001CB5044620128DF80400E0B2B1
:104240008DF8050007480221426901A8904700BF88
:104250000449886A8047009000F001000028F7D1E7
:104260001CBD0000085D000010B504480121426A31
:10427000132090477220FFF7E7FD10BD085D000096
:1042800010B503480021426A1320904710BD00007A
:10429000085D00007CB504460D4670208DF80400D2
:1042A00020128DF80500E0B28DF806001C480121AF
:1042B000426A132090471A480321426901A8904797
:1042C00000BF1749886A8047009000F0010000286D
:1042D000F7D113480021426A1320904772208DF8CD
:1042E000040028128DF80500E8B28DF806000C488D
:1042F0000121426A1320904709480321426901A81D
:10430000904700BF0649886A8047009000F001008E
:104310000028F7D102480021426A132090477CBD53
:10432000085D0000CD2A0000C40000100019000044
:104330000000000000000000040404040400040065
:104340000A0A0A00000000000A0A1F0A1F0A0A00DF
:10435000041E050E140F04000313080402191800AC
:1043600002050502150916000C0C040200000000ED
:1043700008040202020408000204080808040200FB
:104380000004150E0E1504000004041F04040000B0
:10439000000000000C0C04020000001F00000000E0
:1043A00000000000000C0C000010080402010000D6
:1043B0000E11131519110E000406040404040E0056
:1043C0000E11100E01011F001F10080C10110E001D
:1043D000080C0A091F0808001F010F1010110E0019
:1043E0001C02010F11110E001F1010080402010021
:1043F0000E11110E11110E000E11111E10080700E2
:104400000000040004000000000004000404020096
:10441000100804020408100000001F001F00000024
:1044200002040810080402000E11100C040004001D
:104430000E11151D0D011E00040A11111F1111008E
:104440000F11110F11110F000E11010101110E00BA
:104450000F11111111110F001F01010F01011F0098
:104460001F01010F010101001E11010119111E00A0
:104470001111111F111111000E04040404040E0087
:104480001C080808080906001109050305091100A0
:104490000101010101011F00111B1515151111006A
:1044A00011111315191111000E11111111110E0016
:1044B0000F11110F010101000E1111111509160044
:1044C0000F11110F050911000E11010E10110E0030
:1044D0001F150404040404001111111111110E0020
:1044E00011111111110A04001111111515150A00ED
:1044F00011110A040A11110011110A040404040024
:104500001F10080E02011F001E02020202021E00FE
:1045100000010204081000001E10101010101E00F0
:10452000040A1100000000000000000000001F004D
:104530000606040800000000000006080E091E0020
:1045400001010D1311130D0000000E1101110E00D9
:10455000101016191119160000000E111F010E007F
:104560000814040E0404040000000E191916100E9D
:1045700001010D13111111000400060404040E00C2
:1045800008000808080906000101090503050900DB
:104590000604040404040E0000000B151515150094
:1045A00000000D131111110000000E1111110E0069
:1045B00000000D13130D010100001619191610103B
:1045C00000000D130101010000001E010E100F007C
:1045D00004041F040414080000001111111916002E
:1045E00000001111110A04000000111115150A0034
:1045F0000000110A040A1100000011111E10110E12
:1046000000001F0804021F0008040402040408003C
:104610000404040004040400020404080404020066
:10462000021508000000000000000000000000006B
:1046300000000C12120C000000000C1E1E0C0000EA
:1046400000001E12121E000000001E1E1E1E000092
:1046500000000C0C121E000000000C0C1E1E0000BE
:1046600000001E120C0C000000001E1E0C0C0000AE
:1046700000001816161800000000181E1E18000072
:104680000000061A1A0600000000061E1E060000A2
:1046900000000C12120C000000000C1E1E0C00008A
:1046A00000001E12121E000000001E1E1E1E000032
:1046B00000000000000000000000000000000000FA
:1046C00000000000000000000000000000000000EA
:1046D00000000000000000000000000000000000DA
:1046E0000000800180018001800180018001800143
:1046F00080018001800180018001800100000000B4
:1047000080018001000000000000000000000000A7
:1047100000000000CC00CC00CC00CC00CC00CC00D1
:104720000000000000000000000000000000000089
:104730000000000000000000000000000000000079
:10474000000000000000000000000000600C600C91
:10475000600C30063006FE1FFE1F300638071803B7
:10476000FE1FFE1F180318038C018C018C01000032
:1047700000008000E003F80F9C0E8C1C8C188C004D
:104780009800F801E007800E801C8C188C189C188B
:10479000B80CF00FE0038000800000000000000073
:1047A0000000000000000E181B0C110C1106110671
:1047B000110311039B018E01C038C06C604460443A
:1047C000304430441844186C0C38000000000000DD
:1047D0000000E001F0033807180618063003F00166
:1047E000F000F8009C310E33061E061C061C063F26
:1047F000FC73F02100000000000000000000000039
:10480000000000000C000C000C000C000C000C0060
:104810000000000000000000000000000000000098
:104820000000000000000000000000000000000088
:104830000000000200038001C000C00060006000B2
:1048400030003000300030003000300030003000E8
:1048500060006000C000C000800100030002000092
:10486000000020006000C000800180010003000300
:104870000006000600060006000600060006000608
:104880000003000380018001C000600020000000E0
:10489000000000000000000000000000C000C00098
:1048A000D806F807E00130033807000000000000D8
:1048B00000000000000000000000000000000000F8
:1048C00000000000000000000000000080018001E6
:1048D000800180018001FC3FFC3F8001800180015C
:1048E00080018001000000000000000000000000C6
:1048F00000000000000000000000000000000000B8
:1049000000000000000000000000000000000000A7
:104910000000800180010001000180000000000013
:104920000000000000000000000000000000000087
:104930000000000000000000E007E00700000000A9
:104940000000000000000000000000000000000067
:104950000000000000000000000000000000000057
:104960000000000000000000000000000000000047
:104970000000C000C00000000000000000000000B7
:104980000000000C000C00060006000600030003F7
:1049900000038003800180018001C000C000C000CE
:1049A0006000600000000000000000000000000047
:1049B0000000E003F007380E180C0C180C180C1847
:1049C0000C180C180C180C180C180C18180C380EA5
:1049D000F007E003000000000000000000000000FD
:1049E000000000018001C001F001980188018001F0
:1049F00080018001800180018001800180018001AF
:104A000080018001000000000000000000000000A4
:104A10000000E003F80F180C0C180C180018001810
:104A2000000C000600038001C00060003000180088
:104A3000FC1FFC1F00000000000000000000000040
:104A40000000E001F807180E0C0C0C0C000C00061E
:104A5000C003C007000C001800180C180C18180C24
:104A6000F807E00300000000000000000000000064
:104A70000000000C000E000F000F800DC00C600C39
:104A8000600C300C180C0C0CFC3FFC3F000C000CB4
:104A9000000C000C000000000000000000000000FE
:104AA0000000F80FF80F180018000C00EC03FC07CA
:104AB0001C0E001C0018001800180C181C0C180EF6
:104AC000F807E00300000000000000000000000004
:104AD0000000C007F00F381C181818000C00CC0399
:104AE000EC0F3C0E1C1C0C180C180C18181C380E63
:104AF000F007E003000000000000000000000000DC
:104B00000000FC1FFC1F000C0006000600038003D1
:104B10008001C001C000E000600060007000300053
:104B20003000300000000000000000000000000025
:104B30000000E003F007380E180C180C180C3806AB
:104B4000F007F007180C0C180C180C180C18380C7F
:104B5000F80FE0030000000000000000000000006B
:104B60000000E003F007380E1C0C0C180C180C1891
:104B70001C1C381EF81BE0190018000C000C1C0E41
:104B8000F807F00100000000000000000000000035
:104B90000000000000000000000000008001800113
:104BA0000000000000000000000000000000000005
:104BB00080018001000000000000000000000000F3
:104BC00000000000000000000000000080018001E3
:104BD00000000000000000000000000000000000D5
:104BE0008001800100010001800000000000000041
:104BF00000000000000000000000000000000000B5
:104C00000010001C800FE003F8001800F800E0031B
:104C1000800F001C001000000000000000000000D9
:104C20000000000000000000000000000000000084
:104C3000F81F000000000000F81F00000000000046
:104C40000000000000000000000000000000000064
:104C50000000000000000000000000000000000054
:104C600008003800F001C007001F0018001FC0072F
:104C7000F001380008000000000000000000000003
:104C80000000E003F80F180C0C180C180018000CAA
:104C9000000600038001C000C000C000000000004A
:104CA000C000C00000000000000000000000000084
:104CB00000000000E00718180420C229224A11440D
:104CC00009440944094409221113E20C024004205A
:104CD0001818E007000000000000000000000000BD
:104CE000000080038003C006C006C006600C600C94
:104CF000301830183018F83FF83F1C700C600C600A
:104D000006C006C000000000000000000000000017
:104D10000000FC03FC0F0C0C0C180C180C180C0CED
:104D2000FC07FC0F0C180C300C300C300C300C183D
:104D3000FC1FFC0700000000000000000000000055
:104D40000000C007F01F38381C300C7006600600E9
:104D50000600060006000600060006600C701C3007
:104D6000F01FE0070000000000000000000000004D
:104D70000000FE03FE0F060E061806180630063069
:104D80000630063006300630063006180618060EC5
:104D9000FE0FFE0300000000000000000000000005
:104DA0000000FC3FFC3F0C000C000C000C000C0051
:104DB000FC1FFC1F0C000C000C000C000C000C0075
:104DC000FC3FFC3F0000000000000000000000006D
:104DD0000000F83FF83F18001800180018001800ED
:104DE000F81FF81F18001800180018001800180005
:104DF0001800180000000000000000000000000083
:104E00000000E00FF83F3C780E6006E007C00300AA
:104E1000030003FE03FE03C007C006C00EC03CF043
:104E2000F83FE00F0000000000000000000000005C
:104E300000000C300C300C300C300C300C300C30CE
:104E4000FC3FFC3F0C300C300C300C300C300C3084
:104E50000C300C30000000000000000000000000DA
:104E600000008001800180018001800180018001BB
:104E7000800180018001800180018001800180012A
:104E80008001800100000000000000000000000020
:104E900000000006000600060006000600060006E8
:104EA0000006000600060006000618061806380769
:104EB000F003E0010000000000000000000000001E
:104EC000000006300618060C060606038601C6001A
:104ED00066007600DE008E0106030606060C061844
:104EE0000630066000000000000000000000000026
:104EF000000018001800180018001800180018000A
:104F000018001800180018001800180018001800E1
:104F1000F81FF81F00000000000000000000000063
:104F200000000EE01EF01EF01EF036D836D836D83F
:104F300036D866CC66CC66CCC6C6C6C6C6C6C6C69D
:104F400086C386C3000000000000000000000000CF
:104F500000000C301C303C303C306C306C30CC30BD
:104F6000CC308C310C330C330C360C360C3C0C3CF6
:104F70000C380C30000000000000000000000000B1
:104F80000000E007F81F1C380E70066003C003C065
:104F900003C003C003C003C003C006600E701C380A
:104FA000F81FE00700000000000000000000000003
:104FB0000000FC0FFC1F0C380C300C300C300C3097
:104FC0000C18FC1FFC070C000C000C000C000C0063
:104FD0000C000C00000000000000000000000000B9
:104FE0000000E007F81F1C380E70066003E003C0E5
:104FF00003C003C003C003C007E006630E3F1C3CB0
:10500000F83FE0F700C000000000000000000000D2
:105010000000FE0FFE1F0638063006300630063848
:10502000FE1FFE0706030606060C061806180630C5
:1050300006300660000000000000000000000000D4
:105040000000E003F80F1C0C0C180C180C001C00DE
:10505000F803E00F001E0038063006300E301C1C2E
:10506000F80FE00700000000000000000000000052
:105070000000FE7FFE7F80018001800180018001B1
:105080008001800180018001800180018001800118
:10509000800180010000000000000000000000000E
:1050A00000000C300C300C300C300C300C300C305C
:1050B0000C300C300C300C300C300C300C3018181C
:1050C000F81FE007000000000000000000000000E2
:1050D000000003600630063006300C180C180C185F
:1050E000180C180C380E3006300670076003600389
:1050F000C001C0010000000000000000000000002E
:1051000000000360C361C361C36166336633663305
:105110006633663366336C1B6C1B6C1B2C1A3C1E8F
:10512000380E380E000000000000000000000000F3
:1051300000000FE00C7018303018700C600EC007C3
:1051400080038003C003E006700C301C18180C307C
:105150000E6007E0000000000000000000000000FA
:10516000000003C006600C301C383818300C600694
:10517000E007C0038001800180018001800180017F
:10518000800180010000000000000000000000001D
:105190000000FC7FFC7F006000300018000C00065F
:1051A00000038001C0006000300018000C00060001
:1051B000FE7FFE7F000000000000000000000000F5
:1051C0000000E003E0036000600060006000600039
:1051D00060006000600060006000600060006000CF
:1051E00060006000600060006000E003E003000019
:1051F000000030003000600060006000C000C000AF
:10520000C000C00180018001800100030003000391
:105210000006000600000000000000000000000082
:105220000000E003E00300030003000300030003A9
:105230000003000300030003000300030003000356
:1052400000030003000300030003E003E003000089
:1052500000000000C001C00160036003600330066D
:105260003006180C180C00000000000000000000C0
:10527000000000000000000000000000000000002E
:10528000000000000000000000000000000000001E
:10529000000000000000000000000000000000000E
:1052A0000000FFFFFFFF0000000000000000000002
:1052B00000000C000C000C000C000C000C000000A6
:1052C00000000000000000000000000000000000DE
:1052D00000000000000000000000000000000000CE
:1052E000000000000000000000000000F003F807CC
:1052F0001C0C0C0C000FF00FF80C0C0C0C0C1C0F01
:10530000F80FF0180000000000000000000000008E
:10531000000018001800180018001800D803F80F33
:10532000380C181818181818181818181818380CD5
:10533000F80FD8030000000000000000000000008B
:10534000000000000000000000000000C003F007A3
:10535000300E180C1800180018001800180C300E29
:10536000F007C00300000000000000000000000083
:10537000000000180018001800180018C01BF01FCB
:10538000301C181818181818181818181818301C65
:10539000F01FC01B00000000000000000000000023
:1053A000000000000000000000000000C003F00F3B
:1053B000300C1818F81FF81F180018003818301C87
:1053C000F00FC00700000000000000000000000017
:1053D0000000800FC00FC000C000C000F007F00741
:1053E000C000C000C000C000C000C000C000C000BD
:1053F000C000C0000000000000000000000000002D
:10540000000000000000000000000000E00DF80FA8
:10541000180E0C0C0C0C0C0C0C0C0C0C0C0C180EB0
:10542000F80FE00D000C0C0C1C06F807F001000052
:10543000000018001800180018001800D807F80F0E
:10544000381C1818181818181818181818181818B8
:1054500018181818000000000000000000000000EC
:105460000000C000C000000000000000C000C0003C
:10547000C000C000C000C000C000C000C000C0002C
:10548000C000C0000000000000000000000000009C
:105490000000C000C000000000000000C000C0000C
:1054A000C000C000C000C000C000C000C000C000FC
:1054B000C000C000C000C000C000F80078000000BC
:1054C00000000C000C000C000C000C000C0C0C0676
:1054D0000C038C01CC006C00FC009C018C030C03C1
:1054E0000C060C0C00000000000000000000000092
:1054F0000000C000C000C000C000C000C000C0006C
:10550000C000C000C000C000C000C000C000C0009B
:10551000C000C0000000000000000000000000000B
:105520000000000000000000000000007C3CFF7E46
:10553000C7E383C183C183C183C183C183C183C1E5
:1055400083C183C1000000000000000000000000D3
:105550000000000000000000000000009807F80FA5
:10556000381C181818181818181818181818181897
:1055700018181818000000000000000000000000CB
:10558000000000000000000000000000C003F00F59
:10559000300C181818181818181818181818300C73
:1055A000F00FC00300000000000000000000000039
:1055B000000000000000000000000000D803F80F09
:1055C000380C181818181818181818181818380C33
:1055D000F80FD80318001800180018001800000071
:1055E000000000000000000000000000C01BF01FD1
:1055F000301C181818181818181818181818301CF3
:10560000F01FC01B00180018001800180018000038
:10561000000000000000000000000000B007F003E0
:1056200070003000300030003000300030003000BA
:10563000300030000000000000000000000000000A
:10564000000000000000000000000000E003F00384
:10565000380E180C3800F003C007000C180C380E78
:10566000F007E00300000000000000000000000060
:10567000000000008000C000C000C000F007F0077C
:10568000C000C000C000C000C000C000C000C0001A
:10569000C0078007000000000000000000000000BC
:1056A000000000000000000000000000181818189A
:1056B0001818181818181818181818181818381C46
:1056C000F01FE019000000000000000000000000D2
:1056D0000000000000000000000000000C18180C82
:1056E000180C180C300630063006600360036003A7
:1056F000C001C00100000000000000000000000028
:10570000000000000000000000000000C141C14195
:10571000C3616363636363633636363636361C1C97
:105720001C1C1C1C00000000000000000000000009
:105730000000000000000000000000001C38381CC1
:10574000300C6006C003C003C003C0036006300C09
:10575000381C1C38000000000000000000000000A1
:1057600000000000000000000000000018303018A9
:1057700030187018600C600CE00CC006C006800386
:105780008003800380018001C001F00070000000F0
:10579000000000000000000000000000FC1FFC1FD3
:1057A000000C000600038001C000600030001800FB
:1057B000FC1FFC1F000000000000000000000000B3
:1057C000000000038001C000C000C000C000C00095
:1057D000C00060006000300060004000C000C000F9
:1057E000C000C000C000C000800100030000000035
:1057F0000000800180018001800180018001800122
:105800008001800180018001800180018001800190
:105810008001800180018001800180018001000001
:1058200000006000C000C001800180018001800193
:1058300080010003000300060003000180018001D5
:105840008001800180018001C00060000000000034
:105850000000000000000000000000000000000048
:10586000F010F81F080F000000000000000000000A
:105870000000000000000000000000000000000028
:105880000000000000000000000000000000000018
:105890000000000000000000000000000000000008
:1058A00000000000000000000000000000000000F8
:1058B00000000000000000000000C003300C0810D1
:1058C0000420042002400240024002400240042022
:1058D00004200810300CC00300000000000000008D
:1058E00000000000000000000000C003F00FF81FDF
:1058F000FC3FFC3FFE7FFE7FFE7FFE7FFE7FFC3F86
:10590000FC3FF81FF00FC003000000000000000083
:105910000000000000000000000000000000E007A0
:10592000F00F181818181818181818181818F00F59
:10593000E007000000000000000000000000000080
:105940000000000000000000000000000000E00770
:10595000F00FF81FF81FF81FF81FF81FF81FF00FBF
:10596000E007000000000000000000000000000050
:105970000000000000000000000000000000000027
:1059800000000000000000008001C0036006300C31
:1059900018181818F81FF81F000000000000000079
:1059A00000000000000000000000000000000000F7
:1059B00000000000000000008001C003E007F00FBD
:1059C000F81FF81FF81FF81F00000000000000007B
:1059D0000000000000000000F81FF81F1818181839
:1059E000300C6006C00380010000000000000000D1
:1059F00000000000000000000000000000000000A7
:105A00000000000000000000F81FF81FF81FF81F3A
:105A1000F00FE007C003800100000000000000005C
:105A20000000000000000000000000000000000076
:105A30000000000000000000000000000000E00185
:105A4000F00198018C01860186018C019801F0011A
:105A5000E001000000000000000000000000000065
:105A60000000000000000000000000000000E00155
:105A7000F001F801FC01FE01FE01FC01F801F0015A
:105A8000E001000000000000000000000000000035
:105A9000000000000000000000000000000080077F
:105AA000800F801980318061806180318019800F82
:105AB000800700000000000000000000000000005F
:105AC000000000000000000000000000000080074F
:105AD000800F801F803F807F807F803F801F800FEE
